:020000040800F2
:10000000080B0020AD010008F7180008DD150008F6
:10001000F5180008090400080F1F00080000000080
:10002000000000000000000000000000ED1B0008C0
:100030000B0400080000000019190008EF1B00085D
:10004000C7010008C7010008C7010008C701000870
:10005000C7010008C7010008C7010008C701000860
:10006000C7010008C7010008C7010008C701000850
:10007000C7010008C7010008C7010008C701000840
:10008000C7010008C7010008C70100080000000000
:10009000000000000000000000000000C701000890
:1000A000C7010008C7010008C7010008C701000810
:1000B000C7010008C7010008C7010008C701000800
:1000C000C7010008C7010008C7010008C7010008F0
:1000D000C7010008C7010008C701000800000000B0
:1000E000C7010008C7010008C701000800000000A0
:1000F000000000000000000000000000C701000830
:1001000000000000C7010008C7010008C70100087F
:1001100000000000000000000000000000000000DF
:10012000C7010008C7010008C7010008C70100088F
:10013000C7010008000000000000000000000000EF
:10014000000000000000000000000000C7010008DF
:10015000C7010008C7010008C7010008C70100085F
:10016000C7010008C70100080000000000000000EF
:10017000000000000000000000000000000000007F
:1001800000000000C701000800000000000000009F
:10019000C7010008C7010008DFF80CD000F090F894
:1001A0000048004709210008080B00200648804746
:1001B00006480047FEE7FEE7FEE7FEE7FEE7FEE74C
:1001C000FEE7FEE7FEE7FEE7651C00089901000870
:1001D0002DE9F05F0546002092469B46884606467C
:1001E000814640241BE0284641464746224600F00F
:1001F00057F853465A46C01A914110D31146184633
:10020000224600F03EF82D1A67EB01084F462246C1
:100210000120002100F035F817EB00094E41201EA7
:10022000A4F10104DFDC484631462A464346BDE8D6
:10023000F09FD2B201E000F8012B491EFBD27047BB
:100240000022F6E710B513460A4604461946FFF7A2
:10025000F0FF204610BD30B50B460146002020229D
:10026000012409E021FA02F59D4205D303FA02F5C3
:10027000491B04FA02F52844151EA2F10102F1DC23
:1002800030BD202A04DB203A00FA02F1002070473A
:100290009140C2F1200320FA03F3194390407047C4
:1002A000202A04DB203A21FA02F00021704721FACB
:1002B00002F3D040C2F12002914008431946704732
:1002C000064C074D06E0E06840F0010394E80700A3
:1002D00098471034AC42F6D3FFF762FF6430000851
:1002E00084300008454910B54A6822F440324A601B
:1002F0004A6843681A434A6001684A6822F4807277
:100300004A6001684A68036942EA03224A60016858
:100310004A6822F040724A6001684A6883681A435A
:100320004A6001688A6822F400628A6001688A680B
:10033000C3681A438A60816A6FF07062D1420168B3
:100340008A6822F070628A6001688A680CD0836AC9
:100350001A438A6001688A6822F040528A60016804
:100360008A68C36A1A4301E022F040528A60016839
:100370008A6822F002028A6001688A68836942EA18
:1003800043028A60016A002901684A680FD042F47A
:1003900000624A6001684A6822F460424A6001686B
:1003A0004A68174C436A04EB43331A4301E022F4D2
:1003B00000624A600168CA6A22F47002CA62016877
:1003C000CA6A838B0F4C04EB03531A43CA62016859
:1003D0008A6822F400728A6001688A68036B42EAC4
:1003E00043228A6001688A6822F480628A60016818
:1003F0008A68406942EA8020886010BD002301407D
:1004000000E0FFFF0000F0FFFEE7704778B5002432
:10041000009490F83C20012A19D0012280F83C2059
:100420000A6807230568092A13D9EE680A3A02EB1D
:10043000420293409E43EE600A788B680A3A02EBD0
:10044000420293400268D5682B43D36010E002203B
:1004500078BD2E6902EB420293409E432E610A78DA
:100460008B6802EB42029340026815692B431361CB
:100470004A681F23072A13D205686E6B521E02EBCF
:10048000820293409E436E630B790A885B1E92B290
:1004900003EB83039A4003685D6B2A435A6327E0AA
:1004A00005680D2A12D22E6BD21F02EB82029340F6
:1004B0009E432E630B790A88DB1F92B203EB830302
:1004C0009A4003681D6B2A431A6311E0EE6A0D3AE5
:1004D00002EB820293409E43EE620B790A880D3B49
:1004E00092B203EB83039A400368DD6A2A43DA621F
:1004F000174B0568154A9D4206D10D68122D03D190
:10050000556845F48005556005689D4219D1114D27
:100510000B68AB4201D0112B13D1536843F4000395
:1005200053600968A9420CD10B490C4A0968B1FB18
:10053000F2F101EB8101490000E0491E0091002920
:10054000FBD180F83C40002078BD00000023014032
:1005500000200140120000102400002040420F0043
:100560000068C06C704770B504004FF0000503D000
:10057000206C002610B107E0012070BD666484F88D
:100580003C60204600F01AF8206CC00610D4206CA5
:1005900020F4885040F0020020642046FFF7A2FEBD
:1005A0006664206C20F0020040F00100206400E04E
:1005B000012584F83C60284670BD000010B586B067
:1005C000044614216846FFF73BFE11492068884223
:1005D0001CD110480021026842F480720260006859
:1005E00000F4807005900B481438026842F0010254
:1005F0000260006800F001000590042000900320D4
:10060000CDE901016946044800F078F806B010BD54
:1006100000200140443802400000024018B500218B
:10062000009190F83C20012A07D0012280F83C205C
:1006300002689368DB0702D011E0022018BD9368BE
:1006400043F001039360204A204B1268B2FBF3F29F
:1006500002EB420200E0521E0092002AFBD1026827
:100660009368DB072DD0036C40F20164A34343F48D
:100670008073036453685B0505D5036C23F4005352
:1006800043F480530364036CDB0404D5436C23F010
:100690000603436400E0416480F83C100C496FF0AD
:1006A0002203136049680068C90602D009498842DC
:1006B00007D1816811F0405F03D1816841F080412A
:1006C0008160002018BD00002400002040420F007F
:1006D000002301400020014070B5044600F0D2F82C
:1006E0000546601C02D004480078044400F0CAF8B3
:1006F000401BA042FAD370BD180000202DE9F84F2E
:10070000DFF860B100224FF001084FF0030A4FF00C
:100710000F090BF1040E00BF0B6808FA02F4234026
:10072000A3426ED14D68022D01D0122D0ED1D508F5
:1007300000EB850CDCF820505607F70E09FA07F697
:10074000B5430E69BE402E43CCF8206006685500C4
:100750000F790AFA05FC07F0030726EA0C06AF40FA
:10076000374307604E68012E05D0022E03D0112EAC
:1007700001D0122E0ED18668CF6826EA0C06AF4053
:10078000374387604668A6430C79C4F3001494404D
:1007900034434460C6688C6826EA0C06AC40344397
:1007A000C4604C68E40056D52F4C256845F480455C
:1007B0002560246822F0030504F4804400942B4C47
:1007C0002E19D6F8084895072F0F09FA07F5AC43FC
:1007D000274DA84201D1002515E0264DA84201D1A0
:1007E000012510E0244DA84201D102250BE0234D44
:1007F000A84201D1032506E0214DA84202D10425DB
:1008000001E028E00725BD402543C6F80858DBF87D
:1008100000405D464E689C43F60300D51C432C60A7
:10082000DEF8004075464E689C43B60300D51C4375
:100830002C600C4D08352C684E689C43F60200D5A0
:100840001C432C60074D0C352C684E689C43B60247
:1008500000D51C432C60521C102AFFF45DAFBDE88C
:10086000F88F0000003C0140443802400030014055
:10087000000002400004024000080240000C024058
:1008800000100240014880687047000018000020F6
:1008900070B5040004D094F83D00002510B106E0C6
:1008A000012070BD84F83C50204600F0C1F924209E
:1008B00084F83D002068016821F00101016000F02A
:1008C00013FB33492268B0FBF1F15160314A636890
:1008D000934206D94FF4967359434FF47A73B1FBA0
:1008E000F3F12368491C1962616891420BD84900F1
:1008F000B0FBF1F2C2F30B02042A01D2042019E08A
:10090000B0FBF1F016E0A3689BB301EBC10202EB70
:100910000112B0FBF2F242F48042120530D04BB328
:1009200001EBC10202EB0111B0FBF1F040F4804099
:1009300040F400402168C861D4E9070108432168F8
:100940000860D4E90310084321688860D4E90501F0
:1009500008432168C8602068016841F00101016016
:100960002564202084F83D00256384F83E50002053
:1009700070BD00E006E001EB4102B0FBF2F2CCE713
:100980000120D7E701EB4101B0FBF1F0D0E7000017
:1009900040420F00A08601002DE9FF4F81B099462B
:1009A0008B4604464FF00108FFF76CFF054694F8AC
:1009B0003D0020287BD1192301224D492046009576
:1009C00000F093FE002872D194F83C0001286ED00C
:1009D000012084F83C0020680168C90703D1016840
:1009E00041F0010101602068016821F400610160AB
:1009F000242084F83D00002626643E48E06220273B
:100A00002068016841F4807101604B4600224FF07C
:100A100001112046009500F068FE002858D1216899
:100A20000BF0FE000861FFF72DFF216805464869BD
:100A30004969C0F3400094F83D20C1F380214FF094
:100A4000A00A12E0B9F1000F04D0FFF71BFF411B11
:100A5000494501D984F83DA0216848694969C0F336
:100A6000400094F83D20C1F38021084301D1A02A21
:100A7000E8D184F83D7020684169C943890717D4DB
:100A8000016841F40071016020684169806919239F
:100A9000012217492046009500F027FEC0B984F8CE
:100AA0003D7084F83C60002005B0BDE8F08F1DE08B
:100AB000016841F40071016021686FF48060486151
:100AC000192301220A492046009500F00EFE08B1C4
:100AD0000320E9E74146039808F1010881428FD3DA
:100AE00084F83D7084F83C600120DDE70220DBE7FC
:100AF000020010000000FFFF2DE9F84F1F4690464E
:100B00008A460446DDF82890FFF7BCFE064694F8B6
:100B10003D0020287ED1192301224349204600961A
:100B200000F0E3FD00287DD194F83C00012879D045
:100B3000012084F83C0020680168C90703D10168DE
:100B400041F0010101602068016821F40061016049
:100B5000212084F83D00102084F83E000025256403
:100B6000C4F8248067853148E062608D2085334673
:100B70004A465146204600F047FD28B1206C84F8D3
:100B80003C5004284CD00DE02068416980690090F9
:100B900030E032464946204600F01CFE28B1206C69
:100BA000042838D00320BDE8F88F606A411C6162D8
:100BB000216800780861608D401E6085208D401E90
:100BC00080B2208521684A69D24352070BD450B1C4
:100BD000606A421C626200780861608D401E608518
:100BE000208D401E208532464946204600F056FDA5
:100BF0000028D4D1208D0028CBD154F83D0B0168BA
:100C000041F400710160202004F81E09E577657742
:100C10000020C8E706E02068016841F40071016027
:100C20000120C0E70220BEE7020010000000FFFF25
:100C300010B586B0044614216846FFF701FB14493D
:100C40002068884221D11348016841F00201016007
:100C50000068694600F0020005904FF4C0700090F3
:100C600012200190012002900320039004200490A0
:100C70000948FFF743FD07481030016841F40011AF
:100C80000160006800F40010059006B010BD00007F
:100C9000005400403038024000040240024881689D
:100CA0000278114481607047180000200B4810B58D
:100CB000016841F400710160016841F480610160E4
:100CC000016841F480710160032000F063F80020A6
:100CD00000F006F800F024F8002010BD003C0240AF
:100CE00070B50D4D04464FF47A712878B1FBF0F0E1
:100CF0000A490968B1FBF0F000F0C4FA48B9102CB9
:100D000007D200222146501E00F024F800206C601B
:100D100070BD012070BD00001800002024000020DC
:100D20000B4882B0016841F480410160006800F422
:100D3000804000900648001F016841F0805101602A
:100D4000006800F080500090072002B000F022B848
:100D500044380240F0B40E4B1B680C46C3F3022328
:100D6000C3F10705042D00D90425191D072901D257
:100D7000002300E0DB1E012606FA05F1491E214092
:100D800099409E40761E16403143F0BC00F0B4BD41
:100D90000CED00E0064900F0070208684FF6FF037B
:100DA000184040EA0220034A1043086070470000E0
:100DB0000CED00E00000FA052DE9F0470E460500B5
:100DC00065D0DFF81481D8F80000F7B200F00F000A
:100DD000B04207D288F80070D8F8000000F00F0089
:100DE000B04254D128683D4C810712D5400703D545
:100DF000206840F4E05020602878000703D5206880
:100E000040F4604020602068A96820F0F0000843AA
:100E100020602878C0072DD030496868083901283B
:100E200012D0022813D0032811D00968890700299D
:100E30002DDA216821F0030101432160FFF722FD33
:100E4000814641F2883A0EE009688903EFE70968B4
:100E50008901ECE7FFF716FDA0EB0901514502D926
:100E60000320BDE8F0872068696800F00C00B0EB53
:100E7000810FEFD1D8F80010404601F00F01B142C8
:100E800007D90770006800F00F00B04201D00120C0
:100E9000E7E72878400705D52068E96820F4E050A6
:100EA000084320602878000706D52068296920F4C7
:100EB000604040EAC100206000F026F82168084A3E
:100EC000C1F30311515CC840064908600020FFF7D8
:100ED00007FF0020C5E70000003C02400838024040
:100EE0004C300008240000200448054900680968C7
:100EF000044AC1F38221515CC8407047240000209D
:100F0000083802405C300008154810B5006810F041
:100F10000C02144813D04110042A0FD0082A0ED115
:100F20000F4C241F2268236802F03F025B0207D5A2
:100F30002068C0F38810A0FB010106E0084610BD40
:100F40002168C1F38811A1FB00010023FFF740F9DC
:100F50002168C1F30141491C4900B0FBF1F010BD0B
:100F6000083802400024F4002DE9F84F050076D03F
:100F70002878DFF8F8B2BE4CC00749D0DBF8001083
:100F80005846C1F38101012908D00068C0F38100EF
:100F900002280AD1201D0068400206D5206880037F
:100FA00036D568680028E2D032E06868B0F5803F46
:100FB00010D0B0F5A02F206810D020F48030206031
:100FC000206820F4802020606868A0B1FFF75AFCF8
:100FD00006460CE0206840F48030F4E740F48020BE
:100FE0002060F7E7FFF74EFC801B642873D8206869
:100FF0008003F7D50CE0FFF745FC064605E000BF8F
:10100000FFF740FC801B6428F0D820688003F7D4E9
:101010002878DFF8608280074FF000093ED5DBF8C2
:101020000010584611F00C0F09D00068C0F3810081
:1010300002280BD18D48001F0068400206D42068AA
:10104000800715D5E868012809D111E0E868B8B132
:101050000120C8F80000FFF715FC064605E002E194
:10106000FFF710FC801B0228C0D820688007F7D546
:101070002068296920F0F80040EAC10020600DE0F6
:10108000C8F80090FFF7FEFB064604E0FFF7FAFB06
:10109000801B02281FD820688007F7D42878000713
:1010A00022D5724E744869696C3671B101210160B4
:1010B000FFF7E8FB074604E0FFF7E4FBC01B02284C
:1010C00009D830688007F7D50EE0C0F80090FFF728
:1010D000D9FB074605E083E0FFF7D4FBC01B0228DD
:1010E0007ED830688007F7D42878400768D5DFF8C5
:1010F0007CA100270AF1380ADAF80000C0000BD4FE
:10110000DAF8001041F08051CAF80010DAF8000057
:10111000012700F080500090584E3068C00510D470
:10112000306840F480703060FFF7ACFB009005E061
:10113000FFF7A8FB0099401A022851D83068C00573
:10114000F6D54A4EA868683601280FD005283068C1
:1011500010D020F001003060306820F004003060D2
:10116000A868B8B1FFF78EFB00900FE0306840F040
:101170000100F4E740F004003060F7E7FFF782FB7E
:101180000099411A41F28830814264D83068800762
:10119000F4D50EE0FFF776FB009007E0FFF772FB57
:1011A0000099411A41F28830814254D83068800752
:1011B000F4D42FB1DAF8001021F08051CAF80010F1
:1011C000A869C0B3DBF80010C1F3810102294AD03D
:1011D0000228484607D0C8F86000FFF753FB00E03C
:1011E00039E005463AE04746C8F86000FFF74AFB99
:1011F000064604E0FFF746FB801B02282BD8206838
:101200008001F7D4D5E907010843A96A1C4A4908B7
:1012100002EB01416A6A41EA8211084395F82C10F9
:1012200040EA01611148001F016001203866FFF7A4
:1012300029FB054605E014E0FFF724FB401B0228CC
:1012400009D820688001F7D50BE000BFFFF71AFB33
:10125000401B022802D90320BDE8F88F20688001D6
:10126000F4D40020F8E70120F6E700000838024037
:101270000038024000004742800E474200700040A4
:101280000000FFFF10B5401EB0F1807F01D30120A8
:1012900010BD4FF0E02460610F21601700F02CFBBF
:1012A0000020A06107202061002010BD30B590F81B
:1012B0003820012A20D0012280F83820022380F82B
:1012C000393003685C6824F070045C6003685C6813
:1012D0000D682C435C6003689C6824F080049C606B
:1012E00003689C6849680C439C6080F839200021A1
:1012F00080F83810084630BD022030BD10B504001B
:1013000003D094F8390010B107E0012010BD00208F
:1013100084F83800204600F00DF8022084F83900E7
:10132000211D206800F0C8FC012084F8390000204D
:1013300010BD000008B500680649884208D106487B
:10134000016841F004010160006800F004000090B1
:1013500008BD0000000800404038024070B5044657
:1013600090F83800012817D0012584F83850022061
:1013700084F839002068826822F0770222F47F42E4
:1013800082600868502837D00DDC202859D005DC51
:1013900088B3102841D151E0022070BD302853D0CD
:1013A00040283AD13FE060282ED070280BD0B0F50D
:1013B000805F03D0B0F5005F2FD110E02068816816
:1013C00021F0070115E0CB68D1E90121206800F088
:1013D000C6FC2168886840F0770088601DE0CB6813
:1013E000D1E90121206800F0BAFC2068816841F44D
:1013F0008041816011E01EE0CA684968206800F001
:1014000063FD5021206806E0CA684968206800F042
:101410006CFD6021206800F0ACFC84F8395000209D
:1014200084F8380070BDCA684968206800F04CFD37
:1014300040212068EFE700212068ECE710212068B8
:10144000E9E720212068E6E730212068E3E7000093
:1014500010B586B0044614216846FEF7F1FE0E4929
:101460002068884215D10D480021026842F002022E
:1014700002600068012200F0020005904020009008
:101480000220CDE90102CDE9031069460448FFF7C7
:1014900035F906B010BD00000008004030380240A9
:1014A0000004024070B5044690F838000D4601284B
:1014B0000DD0012684F83860022084F8390042B14A
:1014C000042A18D0082A2AD00C2A4DD139E002204B
:1014D00070BD206800F056FC2068816941F0080169
:1014E00081612068816921F004018161206881693E
:1014F0002A69114311E0206800F06CFC20688169C2
:1015000041F4006181612068816921F48061816119
:10151000206881692A6941EA0221816124E020680A
:1015200000F084FC2068C16941F00801C1612068B5
:10153000C16921F00401C1612068C1692A691143B0
:1015400011E0206800F09EFC2068C16941F4006150
:10155000C1612068C16921F48061C1612068C169ED
:101560002A6941EA0221C16184F83960002084F8C7
:10157000380070BD10B5040003D094F8390010B1E4
:1015800007E0012010BD002084F83800204600F05C
:101590000CF8022084F83900211D206800F08CFB33
:1015A000012084F83900002010BD704710B50446B2
:1015B0000068012200F0C8FB07492068884203D177
:1015C000416C41F4004141642068016841F001012F
:1015D0000160002010BD000000000140FEE701682E
:1015E0004A69D24352050CD46FF480624A610421E7
:1015F0000164002140F8301F202242730173012052
:101600007047002070470000F8B50446C06A1E46C7
:101610000D461746042807D0012805D010F5803F55
:1016200002D0206B122804D12068016841F4807137
:101630000160134600224FF001112046009600F091
:1016400054F8A0B92069B0F5804F12D00620216867
:1016500000EAD51040F0F000086133463A460E49E2
:10166000204600F073F838B1206C042811D0032014
:10167000F8BD05F0FE0000E0E8B221680861064907
:1016800033463A46891F204600F060F80028EBD127
:10169000F8BD0120F8BD00000800010070B5164635
:1016A0000D4604461AE02046FFF799FF08B10120D5
:1016B00070BD681C12D025B1FFF7E4F8801BA8426A
:1016C0000CD954F8400F40F0200044F810090020D5
:1016D0002060202161732073032070BD2068406961
:1016E000C0434007DFD4002070BD2DE9F0471E46FF
:1016F00090460D460446C1F30747DDF8209012E0FE
:10170000701C10D02EB1FFF7BDF8A0EB0900B0425D
:1017100009D9002044F8300F20216173A073207391
:101720000320BDE8F0872068012F0AD0806925EAF0
:1017300000000004000C06D000214145E0D000204C
:10174000EFE74069F3E70121F7E700002DE9F047F3
:101750009A4691460D46044600264FF02008C1F3F4
:1017600007472AE020684069C043400512D420683A
:10177000016841F40071016021686FF48060486184
:1017800004202064266384F83D8084F83C600120B6
:10179000BDE8F087B9F1FF3F0FD0B9F1000F05D0D8
:1017A000FFF770F8A0EB0A01494506D944F8306FFD
:1017B00084F80D8026730320EAE72068012F07D004
:1017C000D0F8180025EA00000004000CE0D0C9E7BA
:1017D0004069F7E770B516460D4604461AE0204604
:1017E000FFF7FDFE08B1012070BD681C12D025B1C5
:1017F000FFF748F8801BA8420CD954F8400F40F07E
:10180000200044F81009002020602021617320731B
:10181000032070BD20684069C0430006DFD400206B
:1018200070BD00001FB50021124800910191029186
:101830000F4A039102604FF440324260012401617B
:101840004FF000728461826001620B4AC0E90A2194
:10185000C160C46144610163FEF785FE0220CDE9E9
:1018600000040320029069460248FEF7CFFD1FBD29
:1018700000200140300000200100000F10B58EB0A4
:1018800000240794089409940A940B941C21684638
:101890000C94FEF7D5FC1648144901601021C0E9EC
:1018A000011444F61F61C0E90314FFF727FD4FF44C
:1018B0008050079007A90E48FFF750FD0C48FFF72E
:1018C00059FE0B940BA90A480C94FFF7EFFC60201B
:1018D000CDE9000402940022694605480494FFF70C
:1018E000E1FD0348FFF7B4FD0EB010BD0008004055
:1018F000CC000020FEE770470907090E002806DA31
:1019000000F00F0000F1E02080F8141D704700F196
:10191000E02080F8001470477047000070B5802800
:1019200013D2402911D20B4B012401F007051E7977
:10193000AC40094BC90800EBC1100EB132B101E057
:10194000012A03D0195CA143195470BD195C2143CD
:10195000FAE70000100000200801002028B1FF2253
:101960004FF480610248FEF764BC0022F8E70000F3
:1019700008010020014A10805180704710000020AB
:1019800010B500F07BFC44F6206301227821514819
:10199000FFF702F808B1002010BD40F6C210401E4B
:1019A000FDD1AE220021782000F06EFC2022002123
:1019B000782000F069FC10220021782000F064FCFF
:1019C000B0220021782000F05FFCC822002178209E
:1019D00000F05AFC00221146782000F055FC10223D
:1019E0000021782000F050FC40220021782000F0F7
:1019F0004BFC81220021782000F046FCFF220021D0
:101A0000782000F041FCA1220021782000F03CFC6D
:101A1000A6220021782000F037FCA822002178209F
:101A200000F032FC3F220021782000F02DFCA4229F
:101A30000021782000F028FCD3220021782000F03B
:101A400023FC00221146782000F01EFCD522002144
:101A5000782000F019FCF0220021782000F014FC1E
:101A6000D9220021782000F00FFC222200217820CA
:101A700000F00AFCDA220021782000F005FC122296
:101A80000021782000F000FCDB220021782000F00B
:101A9000FBFB20220021782000F0F6FB8D220021A4
:101AA000782000F0F1FB14220021782000F0ECFBFC
:101AB000AF220021782000F0E7FB0020FFF74EFF67
:101AC00000F070F80448002101804180012141713B
:101AD000084610BD78000020100000202DE9F047D6
:101AE000814625480D46924601882A78114480296E
:101AF00005D28046408869780844402802D30020F7
:101B0000BDE8F08700262AE0A9F1200111FB006062
:101B10006A68002432F810701DE000BF07FA04F074
:101B2000000409D5B8F80210B8F800003144204488
:101B300089B280B252460BE0BAF1000F1AD00022EF
:101B4000B8F80210B8F800003144204489B280B2DD
:101B5000FFF7E4FE641C2878A042DFD8761C687882
:101B6000B042D1D8B8F800102A7848461144A8F8F5
:101B70000010C5E70122E3E71000002070B515460C
:101B80000E46044609E02A463146FFF7A7FF2178B2
:101B9000884201D0C8B270BD641C20780028F2D100
:101BA000C0B270BD70B5104D002400BF04F1B0008C
:101BB000C2B20021782000F067FB00221146782095
:101BC00000F062FB10220021782000F05DFB05EBA5
:101BD000C41280234021782000F066FB641CE4B22C
:101BE000082CE3D370BD0000080100207047FFF708
:101BF00055B8000010B592B030216846FEF720FBC2
:101C000014210CA8FEF71CFB14480024016841F0C5
:101C100080510160006800F0805011901048016808
:101C200041F4404101600068069400F44040119086
:101C30000220009001200390102004906846FFF7D6
:101C400093F90F20CDE90C040E940F9400210CA8F9
:101C50001094FFF7B1F812B010BD000040380240F8
:101C6000007000401048016841F4700101600F48A5
:101C7000016841F0010101600C4A00210832116045
:101C800002680B4B1A400260031D0A4A1A60026880
:101C900022F48022026005480C3001600249580697
:101CA000803908607047000088ED00E0003802408D
:101CB000FFFFF6FE10300024F0B502681B4B1C4CF1
:101CC0009F031C4D1C4E984207D0B84205D0A0423D
:101CD00003D0A84201D0B04204D122F0700C4A686F
:101CE00042EA0C02984210D0B8420ED0A0420CD06A
:101CF000A8420AD0B04208D0104CA04205D0104CE7
:101D0000A04202D00F4CA04203D122F44074CA6812
:101D1000224302608A68C2620A688262984201D1E4
:101D20000969016301214161F0BD0000000001402B
:101D30000004004000080040000C0040004001404A
:101D4000004401400048014010B50123046A8B4063
:101D50009C430462036A8A401343036210BD10B5BA
:101D6000846842EA032224F47F440A4322438260C7
:101D700010BD826822F070020A4342F007018160C0
:101D80007047000030B5026A22F001020262026A66
:101D90004368846924F073050C682C4322F0020523
:101DA0008A682A430A4DA8420BD122F00805CA6866
:101DB00023F440732A434D6922F004021D438B69CA
:101DC0002B434360846149684163026230BD000077
:101DD0000000014030B5026A22F010020262026A7D
:101DE000436884690D6824F4E64444EA05248D6858
:101DF00022F0200242EA05120B4DA8420ED1CD6816
:101E000022F0800242EA05124D6923F4406343EA5E
:101E100085038D6922F0400243EA850343608461B3
:101E200049688163026230BD0000014030B5026A3A
:101E300022F480720262036A4268C46923F4007368
:101E400024F073050C682C438D6843EA05230C4D80
:101E5000A8420ED1CD6823F4006343EA05234D69FF
:101E600022F4405242EA05128D6923F4806342EA6B
:101E700005124260C4614968C163036230BD00005D
:101E80000000014030B5026A22F480520262046A06
:101E90004268C3690D6823F4E64343EA05238D686D
:101EA00024F4005444EA0534064DA84204D14D6997
:101EB00022F4804242EA85124260C36149680164AB
:101EC000046230BD0000014010B5036A046A24F0CA
:101ED00001040462846924F0F00444EA021423F04B
:101EE0000A020A438461026210BD10B5036A23F03E
:101EF000100303628369046A23F4704343EA0232E5
:101F000024F0A00343EA01118261016210BDFEE7E3
:101F10000FB4084B10B504A902AA039800F01CF8EE
:101F2000044602A9002000F0C1F8204610BC5DF86C
:101F300014FB0000AD20000802E008C8121F08C111
:101F4000002AFAD170477047002001E001C1121F3A
:101F5000002AFBD1704700002DE9FF4F89B09B4656
:101F60000446002506E025280BD05A460B999047D9
:101F7000641C6D1C20780028F5D10DB02846BDE802
:101F8000F08F0027B8460122474900E0074314F8C4
:101F9000013F203B02FA03F00842F7D120782E28B7
:101FA00019D114F8010F47F004072A280ED06FF05A
:101FB0002F022078A0F1300109290CD808EB880104
:101FC00002EB410100EB0108641CF2E70A98641C73
:101FD00050F8048B0A9020780028CED0642808D0CE
:101FE000692806D075281ED05A460B9990476D1C5B
:101FF00058E00A994FF00A0901C90A91002802DA4B
:1020000040422D2102E0390504D52B218DF8201006
:10201000012103E0F90704D02021F7E78A4608AE42
:102020000DE00021FAE70A994FF00A0901C90A9167
:10203000F7E74946FEF70FF9303106F8011D002891
:10204000F7D1ADEB060000F12009780701D44FF07D
:102050000108C84502DDA8EB090000E00020804629
:10206000002706E008A85A46C05D0B9990476D1CF2
:102070007F1C5745F6DB04E030205A460B99904709
:102080006D1CB8F10001A8F10108F5DC05E016F8B7
:10209000010B5A460B9990476D1CB9F10001A9F14B
:1020A0000109F4DC641C65E7092801000A68531C77
:1020B0000B6010707047000010B5002821D0114B44
:1020C0000022001F196803E0814203D80A464968CC
:1020D0000029F9D152B11368841A9C4204D10068D6
:1020E00018441060104602E0506000E0186039B1FA
:1020F00002680B1A934203D10B681A4402604968C4
:10210000416010BD2800002008B5FEF7CFFDFFF7A5
:1021100071FD37480024016841F0800101600168C9
:1021200001F080010091016841F001010160016846
:1021300001F001010091016841F0020101600068B5
:1021400000F002000090FFF76DFBFFF797FB2A48B5
:10215000284901602949C0E901144FF48041C0E9D0
:10216000034144618461C4610462FEF791FB22482B
:102170004838FEF753FA204800215430FFF716FA8A
:102180001F4C4FF4617020604FF47A70FEF7A4FA90
:102190000020FFF7E3FB1B4D4FF496664FF44877A2
:1021A00015484838FEF7DCF9287005E02068401D26
:1021B00020600A20FEF790FA2068B042F6D327602C
:1021C00010482A7810A1801CFFF7A2FEFFF7D8FB69
:1021D0006870FFF7E7FC0A212820FFF7CBFB0948CE
:1021E00001220A49801CFFF7C9FCFFF7DBFCD7E797
:1021F000303802400054004078000020801A060069
:102200003408004000000020256400000800002081
:10221000F0B50B30154D20F007010024144A0FE0F3
:1022200003688B420BD38B4205D95E1A431847686B
:10223000C3E9006700E04368136002C004E0021DC8
:1022400010680028ECD12046002802D1286808B187
:102250000020F0BD064A07481060074A121A22F013
:102260000702C0E9002401202860D7E72C000020E5
:10227000280000200C050020080700200148401E0F
:10228000FDD1704790D003001CB502238DF80410D7
:102290000A2100918DF80520014601AA0148FEF7A8
:1022A0002BFC1CBD780000202DE9F84380461C461D
:1022B00016460F46581CFFF7ABFF05460770012076
:1022C00005E0311811F8011C2954401CC0B2A0428D
:1022D000F7D90A20009023462A4641460348FEF7D4
:1022E0000BFC2846BDE8F843FFF7E6BE7800002067
:1022F00000000000000000000000000000000000DE
:1023000000000000000000000000000000000000CD
:10231000000000000000000C000C000C000C000C81
:10232000000C000C000C000C000C000C0000000C59
:10233000000C0000000000000000001B001B001B40
:10234000001B001B00000000000000000000000057
:1023500000000000000000000000000000008019E4
:10236000801980198019C07FC07F80190033C07F19
:10237000C07F003300330033003300000000000052
:102380000000001E003F807580650074003C001E48
:1023900000078005806580658075003F001E000491
:1023A000000400000000007000D840D8C0D880D9D8
:1023B00000730006000C801BC036C066C046C00615
:1023C00080030000000000000000001E003F0033FA
:1023D00000330033001E000CC03CC0668063806187
:1023E0008063C03E801C0000000000000000000C64
:1023F000000C000C000C000C0000000000000000AD
:1024000000000000000000000000000000000000CC
:10241000800000010003000600060004000C000C10
:10242000000C000C000C000C000400060006000369
:1024300000018000002000100018000C000C0004B7
:102440000006000600060006000600060004000C58
:10245000000C0018001000200000000C002D003FB0
:10246000001E00330000000000000000000000001B
:10247000000000000000000000000000000000005C
:102480000000000C000C000C000CC0FFC0FF000C92
:10249000000C000C000C0000000000000000000018
:1024A000000000000000000000000000000000002C
:1024B00000000000000000000000000C000C000400
:1024C0000004000800000000000000000000000000
:1024D000000000000000001E001E000000000000C0
:1024E00000000000000000000000000000000000EC
:1024F00000000000000000000000000000000000DC
:102500000000000C000C00000000000000000003B0
:10251000000300030006000600060006000C000C85
:10252000000C000C0018001800180000000000004B
:102530000000001E003F0033806180618061806D7B
:10254000806D8061806180610033003F001E00006B
:102550000000000000000006000E001E00360026ED
:10256000000600060006000600060006000600063B
:1025700000060000000000000000001E003F807305
:1025800080618061800100030006000C00180030AB
:102590000060807F807F0000000000000000001CC1
:1025A000003E006300630003000E000E0003800184
:1025B000800180618073003F001E00000000000069
:1025C00000000006000E000E001E001E0016003661
:1025D00000360066807F807F00060006000600004F
:1025E000000000000000007F007F006000600060CD
:1025F000006E007F80638001800180618073003FF6
:10260000001E0000000000000000001E003F80339C
:1026100080610060006E007F8073806180618061F6
:102620008033003F001E0000000000000000807F9B
:10263000807F80010003000300060006000C000CF0
:10264000000C00080018001800180000000000002E
:102650000000001E003F8063806180610021001E39
:10266000003F8061806180618061003F001E00004A
:10267000000000000000001E003F007380618061C8
:1026800080618073803F801D800180610073003F06
:10269000001E00000000000000000000000000001C
:1026A0000000000C000C0000000000000000000012
:1026B0000000000C000C0000000000000000000002
:1026C0000000000000000000000C000C00000000F2
:1026D000000000000000000C000C000400040008D2
:1026E000000000000000000080008003000E0038A1
:1026F00000600038000E8003800000000000000031
:102700000000000000000000000000000000807FCA
:10271000807F00000000807F807F000000000000BC
:1027200000000000000000000000000000000000A9
:1027300000400070001C000780010007001C0070B2
:102740000040000000000000000000000000001F2A
:10275000803FC071C060C000C00180030007000E50
:10276000000C000C0000000C000C00000000000039
:102770000000001E003F803180718063806F806D9B
:10278000806D806F806700600032003E001C00009A
:10279000000000000000000E000E001B001B001BCC
:1027A000001B80318031803F803F8031C060C0603D
:1027B000C0600000000000000000007C007E00639C
:1027C000006300630063007E007E006380618061BF
:1027D0008063007F007E0000000000000000001EFB
:1027E000003F803180610060006000600060006038
:1027F000006080618031003F001E0000000000008A
:102800000000007C007F00638063806180618061E4
:1028100080618061806100630063007E007C000055
:10282000000000000000807F807F0060006000608A
:102830000060007F007F0060006000600060807FBB
:10284000807F0000000000000000807F807F00602B
:10285000006000600060007F007F0060006000603A
:102860000060006000600000000000000000001E2A
:10287000003F8031806100600060006080638063A1
:10288000806180618031803F001E000000000000F8
:102890000000806180618061806180618061807FF3
:1028A000807F8061806180618061806180610000E3
:1028B000000000000000003F003F000C000C000C76
:1028C000000C000C000C000C000C000C000C003F75
:1028D000003F000000000000000080018001800136
:1028E0008001800180018001800180018061806120
:1028F0008073003F001E0000000000000000C06068
:102900008061006300660066006C0078007C0066F1
:102910000066006380618061C0600000000000000C
:102920000000006000600060006000600060006007
:1029300000600060006000600060807F807F0000B9
:10294000000000000000C071C071C07BC07AC06A86
:10295000C06AC06EC064C060C060C060C060C0605B
:10296000C06000000000000000008071807180796C
:1029700080798079806D806D806D806580678067EB
:102980008067806380630000000000000000001E7C
:10299000003F00338061806180618061806180617F
:1029A000806180610033003F001E000000000000D5
:1029B0000000007E007F80638061806180618063B1
:1029C000007F007E0060006000600060006000002A
:1029D000000000000000001E003F003380618061A5
:1029E0008061806180618061806580670033803FA5
:1029F000401E0000000000000000007E007F806399
:102A0000806180618063007F007E006600630063F8
:102A100080618061C0600000000000000000000EC6
:102A2000001F8031803100300038001E0007800315
:102A3000806180618031003F001E000000000000C6
:102A40000000C0FFC0FF000C000C000C000C000CCC
:102A5000000C000C000C000C000C000C000C000022
:102A60000000000000008061806180618061806101
:102A70008061806180618061806180618073003FDE
:102A8000001E0000000000000000C060C060C060C8
:102A9000803180318031001B001B001B001B000EA9
:102AA000000E000E00040000000000000000C0C086
:102AB000C0C0C0C0C0C0C0C0C0CC804C804C805E14
:102AC00080528052807380618061000000000000AD
:102AD0000000C0C0806080610033003B001E000C1D
:102AE000000C001E001F003B80718061C0C0000010
:102AF000000000000000C0C080618061003300332E
:102B0000001E001E000C000C000C000C000C000C41
:102B1000000C0000000000000000803F803F8001AA
:102B2000000300030006000C000C00180018003021
:102B30000060807F807F000000000000000F000F19
:102B4000000C000C000C000C000C000C000C000C25
:102B5000000C000C000C000C000C000C000F000F0F
:102B60000000001800180018000C000C000C000CED
:102B70000006000600060006000300030003000034
:102B800000000000001E001E0006000600060006F1
:102B90000006000600060006000600060006000605
:102BA00000060006001E001E0000000C000C001EA7
:102BB00000120033003380618061000000000000DB
:102BC0000000000000000000000000000000000005
:102BD00000000000000000000000000000000000F5
:102BE000000000000000000000000000E0FF000006
:102BF000000000380018000C000000000000000079
:102C000000000000000000000000000000000000C4
:102C10000000000000000000000000000000001F95
:102C2000803F80618001801F803F80618063807F62
:102C3000C03800000000000000000060006000607C
:102C40000060006E007F80738061806180618061C0
:102C50008073007F006E0000000000000000000094
:102C6000000000000000001E003F807380610060D3
:102C7000006080618073003F001E000000000000C3
:102C800000008001800180018001801D803F8073F1
:102C900080618061806180618073803F801D000061
:102CA0000000000000000000000000000000001E06
:102CB000003F00738061807F807F00608071003FF3
:102CC000001E0000000000000000C007C00F000C44
:102CD000000C807F807F000C000C000C000C000CAE
:102CE000000C000C000C00000000000000000000C0
:102CF00000000000801D803F8073806180618061E2
:102D000080618073803F801D80018063007F003E72
:102D100000000060006000600060006F807F8071D4
:102D2000806180618061806180618061806100007C
:102D30000000000000000006000600000000003E49
:102D4000003E00060006000600060006000600061B
:102D50000006000000000000000600060000000061
:102D6000003E003E000600060006000600060006C3
:102D70000006000600060046007E003C00000060E1
:102D8000006000600060806100630066006C007C91
:102D90000076006300638061C060000000000000F6
:102DA0000000003E003E0006000600060006000689
:102DB00000060006000600060006000600060000E9
:102DC000000000000000000000000000000080DDA6
:102DD000C0FFC0CEC0CCC0CCC0CCC0CCC0CCC0CC5E
:102DE000C0CC000000000000000000000000000057
:102DF0000000006F807F80718061806180618061F0
:102E0000806180618061000000000000000000001F
:102E1000000000000000001E003F807380618061A0
:102E2000806180618073003F001E00000000000090
:102E30000000000000000000006E007F80738061D1
:102E40008061806180618073007F006E006000603F
:102E5000006000600000000000000000801D803F56
:102E6000807380618061806180618073803F801D9C
:102E7000800180018001800100000000000000004E
:102E800000000067803F0039003000300030003023
:102E900000300030003000000000000000000000A2
:102EA000000000000000001E803F80610060007F85
:102EB000803F80018061007F001E00000000000054
:102EC00000000000000800180018007F007F0018B4
:102ED00000180018001800180018801F800F00004C
:102EE0000000000000000000000000000000806101
:102EF0008061806180618061806180618063807FAA
:102F0000803D000000000000000000000000000004
:102F10000000C060803180318031001B001B001B2D
:102F2000000E000E0006000000000000000000007F
:102F300000000000000080DD80DD80DD00550055D0
:102F400000550077007700220022000000000000FA
:102F5000000000000000000000008061003300332A
:102F6000001E000C000C001E0033003380610000C6
:102F7000000000000000000000000000806180618F
:102F8000803100330033001B001B001B000E000EBD
:102F9000000E001C007C007000000000000000001B
:102FA0000000C07FC07F800100030006000C0018F5
:102FB0000030C07FC07F0000000000008003800759
:102FC00000060006000600060006000E001C001C9D
:102FD000000E0006000600060006000680078003BB
:102FE00000060006000600060006000600060006B1
:102FF00000060006000600060006000600060006A1
:10300000000600060038003C000C000C000C000C10
:10301000000C000E00070007000E000C000C000C56
:10302000000C000C003C0038000000000000000014
:103030000000000000008038807F00470000000092
:103040000000000000000000000000000000000080
:103050000000000001020304060708090000000048
:10306000010203048430000800000020300000004A
:10307000381F0008B430000830000020D80A0000D3
:10308000481F000800000000000000000B120000B4
:10309000F022000800000000000000000100000015
:1030A00010000000000000000024F40000000000F8
:0430B000000000001C
:040000050800019955
:00000001FF
