:020000040800F2
:1000000050040020AD010008130E0008950D0008F3
:10001000110E0008B90200086B1100080000000072
:10002000000000000000000000000000370E000883
:10003000BB02000800000000350E0008390E000861
:10004000C7010008C7010008C7010008C701000870
:10005000C7010008C7010008C7010008C701000860
:10006000C7010008C7010008C7010008C701000850
:10007000C7010008C7010008C7010008C701000840
:10008000C7010008C7010008C70100080000000000
:10009000000000000000000000000000C701000890
:1000A000C7010008C7010008C7010008C701000810
:1000B000C7010008C7010008C7010008C701000800
:1000C000C7010008C7010008C7010008C7010008F0
:1000D000C7010008C7010008C701000800000000B0
:1000E000C7010008C7010008C701000800000000A0
:1000F000000000000000000000000000C701000830
:1001000000000000C7010008C7010008C70100087F
:1001100000000000000000000000000000000000DF
:10012000C7010008C7010008C7010008C70100088F
:10013000C7010008000000000000000000000000EF
:10014000000000000000000000000000C7010008DF
:10015000C7010008C7010008C7010008C70100085F
:10016000C7010008C70100080000000000000000EF
:10017000000000000000000000000000000000007F
:1001800000000000C701000800000000000000009F
:10019000C7010008C7010008DFF80CD000F07AF8AA
:1001A000004800478D110008500400200648804791
:1001B00006480047FEE7FEE7FEE7FEE7FEE7FEE74C
:1001C000FEE7FEE7FEE7FEE7C10E00089901000822
:1001D0002DE9F05F0546002092469B46884606467C
:1001E000814640241BE0284641464746224600F00F
:1001F00041F853465A46C01A914110D31146184649
:10020000224600F028F82D1A67EB01084F462246D7
:100210000120002100F01FF817EB00094E41201EBD
:10022000A4F10104DFDC484631462A464346BDE8D6
:10023000F09FD2B201E000F8012B491EFBD27047BB
:100240000022F6E710B513460A4604461946FFF7A2
:10025000F0FF204610BD202A04DB203A00FA02F10C
:10026000002070479140C2F1200320FA03F31943A4
:1002700090407047202A04DB203A21FA02F0002146
:10028000704721FA02F3D040C2F1200291400843A6
:1002900019467047064C074D06E0E06840F0010340
:1002A00094E8070098471034AC42F6D3FFF778FF84
:1002B0000012000820120008FEE7704770B50446DF
:1002C00000F0D2F80546601C02D0044800780444CF
:1002D00000F0CAF8401BA042FAD370BD0000002015
:1002E0002DE9F84FDFF860B100224FF001084FF020
:1002F000030A4FF00F090BF1040E00BF0B6808FA58
:1003000002F42340A3426ED14D68022D01D0122D7C
:100310000ED1D50800EB850CDCF820505607F70EFF
:1003200009FA07F6B5430E69BE402E43CCF82060AB
:10033000066855000F790AFA05FC07F0030726EA5C
:100340000C06AF40374307604E68012E05D0022EE1
:1003500003D0112E01D0122E0ED18668CF6826EA66
:100360000C06AF40374387604668A6430C79C4F358
:100370000014944034434460C6688C6826EA0C0636
:10038000AC403443C4604C68E40056D52F4C25681B
:1003900045F480452560246822F0030504F4804478
:1003A00000942B4C2E19D6F8084895072F0F09FA00
:1003B00007F5AC43274DA84201D1002515E0264D95
:1003C000A84201D1012510E0244DA84201D1022507
:1003D0000BE0234DA84201D1032506E0214DA842A0
:1003E00002D1042501E028E00725BD402543C6F8D9
:1003F0000858DBF800405D464E689C43F60300D584
:100400001C432C60DEF8004075464E689C43B603E2
:1004100000D51C432C600C4D08352C684E689C435D
:10042000F60200D51C432C60074D0C352C684E6835
:100430009C43B60200D51C432C60521C102AFFF4CA
:100440005DAFBDE8F88F0000003C01404438024039
:100450000030014000000240000402400008024059
:10046000000C024000100240014880687047000004
:1004700000000020024881680278114481607047C2
:10048000000000200B4810B5016841F400710160C4
:10049000016841F480610160016841F4807101608C
:1004A000032000F063F8002000F006F800F024F8C4
:1004B000002010BD003C024070B50D4D04464FF4C5
:1004C0007A712878B1FBF0F00A490968B1FBF0F0C5
:1004D00000F0B4FA48B9102C07D200222146501E71
:1004E00000F024F800206C6070BD012070BD000099
:1004F000000000200C0000200B4882B0016841F48D
:1005000080410160006800F4804000900648001FB0
:10051000016841F080510160006800F08050009057
:10052000072002B000F022B844380240F0B40E4B6D
:100530001B680C46C3F30223C3F10705042D00D941
:100540000425191D072901D2002300E0DB1E012626
:1005500006FA05F1491E214099409E40761E16403C
:100560003143F0BC00F056BC0CED00E0064900F051
:10057000070208684FF6FF03184040EA0220034ACA
:1005800010430860704700000CED00E00000FA0521
:100590002DE9F0470E46050065D0DFF81481D8F844
:1005A0000000F7B200F00F00B04207D288F80070E8
:1005B000D8F8000000F00F00B04254D128683D4C3C
:1005C000810712D5400703D5206840F4E050206031
:1005D0002878000703D5206840F460402060206838
:1005E000A96820F0F000084320602878C0072DD0CB
:1005F000304968680839012812D0022813D003282E
:1006000011D00968890700292DDA216821F003013A
:1006100001432160FFF728FF814641F2883A0EE04E
:1006200009688903EFE709688901ECE7FFF71CFF18
:10063000A0EB0901514502D90320BDE8F0872068ED
:10064000696800F00C00B0EB810FEFD1D8F8001012
:10065000404601F00F01B14207D90770006800F071
:100660000F00B04201D00120E7E72878400705D508
:100670002068E96820F4E0500843206028780007EB
:1006800006D52068296920F4604040EAC100206056
:1006900000F016F82168084AC1F30311515CC84004
:1006A000064908600020FFF707FF0020C5E70000AB
:1006B000003C024008380240F01100080C00002005
:1006C000154810B5006810F00C02144813D0411002
:1006D000042A0FD0082A0ED10F4C241F2268236849
:1006E00002F03F025B0207D52068C0F38810A0FB30
:1006F000010106E0084610BD2168C1F38811A1FB85
:1007000000010023FFF764FD2168C1F30141491C8A
:100710004900B0FBF1F010BD083802400024F4009D
:100720002DE9F84F050076D02878DFF8F8B2BE4CF6
:10073000C00749D0DBF800105846C1F381010129F8
:1007400008D00068C0F3810002280AD1201D00688B
:10075000400206D52068800336D568680028E2D0BC
:1007600032E06868B0F5803F10D0B0F5A02F206867
:1007700010D020F480302060206820F48020206099
:100780006868A0B1FFF770FE06460CE0206840F4F0
:100790008030F4E740F480202060F7E7FFF764FE44
:1007A000801B642873D820688003F7D50CE0FFF71E
:1007B0005BFE064605E000BFFFF756FE801B64287F
:1007C000F0D820688003F7D42878DFF860828007AB
:1007D0004FF000093ED5DBF80010584611F00C0F21
:1007E00009D00068C0F3810002280BD18D48001F9A
:1007F0000068400206D42068800715D5E868012803
:1008000009D111E0E868B8B10120C8F80000FFF78D
:100810002BFE064605E002E1FFF726FE801B0228BC
:10082000C0D820688007F7D52068296920F0F80033
:1008300040EAC10020600DE0C8F80090FFF714FE08
:10084000064604E0FFF710FE801B02281FD8206830
:100850008007F7D42878000722D5724E744869695A
:100860006C3671B101210160FFF7FEFD074604E01F
:10087000FFF7FAFDC01B022809D830688007F7D5BA
:100880000EE0C0F80090FFF7EFFD074605E083E0BB
:10089000FFF7EAFDC01B02287ED830688007F7D436
:1008A0002878400768D5DFF87CA100270AF1380ACC
:1008B000DAF80000C0000BD4DAF8001041F08051E3
:1008C000CAF80010DAF80000012700F0805000900C
:1008D000584E3068C00510D4306840F480703060E5
:1008E000FFF7C2FD009005E0FFF7BEFD0099401A3A
:1008F000022851D83068C005F6D54A4EA868683637
:1009000001280FD00528306810D020F00100306099
:10091000306820F004003060A868B8B1FFF7A4FD8B
:1009200000900FE0306840F00100F4E740F0040070
:100930003060F7E7FFF798FD0099411A41F28830DF
:10094000814264D830688007F4D50EE0FFF78CFD53
:10095000009007E0FFF788FD0099411A41F28830C6
:10096000814254D830688007F4D42FB1DAF80010EF
:1009700021F08051CAF80010A869C0B3DBF800105C
:10098000C1F3810102294AD00228484607D0C8F89D
:100990006000FFF769FD00E039E005463AE04746B0
:1009A000C8F86000FFF760FD064604E0FFF75CFD55
:1009B000801B02282BD820688001F7D4D5E90701D5
:1009C0000843A96A1C4A490802EB01416A6A41EAE4
:1009D0008211084395F82C1040EA01611148001F6C
:1009E000016001203866FFF73FFD054605E014E091
:1009F000FFF73AFD401B022809D820688001F7D58F
:100A00000BE000BFFFF730FD401B022802D9032096
:100A1000BDE8F88F20688001F4D40020F8E70120B9
:100A2000F6E7000008380240003802400000474264
:100A3000800E4742007000400000FFFF10B5401ECE
:100A4000B0F1807F01D3012010BD4FF0E024606140
:100A50000F21601700F0DEF90020A061072020615F
:100A6000002010BD30B590F83820012A20D0012296
:100A700080F83820022380F8393003685C6824F05D
:100A800070045C6003685C680D682C435C600368FC
:100A90009C6824F080049C6003689C6849680C434F
:100AA0009C6080F83920002180F83810084630BD5D
:100AB000022030BD10B5040003D094F8390010B105
:100AC00007E0012010BD002084F83800204600F027
:100AD0000DF8022084F83900211D206800F01AFA70
:100AE000012084F83900002010BD000008B500681E
:100AF0000649884208D10648016841F004010160B6
:100B0000006800F00400009008BD000000080040EC
:100B10004038024070B5044690F83800012817D0DC
:100B2000012584F83850022084F839002068826852
:100B300022F0770222F47F4282600868502837D082
:100B40000DDC202859D005DC88B3102841D151E0B4
:100B5000022070BD302853D040283AD13FE06028B1
:100B60002ED070280BD0B0F5805F03D0B0F5005FB9
:100B70002FD110E02068816821F0070115E0CB68D3
:100B8000D1E90121206800F018FA2168886840F056
:100B9000770088601DE0CB68D1E90121206800F072
:100BA0000CFA2068816841F48041816011E01EE008
:100BB000CA684968206800F0B5FA5021206806E04C
:100BC000CA684968206800F0BEFA6021206800F019
:100BD000FEF984F83950002084F8380070BDCA68E6
:100BE0004968206800F09EFA40212068EFE7002164
:100BF0002068ECE710212068E9E720212068E6E77B
:100C000030212068E3E7000010B586B004461421C7
:100C10006846FFF715FB0E492068884216D10D483B
:100C20000021026842F0080202600068012200F020
:100C3000080005904FF4805000900220CDE9010299
:100C4000CDE9031069460448FFF74AFB06B010BD22
:100C50000008004030380240000C024070B50446E5
:100C600090F838000D4601280DD0012684F8386030
:100C7000022084F8390042B1042A18D0082A2AD068
:100C80000C2A4DD139E0022070BD206800F0A8F98F
:100C90002068816941F0080181612068816921F043
:100CA00004018161206881692A69114311E020688B
:100CB00000F0BEF92068816941F40061816120681B
:100CC000816921F480618161206881692A6941EA32
:100CD0000221816124E0206800F0D6F92068C16912
:100CE00041F00801C1612068C16921F00401C161BE
:100CF0002068C1692A69114311E0206800F0F0F909
:100D00002068C16941F40061C1612068C16921F4B2
:100D10008061C1612068C1692A6941EA0221C1611B
:100D200084F83960002084F8380070BD10B50400E4
:100D300003D094F8390010B107E0012010BD002065
:100D400084F83800204600F00CF8022084F83900BE
:100D5000211D206800F0DEF8012084F83900002011
:100D600010BD704710B504460068012200F01AF962
:100D700007492068884203D1416C41F40041416435
:100D80002068016841F001010160002010BD0000F1
:100D900000000140FEE7000010B58EB0002407946B
:100DA000089409940A940B941C2168460C94FFF74C
:100DB00047FA1648144901605421C0E9011444F669
:100DC0001F61C0E90314FFF775FE4FF480500790D0
:100DD00007A90E48FFF79EFE0C48FFF7A7FF0B94EC
:100DE0000BA90A480C94FFF73DFE6020CDE90004F2
:100DF00002940022694605480494FFF72FFF034838
:100E0000FFF702FF0EB010BD0008004010000020E8
:100E1000FEE770470907090E002806DA00F00F0008
:100E200000F1E02080F8141D704700F1E02080F808
:100E30000014704770477047FFF71CBB30B593B084
:100E400030216846FFF7FCF914210CA8FFF7F8F9E8
:100E500019480025016841F080510160006800F0E8
:100E6000805011901548016841F4404101600068CC
:100E7000022400F4404011900120009000040190F1
:100E80008001CDE90640042008905420CDE90904F2
:100E900008200B906846FFF743FC0CA90F2081E85F
:100EA00031004FF4A050CDE90F0502210CA8FFF747
:100EB0006FFB13B030BD00004038024000700040AE
:100EC0001048016841F4700101600F48016841F069
:100ED000010101600C4A00210832116002680B4BCD
:100EE0001A400260031D0A4A1A60026822F4802236
:100EF000026005480C3001600249580680390860DC
:100F00007047000088ED00E000380240FFFFF6FE69
:100F100010300024F0B502681B4B1C4C9F031C4D85
:100F20001C4E984207D0B84205D0A04203D0A84238
:100F300001D0B04204D122F0700C4A6842EA0C029F
:100F4000984210D0B8420ED0A0420CD0A8420AD08D
:100F5000B04208D0104CA04205D0104CA04202D0A4
:100F60000F4CA04203D122F44074CA6822430260AD
:100F70008A68C2620A688262984201D10969016383
:100F800001214161F0BD000000000140000400406B
:100F900000080040000C00400040014000440140B7
:100FA0000048014010B50123046A8B409C43046251
:100FB000036A8A401343036210BD10B5846842EA95
:100FC000032224F47F440A432243826010BD8268D6
:100FD00022F070020A4342F007018160704700006E
:100FE00030B5026A22F001020262026A4368846933
:100FF00024F073050C682C4322F002058A682A430A
:101000000A4DA8420BD122F00805CA6823F44073A8
:101010002A434D6922F004021D438B692B43436030
:10102000846149684163026230BD000000000140F4
:1010300030B5026A22F010020262026A43688469D3
:101040000D6824F4E64444EA05248D6822F0200269
:1010500042EA05120B4DA8420ED1CD6822F0800263
:1010600042EA05124D6923F4406343EA85038D6922
:1010700022F0400243EA850343608461496881634A
:10108000026230BD0000014030B5026A22F4807275
:101090000262036A4268C46923F4007324F0730592
:1010A0000C682C438D6843EA05230C4DA8420ED1F1
:1010B000CD6823F4006343EA05234D6922F44052CE
:1010C00042EA05128D6923F4806342EA0512426008
:1010D000C4614968C163036230BD00000000014083
:1010E00030B5026A22F480520262046A4268C3691F
:1010F0000D6823F4E64343EA05238D6824F4005485
:1011000044EA0534064DA84204D14D6922F48042D8
:1011100042EA85124260C36149680164046230BDDD
:101120000000014010B5036A046A24F0010404625F
:10113000846924F0F00444EA021423F00A020A430A
:101140008461026210BD10B5036A23F010030362CC
:101150008369046A23F4704343EA023224F0A00353
:1011600043EA01118261016210BDFEE702E008C896
:10117000121F08C1002AFAD170477047002001E011
:1011800001C1121F002AFBD17047000008B5FFF70C
:1011900079F9FFF753FE1348016841F080010160BF
:1011A000016801F080010091016841F008010160CF
:1011B000006800F008000090FFF7EEFD00210A48EB
:1011C000FFF7D0FD4FF47A76084C750040F2DC57FB
:1011D00026602846FFF772F827602846FFF76EF86A
:1011E000F6E70000303802401000002034080040CC
:1011F00000000000000000000102030406070809C7
:101200002012000800000020100000006C110008EF
:101210003012000810000020400400007C1100087B
:101220000100000010000000000000000024F40095
:040000050800019955
:00000001FF
