:020000040800F2
:1000000090090020AD010008771B0008C9190008FD
:10001000751B00086D040008F71E000800000000B2
:10002000000000000000000000000000B51B0008F8
:100030002105000800000000991B0008B71B0008FC
:10004000C7010008C7010008C7010008C701000870
:10005000C7010008C7010008C7010008C701000860
:1000600023050008C7010008C7010008C7010008F0
:10007000C7010008C7010008C7010008C701000840
:10008000C7010008C70100083D0300080000000088
:10009000000000000000000000000000C701000890
:1000A000C7010008C7010008C7010008C701000810
:1000B000C7010008C7010008C7010008C701000800
:1000C000C7010008C7010008C7010008C7010008F0
:1000D000C7010008C7010008C701000800000000B0
:1000E000C7010008C7010008C701000800000000A0
:1000F000000000000000000000000000C701000830
:1001000000000000C7010008C7010008C70100087F
:1001100000000000000000000000000000000000DF
:1001200071040008C7010008C7010008C7010008E2
:10013000C7010008000000000000000000000000EF
:10014000000000000000000000000000C7010008DF
:10015000C7010008C7010008C7010008C70100085F
:10016000C7010008C70100080000000000000000EF
:10017000000000000000000000000000000000007F
:1001800000000000C701000800000000000000009F
:10019000C7010008C7010008DFF80CD000F07AF8AA
:1001A000004800473D21000890090020064880478C
:1001B00006480047FEE7FEE7FEE7FEE7FEE7FEE74C
:1001C000FEE7FEE7FEE7FEE74D1C00089901000888
:1001D0002DE9F05F0546002092469B46884606467C
:1001E000814640241BE0284641464746224600F00F
:1001F00041F853465A46C01A914110D31146184649
:10020000224600F028F82D1A67EB01084F462246D7
:100210000120002100F01FF817EB00094E41201EBD
:10022000A4F10104DFDC484631462A464346BDE8D6
:10023000F09FD2B201E000F8012B491EFBD27047BB
:100240000022F6E710B513460A4604461946FFF7A2
:10025000F0FF204610BD202A04DB203A00FA02F10C
:10026000002070479140C2F1200320FA03F31943A4
:1002700090407047202A04DB203A21FA02F0002146
:10028000704721FA02F3D040C2F1200291400843A6
:1002900019467047064C074D06E0E06840F0010340
:1002A00094E8070098471034AC42F6D3FFF778FF84
:1002B00080220008A022000810B50146806B026C65
:1002C00012F0500F05D0806BC26CBDE8104008469C
:1002D0001047016C41F40071016401688A6812F0F2
:1002E000405F17D18269AAB9CA6A12F4700F02D0AE
:1002F0008A6852050ED44A6822F020024A60016CD6
:1003000021F480710164016CC90403D4016C41F0D3
:100310000101016400F0B4F910BD10B5806B4021FB
:100320000164416C41F00401416400F0B8F910BD72
:1003300010B5806B00F0B2F910BD0000014800F06C
:10034000AFB9000058040020454910B54A6822F4AE
:1003500040324A604A6843681A434A6001684A6802
:1003600022F480724A6001684A68036942EA032203
:100370004A6001684A6822F040724A6001684A682F
:1003800083681A434A6001688A6822F400628A60BE
:1003900001688A68C3681A438A60816A6FF0706274
:1003A000D14201688A6822F070628A6001688A68B6
:1003B0000CD0836A1A438A6001688A6822F040522E
:1003C0008A6001688A68C36A1A4301E022F04052D9
:1003D0008A6001688A6822F002028A6001688A687D
:1003E000836942EA43028A60016A002901684A6817
:1003F0000FD042F400624A6001684A6822F4604209
:100400004A6001684A68174C436A04EB43331A4355
:1004100001E022F400624A600168CA6A22F47002B4
:10042000CA620168CA6A838B0F4C04EB03531A43F8
:10043000CA6201688A6822F400728A6001688A6868
:10044000036B42EA43228A6001688A6822F4806270
:100450008A6001688A68406942EA8020886010BD2D
:100460000023014000E0FFFF0000F0FFFEE7000076
:10047000014800F0B3BA00003005002001681823DD
:10048000CAB2103AB2FBF3F2054B6FF30901032A2B
:100490009B5CC36500D9091D816508467047000053
:1004A0002022000810B5014600208B698A6A4FF0AF
:1004B000C07453B1B3F5005F15D072B1012A0CD0EE
:1004C000022A0AD0032A09D104E01AB1012A06D06F
:1004D000022A03D1C96AC90100D5012010BDC96A29
:1004E000A142FAD010BD002AF7D0012AF2D0022A88
:1004F000F3D0032AF3D010BD30B50468256825F485
:1005000080252560046863608368402B036803D0FE
:1005100099600068C26030BD9A600068C16030BDFB
:100520007047042000F0EABB7047000078B5002453
:10053000009490F83C20012A19D0012280F83C2038
:100540000A6807230568092A13D9EE680A3A02EBFC
:10055000420293409E43EE600A788B680A3A02EBAF
:10056000420293400268D5682B43D36010E002201A
:1005700078BD2E6902EB420293409E432E610A78B9
:100580008B6802EB42029340026815692B431361AA
:100590004A681F23072A13D205686E6B521E02EBAE
:1005A000820293409E436E630B790A885B1E92B26F
:1005B00003EB83039A4003685D6B2A435A6327E089
:1005C00005680D2A12D22E6BD21F02EB82029340D5
:1005D0009E432E630B790A88DB1F92B203EB8303E1
:1005E0009A4003681D6B2A431A6311E0EE6A0D3AC4
:1005F00002EB820293409E43EE620B790A880D3B28
:1006000092B203EB83039A400368DD6A2A43DA62FD
:10061000174B0568154A9D4206D10D68122D03D16E
:10062000556845F48005556005689D4219D1114D06
:100630000B68AB4201D0112B13D1536843F4000374
:1006400053600968A9420CD10B490C4A0968B1FBF7
:10065000F2F101EB8101490000E0491E00910029FF
:10066000FBD180F83C40002078BD00000023014011
:1006700000200140120000105000002040420F00F6
:1006800000680449884204D103480349091F0068EF
:10069000086070470020014030000020704770471C
:1006A00070B50446006801684268C1F34001C2F3B6
:1006B000401251B34AB3216CC90603D4216C41F4F2
:1006C00000712164816811F0405F17D1A169A9B957
:1006D000C16A11F4700F02D0816849050ED44168D7
:1006E00021F020014160206C20F480702064206C97
:1006F000C00403D4206C40F0010020642046FFF7C2
:10070000BFFF21686FF0120008602068016842682E
:10071000C1F38001C2F3C01289B382B3216CC90650
:1007200003D4216C41F400512164816811F4401F0D
:100730001ED1816B11F4401F02D08168490517D486
:100740004168490514D4816811F0405F10D1A16956
:1007500071B9416821F080014160206C20F4805023
:100760002064206CC00503D4206C40F0010020649C
:100770002046FFF7D9FE21686FF00C000860206862
:100780000168426811F0010FC2F380120ED06AB105
:100790000068C0070AD0206C40F4803020642046F6
:1007A00000F046F821686FF00100086020680168D9
:1007B0004268C1F34011C2F3806200290DD0002AC3
:1007C0000BD0616C41F0020161646FF0200505609F
:1007D0002046FFF764FF2068056070BD70B5040017
:1007E0004FF0000503D0206C002610B107E0012077
:1007F00070BD666484F83C60204600F01BF8206CF5
:10080000C00610D4206C20F4885040F00200206410
:100810002046FFF799FD6664206C20F0020040F04E
:100820000100206400E0012584F83C60284670BD8A
:100830007047000070B5064600681C4986B08842C3
:1008400032D11B480025016841F4807101600068C5
:10085000694600F480700590012000900320CDE9E6
:100860000105144800F056FA144C1348C4E9000579
:100870000015A560C4E9035080106561C4E9065005
:1008800025622046656200F079F918B175210CA047
:1008900001F032FBB463002211461220A66300F07F
:1008A00047FC122000F038FC06B070BD002001406B
:1008B000443802400000024010640240300500202D
:1008C0002E2E2F5372632F73746D33326634787803
:1008D0005F68616C5F6D73702E630000F8B50E4643
:1008E00000210446009190F83C00012807D0012027
:1008F00084F83C0020688368DB0702D011E0022006
:10090000F8BD836843F0010383602D482D4B0068D8
:10091000B0FBF3F000EB400000E0401E0090002828
:10092000FBD120688368DB0748D0236C40F2016567
:10093000AB4343F4807323644068400505D5206CC5
:1009400020F4005040F480502064206CC00404D592
:10095000606C20F00600606400E0616484F83C1084
:10096000A16B1A48184DC863A16B19480864A16BA4
:100970001848C86421686FF0220008602068416848
:1009800041F0806141602068816841F4807181603C
:100990002168134632464C31A06B00F059F9686863
:1009A000C006206802D00C49884207D1816811F046
:1009B000405F03D1816841F0804181600020F8BD33
:1009C0005000002040420F0000230140B9020008FF
:1009D000310300081B030008002001402DE9F84303
:1009E00004464FF00009CDF8009063484FF41651CB
:1009F000A56D0068B0FBF1F72E6894F85C10082034
:100A000000FA01F131420FD021680A6852070BD574
:100A10000A6822F004020A6094F85C108840A8601A
:100A2000606D40F00100606594F85C104FF00108C3
:100A300008FA01F0304208D021684969090604D556
:100A4000A860606D40F00200606594F85C100420BE
:100A50008840304208D021680968890704D5A86019
:100A6000606D40F00400606594F85C1010208840D0
:100A7000304218D021680968090714D5A860206899
:100A80000168490304D50068000308D5A16C07E09C
:100A90000168C90503D4016821F008010160216CD7
:100AA00009B12046884794F85C10202088403042E5
:100AB00031D021680968C9062DD5A86094F83500A1
:100AC00005282068016806D0490347D5006800035F
:100AD0001DD4616C1CE021F01601016020684169A1
:100AE00021F080014161206C08B9A06C20B1206820
:100AF000016821F00801016094F85C103F208840F3
:100B0000A86084F8349084F83580216D1FE0E16B93
:100B100009B120468847606D00282BD0606DC00762
:100B200014D0052084F835002068016821F0010107
:100B300001600098401C0090B84203D8206800680B
:100B4000C007F6D184F8349084F83580E16C002930
:100B500010D001B02046BDE8F04308470168C90540
:100B6000D5D4016821F01001016084F8349084F834
:100B70003580CCE7BDE8F883500000202DE9F04136
:100B8000044600F095F906465CB1002584F834501F
:100B9000022084F835002068016821F0010101601D
:100BA0000DE00120BDE8F08100F082F9801B0528EE
:100BB00005D920206065032084F83500F2E720681D
:100BC0000068C007F0D12268116820480140D4E9CC
:100BD00001031843D4E903363343184363691843C8
:100BE000A3691843E3691843236A18430843616AF9
:100BF000042903D1D4E90B1319430843106020687A
:100C00004069666A20F0070130460E430127042838
:100C10000CD1A06A0643E06A40B12046FFF742FCCF
:100C200020B14020606584F83570BAE720684661DD
:100C30002046FFF723FC94F85C203F21914081601F
:100C4000656584F835700020ACE700003F8010F047
:100C50002DE9F0410446866D90F834000025012806
:100C60000DD0012084F8340094F835700020012F55
:100C700007D084F8340002252846BDE8F081022020
:100C8000FBE7022784F8357060652046FFF734FCE7
:100C900094F85C103F208840B0602068016841F003
:100CA000160101602068416941F080014161206CBA
:100CB00020B12068016841F00801016020680168E6
:100CC00041F001010160D7E770B5044600F0F0F88B
:100CD0000546601C02D004480078044400F0E8F89F
:100CE000401BA042FAD370BD440000204FF40061C5
:100CF000014800F0D3B80000000C0240044910B5D0
:100D00000A68024202D00860FFF7F0FF10BD000041
:100D1000143C01402DE9F84FDFF860B100224FF09C
:100D200001084FF0030A4FF00F090BF1040E00BF4A
:100D30000B6808FA02F42340A3426ED14D68022DDD
:100D400001D0122D0ED1D50800EB850CDCF8205017
:100D50005607F70E09FA07F6B5430E69BE402E4353
:100D6000CCF82060066855000F790AFA05FC07F0F8
:100D7000030726EA0C06AF40374307604E68012E92
:100D800005D0022E03D0112E01D0122E0ED186686E
:100D9000CF6826EA0C06AF40374387604668A64313
:100DA0000C79C4F30014944034434460C6688C68E2
:100DB00026EA0C06AC403443C4604C68E40056D5C7
:100DC0002F4C256845F480452560246822F00305F2
:100DD00004F4804400942B4C2E19D6F8084895074B
:100DE0002F0F09FA07F5AC43274DA84201D1002582
:100DF00015E0264DA84201D1012510E0244DA8425E
:100E000001D102250BE0234DA84201D1032506E0C4
:100E1000214DA84202D1042501E028E00725BD406C
:100E20002543C6F80858DBF800405D464E689C43F1
:100E3000F60300D51C432C60DEF8004075464E6872
:100E40009C43B60300D51C432C600C4D08352C6820
:100E50004E689C43F60200D51C432C60074D0C35B0
:100E60002C684E689C43B60200D51C432C60521C73
:100E7000102AFFF45DAFBDE8F88F0000003C014090
:100E800044380240003001400000024000040240AB
:100E900000080240000C02400010024042694A4033
:100EA000426170470AB1816170470904FBE70000A5
:100EB00001488068704700004400002070B50400BD
:100EC00004D094F83D00002510B106E0012070BD6B
:100ED00084F83C50204600F075F8242084F83D004A
:100EE0002068016821F00101016000F0F1F9334947
:100EF0002268B0FBF1F15160314A6368934206D930
:100F00004FF4967359434FF47A73B1FBF3F12368AE
:100F1000491C1962616891420BD84900B0FBF1F29B
:100F2000C2F30B02042A01D2042019E0B0FBF1F055
:100F300016E0A3689BB301EBC10202EB0112B0FB08
:100F4000F2F242F48042120530D04BB301EBC10201
:100F500002EB0111B0FBF1F040F4804040F400409E
:100F60002168C861D4E90701084321680860D4E911
:100F70000310084321688860D4E90501084321680B
:100F8000C8602068016841F00101016025642020EB
:100F900084F83D00256384F83E50002070BD00E0D9
:100FA00006E001EB4102B0FBF2F2CCE70120D7E70B
:100FB00001EB4101B0FBF1F0D0E7000040420F002F
:100FC000A086010000B500680E4987B0884216D19E
:100FD000C020009012200190012002900320039075
:100FE0000420049069460848FFF794FE074801680A
:100FF00041F400110160006800F40010059007B092
:1010000000BD00000054004000040240403802408F
:1010100002488168027811448160704744000020D2
:101020000B4810B5016841F400710160016841F49A
:1010300080610160016841F480710160032000F06B
:1010400097F8002000F006F800F024F8002010BD0A
:10105000003C024070B50D4D04464FF47A7128787B
:10106000B1FBF0F00A490968B1FBF0F000F00DFBAC
:1010700048B9102C07D200222146501E00F058F823
:1010800000206C6070BD012070BD00004400002095
:10109000500000201F4808B5016841F480410160FC
:1010A000006800F4804000901A48001F016841F079
:1010B00080510160006800F080500090032000F033
:1010C00057F8002211466FF00B0000F031F80022B3
:1010D00011466FF00A0000F02BF8002211466FF065
:1010E000090000F025F800221146501F00F020F8FA
:1010F00000221146101F00F01BF800221146901E1E
:1011000000F016F80022BDE808401146501E00F01D
:101110000FB800004438024000F01F020121914046
:101120004009800000F1E020C0F800117047000085
:10113000F0B40E4B1B680C46C3F30223C3F1070542
:10114000042D00D90425191D072901D2002300E030
:10115000DB1E012606FA05F1491E214099409E40FA
:10116000761E16403143F0BC00F006BD0CED00E0E9
:10117000064900F0070208684FF6FF03184040EAEE
:101180000220034A10430860704700000CED00E0A5
:101190000000FA052DE9F0470E46050065D0DFF89E
:1011A0001481D8F80000F7B200F00F00B04207D267
:1011B00088F80070D8F8000000F00F00B04254D159
:1011C00028683D4C810712D5400703D5206840F4BC
:1011D000E05020602878000703D5206840F4604084
:1011E00020602068A96820F0F0000843206028787B
:1011F000C0072DD0304968680839012812D002286C
:1012000013D0032811D00968890700292DDA216835
:1012100021F0030101432160FFF74AFE814641F2BC
:10122000883A0EE009688903EFE709688901ECE76D
:10123000FFF73EFEA0EB0901514502D90320BDE8AE
:10124000F0872068696800F00C00B0EB810FEFD1E7
:10125000D8F80010404601F00F01B14207D90770DD
:10126000006800F00F00B04201D00120E7E72878C5
:10127000400705D52068E96820F4E0500843206065
:101280002878000706D52068296920F4604040EAE4
:10129000C100206000F02CF82168084AC1F3031156
:1012A000515CC840064908600020FFF7D3FE0020CB
:1012B000C5E70000003C0240083802402822000830
:1012C00050000020014800687047000050000020D6
:1012D0000448054900680968044AC1F38221515C49
:1012E000C8407047500000200838024038220008EB
:1012F000154810B5006810F00C02144813D01449BA
:10130000042A0FD0082A0ED10F4C241F226823680C
:1013100002F03F025B0207D52068C0F38810A0FBF3
:10132000010106E0084610BD2168C1F38811A1FB48
:1013300000010023FEF74CFF2168C1F30141491C65
:101340004900B0FBF1F010BD083802400024F40061
:1013500040787D012DE9F84F050076D02878DFF838
:10136000F8B2BE4CC00749D0DBF800105846C1F3B4
:101370008101012908D00068C0F3810002280AD148
:10138000201D0068400206D52068800336D56868B5
:101390000028E2D032E06868B0F5803F10D0B0F5A8
:1013A000A02F206810D020F480302060206820F426
:1013B000802020606868A0B1FFF77AFD06460CE047
:1013C000206840F48030F4E740F480202060F7E7A4
:1013D000FFF76EFD801B642873D820688003F7D563
:1013E0000CE0FFF765FD064605E000BFFFF760FD76
:1013F000801B6428F0D820688003F7D42878DFF8B1
:10140000608280074FF000093ED5DBF80010584697
:1014100011F00C0F09D00068C0F3810002280BD135
:101420008D48001F0068400206D42068800715D54B
:10143000E868012809D111E0E868B8B10120C8F8CE
:101440000000FFF735FD064605E002E1FFF730FD3D
:10145000801B0228C0D820688007F7D5206829693A
:1014600020F0F80040EAC10020600DE0C8F80090CC
:10147000FFF71EFD064604E0FFF71AFD801B022859
:101480001FD820688007F7D42878000722D5724E2D
:10149000744869696C3671B101210160FFF708FD7C
:1014A000074604E0FFF704FDC01B022809D8306896
:1014B0008007F7D50EE0C0F80090FFF7F9FC07466B
:1014C00005E083E0FFF7F4FCC01B02287ED83068FB
:1014D0008007F7D42878400768D5DFF87CA100277B
:1014E0000AF1380ADAF80000C0000BD4DAF800106C
:1014F00041F08051CAF80010DAF80000012700F02E
:1015000080500090584E3068C00510D4306840F4C8
:1015100080703060FFF7CCFC009005E0FFF7C8FC5E
:101520000099401A022851D83068C005F6D54A4EB5
:10153000A868683601280FD00528306810D020F040
:1015400001003060306820F004003060A868B8B155
:10155000FFF7AEFC00900FE0306840F00100F4E7C8
:1015600040F004003060F7E7FFF7A2FC0099411A51
:1015700041F28830814264D830688007F4D50EE0AB
:10158000FFF796FC009007E0FFF792FC0099411AE4
:1015900041F28830814254D830688007F4D42FB1AA
:1015A000DAF8001021F08051CAF80010A869C0B321
:1015B000DBF80010C1F3810102294AD00228484615
:1015C00007D0C8F86000FFF773FC00E039E005467B
:1015D0003AE04746C8F86000FFF76AFC064604E0B8
:1015E000FFF766FC801B02282BD820688001F7D407
:1015F000D5E907010843A96A1C4A490802EB0141E1
:101600006A6A41EA8211084395F82C1040EA0161A8
:101610001148001F016001203866FFF749FC0546AC
:1016200005E014E0FFF744FC401B022809D82068BD
:101630008001F7D50BE000BFFFF73AFC401B022802
:1016400002D90320BDE8F88F20688001F4D400207F
:10165000F8E70120F6E700000838024000380240B1
:1016600000004742800E4742007000400000FFFF2C
:101670004FF0E0210428086903D020F0040008613D
:10168000704740F00400FAE7704710B5401EB0F113
:10169000807F01D3012010BD4FF0E02460610F2155
:1016A000601700F069FA0020A06107202061002087
:1016B00010BD10B5FFF7E8FF10BD30B590F8382029
:1016C000012A20D0012280F83820022380F8393006
:1016D00003685C6824F070045C6003685C680D68F3
:1016E0002C435C6003689C6824F080049C60036861
:1016F0009C6849680C439C6080F83920002180F880
:101700003810084630BD022030BD10B5040003D0AB
:1017100094F8390010B107E0012010BD002084F8D2
:101720003800204600F00CF8022084F83900211D12
:10173000206800F0B5FA012084F83900002010BDBF
:1017400008B500680649884208D10648016841F09A
:1017500004010160006800F00400009008BD000072
:10176000000800404038024070B5044690F8380048
:10177000012817D0012584F83850022084F8390058
:101780002068826822F0770222F47F428260086833
:10179000502837D00DDC202859D005DC88B310281C
:1017A00041D151E0022070BD302853D040283AD1B9
:1017B0003FE060282ED070280BD0B0F5805F03D0BA
:1017C000B0F5005F2FD110E02068816821F007019B
:1017D00015E0CB68D1E90121206800F0B4FA216856
:1017E000886840F0770088601DE0CB68D1E901216E
:1017F000206800F0A8FA2068816841F48041816087
:1018000011E01EE0CA684968206800F051FB5021D1
:10181000206806E0CA684968206800F05AFB602129
:10182000206800F09AFA84F83950002084F83800D3
:1018300070BDCA684968206800F03AFB4021206802
:10184000EFE700212068ECE710212068E9E720217C
:101850002068E6E730212068E3E7000000B5006873
:10186000094985B088420CD18014009002200121E2
:10187000CDE901010021CDE9031069460348FFF7D6
:1018800049FA05B000BD000000080040000C02400D
:1018900070B5044690F838000D4601280DD0012699
:1018A00084F83860022084F8390042B1042A18D044
:1018B000082A2AD00C2A4DD139E0022070BD2068B8
:1018C00000F054FA2068816941F0080181612068C4
:1018D000816921F004018161206881692A691143CD
:1018E00011E0206800F06AFA2068816941F4006123
:1018F00081612068816921F480618161206881694A
:101900002A6941EA0221816124E0206800F082FA1C
:101910002068C16941F00801C1612068C16921F0F6
:101920000401C1612068C1692A69114311E020687E
:1019300000F09CFA2068C16941F40061C16120682F
:10194000C16921F48061C1612068C1692A6941EAE5
:101950000221C16184F83960002084F8380070BD2C
:1019600010B5040003D094F8390010B107E001204D
:1019700010BD002084F83800204600F00CF802204A
:1019800084F83900211D206800F08AF9012084F8CC
:101990003900002010BD704710B5044600680122D0
:1019A00000F0C6F907492068884203D1416C41F430
:1019B000004141642068016841F00101016000209C
:1019C00010BD000000000140FEE700007FB5134895
:1019D0001149002501604FF4403141600561012447
:1019E00005624FF00071846181600D49C0E90A15FC
:1019F000C4610463C5604461FEF7F0FE00B1FEE718
:101A000007200095CDE9014069460448FEF78EFDA8
:101A1000002800D0FEE77FBD0020014058040020D0
:101A20000100000FF0B5234887B00024016841F0A1
:101A300080010160016801F080010591016841F0B9
:101A400001010160016801F001010591016841F0A7
:101A500008010160016801F008010591016841F089
:101A6000020101600068144F00F002004FF40066AC
:101A70000590002231463846FFF714FA0420009002
:101A80000E480125CDE9010569460D48FFF742F9E9
:101A90000096CDE90154694638460394FFF73AF9B8
:101AA000002211460820FFF743FB0820FFF734FB14
:101AB00007B0F0BD30380240000C024000001110A9
:101AC000000002400B4810B5094901600A49416015
:101AD00000214FF480428160C0E9031241618161BD
:101AE000C1610162FFF7EAF9002800D0FEE710BDEE
:101AF00000540040A0040020801A060010B51C48C5
:101B00008EB01A49016010210024C0E9011444F686
:101B10001F61C0E90314FFF7F8FD00B1FEE74FF4C1
:101B20008050079007A91248FFF71EFE00B1FEE79C
:101B30000F48FFF715FF00B1FEE70B940BA90C4807
:101B40000C94FFF7BAFD00B1FEE76020CDE9000478
:101B500002940022694606480494FFF799FE00B1FA
:101B6000FEE70348FFF77AFE0EB010BD0008004004
:101B7000F4040020FEE770470907090E002806DA82
:101B800000F00F0000F1E02080F8141D704700F114
:101B9000E02080F8001470477047000028B1FF2251
:101BA0004FF480610248FEF744BB0022F8E70000D2
:101BB00058000020704710B5FFF72AFABDE8104022
:101BC000FFF777BD10B51F4892B00024016841F0BF
:101BD00080510160006800F0805011901A4801683F
:101BE00041F4404101600068069400F440401190C7
:101BF0000220009001200390102004906846FFF717
:101C0000A9FB00B1FEE70F20CDE90C040E940F9460
:101C100000210CA81094FFF7BDFA00B1FEE7FFF712
:101C200051FB4FF47A71B0FBF1F0FFF72EFD042069
:101C3000FFF71EFD00221146501EFFF779FA12B081
:101C400010BD00004038024000700040104801689C
:101C500041F4700101600F48016841F00101016029
:101C60000C4A00210832116002680B4B1A400260D6
:101C7000031D0A4A1A60026822F4802202600548A5
:101C80000C30016002495806803908607047000036
:101C900088ED00E000380240FFFFF6FE103000241F
:101CA000F0B502681B4B1C4C9F031C4D1C4E984208
:101CB00007D0B84205D0A04203D0A84201D0B0421C
:101CC00004D122F0700C4A6842EA0C02984210D00B
:101CD000B8420ED0A0420CD0A8420AD0B04208D0E0
:101CE000104CA04205D0104CA04202D00F4CA04294
:101CF00003D122F44074CA68224302608A68C26237
:101D00000A688262984201D1096901630121416137
:101D1000F0BD000000000140000400400008004049
:101D2000000C0040004001400044014000480140D8
:101D300010B50123046A8B409C430462036A8A4005
:101D40001343036210BD10B5846842EA032224F4F1
:101D50007F440A432243826010BD826822F07002F1
:101D60000A4342F0070181607047000030B5026A03
:101D700022F001020262026A4368846924F073055A
:101D80000C682C4322F002058A682A430A4DA842B7
:101D90000BD122F00805CA6823F440732A434D6929
:101DA00022F004021D438B692B4343608461496820
:101DB0004163026230BD00000000014030B5026A9C
:101DC00022F010020262026A436884690D6824F4FA
:101DD000E64444EA05248D6822F0200242EA051216
:101DE0000B4DA8420ED1CD6822F0800242EA0512C6
:101DF0004D6923F4406343EA85038D6922F0400274
:101E000043EA85034360846149688163026230BDAF
:101E10000000014030B5026A22F480720262036A57
:101E20004268C46923F4007324F073050C682C43E2
:101E30008D6843EA05230C4DA8420ED1CD6823F4EA
:101E4000006343EA05234D6922F4405242EA051239
:101E50008D6923F4806342EA05124260C4614968D7
:101E6000C163036230BD00000000014030B5026A6A
:101E700022F480520262046A4268C3690D6823F446
:101E8000E64343EA05238D6824F4005444EA05340C
:101E9000064DA84204D14D6922F4804242EA8512DF
:101EA0004260C36149680164046230BD00000140C2
:101EB00010B5036A046A24F001040462846924F002
:101EC000F00444EA021423F00A020A438461026225
:101ED00010BD10B5036A23F0100303628369046A1E
:101EE00023F4704343EA023224F0A00343EA0111D1
:101EF0008261016210BDFEE7FEE7000010EE100AED
:101F000010B50023A0F50001B1F1FE4F67D200BF6C
:101F100000F500216FF07E0202EBE15CC1F302529A
:101F20004FF07E5101EB025100EE901AA0EBCC5025
:101F300003EB0C0100EE100A51EA020036D030EE3D
:101F4000601A70EE200A9FED3D2A3E4881EE200A7D
:101F50009FED3B1A60EE000A00EE821A60EE201A36
:101F600061EE810A784401EE101A00EB82009FEDC9
:101F7000362AB8EEC11AD0ED001A344841EE021AE2
:101F8000784401EE101A00EB8200B8EEC11A90ED11
:101F9000002ADFED2F2A01EE222AB0EE001A72EE9F
:101FA000200A40EE010A31EEA00A10BDF7EE000A49
:101FB0009FED291A30EE600ADFED260A00EE201AA6
:101FC000DFED260A60EE001A40EE010A9FED241AAA
:101FD00000EE201A61EE810A30EE200A10BD4FF0AB
:101FE0007F41B1EB400F03D2BDE8104000F046B88E
:101FF000B0F1FF4F08BF10BDB5EEC00AF1EE10FA08
:1020000006D2012000F056F8BDE8104000F03AB8C2
:10201000B5EEC00AF1EE10FA07D1022000F04AF83E
:1020200000F022F8B1EE400A10BDDFED0E0A6FF0AD
:10203000160320EE200A10EE100A69E766F1CC3E86
:10204000AAAA2A3FD80200000070313FDC0200003B
:10205000F4FD053821ED423E0A1180BEC1ABAA3E17
:10206000FFFFFFBE0000004BDFED030AB7EE001AD2
:1020700081EE200A704700000000000030EE000AE8
:1020800070470000DFED020A80EEA00A70470000F2
:102090000000000002E008C8121F08C1002AFAD19F
:1020A00070477047002001E001C1121F002AFBD1D8
:1020B000704700000149086070470000540000208C
:1020C00010B51B4C9FED1B1A2DED028BB7EE008A4D
:1020D00094ED050AC0EE010A94ED030A60EE800A51
:1020E000C4ED040A80EE201A31EE480A94ED011A7C
:1020F00060EE010AC4ED060A80EE810AFFF7FEFEDB
:1021000094ED081AC0EE010A94ED020A88EE001A56
:1021100070EE810A88EE200ADFED070A84ED070AD7
:1021200030EE600A84ED0A0ABDEC028B10BD00009F
:102130000000002000007F430080884308B5FEF7C0
:102140006FFF28484FF47A71264C016049004160C6
:10215000083440F26C70206040F21450606000203F
:10216000FFF71CFDFFF72EFDFFF75CFC1E48016822
:1021700041F4800101600068002200F480000090BA
:1021800011463820FEF7D4FF3820FEF7C5FFFFF7D1
:102190001DFCFFF7B3FCFFF795FC0122A4F10C0135
:1021A0001248FEF79BFB114800219C30FFF7F4FB1F
:1021B0000E4920689C3109684863204600F018F8F1
:1021C000A4F11005B4F13C0495ED000A0548B8EE01
:1021D000400A243884ED050AFFF772FF84ED090AEE
:1021E000F2E700003400002030380240580400209C
:1021F0002DE9F0410546084F084E046805E03868AF
:1022000044630A20FEF760FD641F306869688842F5
:10221000F5D8BDE8F0810000F40400203408004047
:102220000006101600061016000000000000000056
:10223000010203040607080900000000010203046C
:10224000000000000030F13D0070643E0000A33E3D
:102250000090CF3E0090F83E00400F3F00E0203F4E
:102260000000000015B78337CDE37B380EE1C53899
:1022700060F69138AF5F0F38E1BC3E3823F4473940
:10228000A022000800000020580000009420000850
:10229000F82200085800002038090000A420000897
:1022A000000000000050C347331395430000404036
:1022B000000000000000000000000000000000001E
:1022C00000C07F450000000000000000000000008A
:1022D00000000000000000000000000000000000FE
:1022E00000000000010000001000000000000000DD
:0822F0000024F40000000000CE
:040000050800019955
:00000001FF
