:020000040800F2
:1000000000050020AD010008C3180008ED17000826
:10001000C1180008490400082B1C0008000000005B
:10002000000000000000000000000000E7180008C9
:10003000FD04000800000000E5180008E9180008A9
:10004000C7010008C7010008C7010008C701000870
:10005000C7010008C7010008C7010008C701000860
:10006000C7010008C7010008C7010008C701000850
:10007000C7010008C7010008C7010008C701000840
:10008000C7010008C70100081903000800000000AC
:10009000000000000000000000000000C701000890
:1000A000C7010008C7010008C7010008C701000810
:1000B000C7010008C7010008C7010008C701000800
:1000C000C7010008C7010008C7010008C7010008F0
:1000D000C7010008C7010008C701000800000000B0
:1000E000C7010008C7010008C701000800000000A0
:1000F000000000000000000000000000C701000830
:1001000000000000C7010008C7010008C70100087F
:1001100000000000000000000000000000000000DF
:100120004D040008C7010008C7010008C701000806
:10013000C7010008000000000000000000000000EF
:10014000000000000000000000000000C7010008DF
:10015000C7010008C7010008C7010008C70100085F
:10016000C7010008C70100080000000000000000EF
:10017000000000000000000000000000000000007F
:1001800000000000C701000800000000000000009F
:10019000C7010008C7010008DFF80CD000F068F8BC
:1001A000004800474D1C0008000500200648804715
:1001B00006480047FEE7FEE7FEE7FEE7FEE7FEE74C
:1001C000FEE7FEE7FEE7FEE7811900089901000857
:1001D0002DE9F05F0546002092469B46884606467C
:1001E000814640241BE0284641464746224600F00F
:1001F0002FF853465A46C01A914110D3114618465B
:10020000224600F016F82D1A67EB01084F462246E9
:100210000120002100F00DF817EB00094E41201ECF
:10022000A4F10104DFDC484631462A464346BDE8D6
:10023000F09F202A04DB203A00FA02F100207047E8
:100240009140C2F1200320FA03F319439040704714
:10025000202A04DB203A21FA02F00021704721FA1B
:1002600002F3D040C2F12002914008431946704782
:10027000064C074D06E0E06840F0010394E80700F3
:1002800098471034AC42F6D3FFF78AFF381D0008B8
:10029000581D000810B50146806B026C12F0500F1B
:1002A00005D0806BC26CBDE8104008461047016C59
:1002B00041F40071016401688A6812F0405F17D14F
:1002C0008269AAB9CA6A12F4700F02D08A6852050C
:1002D0000ED44A6822F020024A60016C21F4807139
:1002E0000164016CC90403D4016C41F00101016493
:1002F00000F0B0F910BD10B5806B40210164416C75
:1003000041F00401416400F0B4F910BD10B5806BF8
:1003100000F0AEF910BD0000014800F0ABB90000DC
:100320001C000020454910B54A6822F440324A605A
:100330004A6843681A434A6001684A6822F4807236
:100340004A6001684A68036942EA03224A60016818
:100350004A6822F040724A6001684A6883681A431A
:100360004A6001688A6822F400628A6001688A68CB
:10037000C3681A438A60816A6FF07062D142016873
:100380008A6822F070628A6001688A680CD0836A89
:100390001A438A6001688A6822F040528A600168C4
:1003A0008A68C36A1A4301E022F040528A600168F9
:1003B0008A6822F002028A6001688A68836942EAD8
:1003C00043028A60016A002901684A680FD042F43A
:1003D00000624A6001684A6822F460424A6001682B
:1003E0004A68174C436A04EB43331A4301E022F492
:1003F00000624A600168CA6A22F47002CA62016837
:10040000CA6A838B0F4C04EB03531A43CA62016818
:100410008A6822F400728A6001688A68036B42EA83
:1004200043228A6001688A6822F480628A600168D7
:100430008A68406942EA8020886010BD002301403C
:1004400000E0FFFF0000F0FFFEE70000014800F0C1
:10045000AFBA0000A000002001681823CAB2103A09
:10046000B2FBF3F2054B6FF30901032A9B5CC365F2
:1004700000D9091D8165084670470000201D00084D
:1004800010B5014600208B698A6A4FF0C07453B1E1
:10049000B3F5005F15D072B1012A0CD0022A0AD040
:1004A000032A09D104E01AB1012A06D0022A03D195
:1004B000C96AC90100D5012010BDC96AA142FAD09C
:1004C00010BD002AF7D0012AF2D0022AF3D0032A65
:1004D000F3D010BD30B50468256825F4802525606B
:1004E000046863608368402B036803D099600068E8
:1004F000C26030BD9A600068C16030BD704770470F
:1005000078B50024009490F83C20012A19D00122EB
:1005100080F83C200A6807230568092A13D9EE6889
:100520000A3A02EB420293409E43EE600A788B68DF
:100530000A3A02EB420293400268D5682B43D3602B
:1005400010E0022078BD2E6902EB420293409E43E8
:100550002E610A788B6802EB4202934002681569AB
:100560002B4313614A681F23072A13D205686E6B59
:10057000521E02EB820293409E436E630B790A88FF
:100580005B1E92B203EB83039A4003685D6B2A43C0
:100590005A6327E005680D2A12D22E6BD21F02EB98
:1005A000820293409E432E630B790A88DB1F92B22E
:1005B00003EB83039A4003681D6B2A431A6311E01F
:1005C000EE6A0D3A02EB820293409E43EE620B7993
:1005D0000A880D3B92B203EB83039A400368DD6AFD
:1005E0002A43DA62174B0568154A9D4206D10D6809
:1005F000122D03D1556845F48005556005689D426C
:1006000019D1114D0B68AB4201D0112B13D1536896
:1006100043F4000353600968A9420CD10B490C4A0A
:100620000968B1FBF2F101EB8101490000E0491ECC
:1006300000910029FBD180F83C40002078BD0000EB
:10064000002301400020014012000010180000208B
:1006500040420F0000680449884204D1034803491E
:100660000839006808607047002001400800002039
:100670007047704770B50446006801684268C1F36E
:100680004001C2F3401251B34AB3216CC90603D4EE
:10069000216C41F400712164816811F0405F17D131
:1006A000A169A9B9C16A11F4700F02D08168490526
:1006B0000ED4416821F020014160206C20F480704C
:1006C0002064206CC00403D4206C40F0010020643E
:1006D0002046FFF7BFFF21686FF012000860206816
:1006E00001684268C1F38001C2F3C01289B382B3CA
:1006F000216CC90603D4216C41F400512164816846
:1007000011F4401F1ED1816B11F4401F02D081688B
:10071000490517D44168490514D4816811F0405F38
:1007200010D1A16971B9416821F080014160206C4C
:1007300020F480502064206CC00503D4206C40F06D
:10074000010020642046FFF7DAFE21686FF00C00FC
:10075000086020680168426811F0010FC2F380123E
:100760000ED06AB10068C0070AD0206C40F4803017
:100770002064204600F046F821686FF00100086010
:10078000206801684268C1F34011C2F38062002909
:100790000DD0002A0BD0616C41F0020161646FF052
:1007A000200505602046FFF764FF2068056070BDE6
:1007B00070B504004FF0000503D0206C002610B186
:1007C00007E0012070BD666484F83C60204600F0BC
:1007D0001BF8206CC00610D4206C20F4885040F028
:1007E000020020642046FFF79DFD6664206C20F027
:1007F000020040F00100206400E0012584F83C6024
:10080000284670BD7047000070B5064600681C4958
:1008100086B0884232D11B480025016841F48071BE
:1008200001600068694600F4807005900120009026
:100830000320CDE90105144800F042FA144C134896
:10084000C4E900050015A560C4E903508010656186
:10085000C4E9065025622046656200F079F918B1B6
:1008600075210CA001F0E2F9B463002211461220B8
:10087000A66300F07FFB122000F070FB06B070BD95
:100880000020014044380240000002401064024051
:10089000A00000202E2E2F5372632F73746D3332FD
:1008A000663478785F68616C5F6D73702E630000EA
:1008B000F8B50E4600210446009190F83C0001284E
:1008C00007D0012084F83C0020688368DB0702D051
:1008D00011E00220F8BD836843F0010383602D48D6
:1008E0002D4B0068B0FBF3F000EB400000E0401E31
:1008F00000900028FBD120688368DB0748D0236C78
:1009000040F20165AB4343F48073236440684005C3
:1009100005D5206C20F4005040F480502064206CF9
:10092000C00404D5606C20F00600606400E06164DF
:1009300084F83C10A16B1A48184DC863A16B194884
:100940000864A16B1848C86421686FF02200086031
:100950002068416841F0806141602068816841F40D
:10096000807181602168134632464C31A06B00F0E3
:1009700059F96868C006206802D00C49884207D13E
:10098000816811F0405F03D1816841F0804181604E
:100990000020F8BD1800002040420F000023014055
:1009A000950200080D030008F7020008002001402E
:1009B0002DE9F84304464FF00009CDF80090634854
:1009C0004FF41651A56D0068B0FBF1F72E6894F84E
:1009D0005C10082000FA01F131420FD021680A684A
:1009E00052070BD50A6822F004020A6094F85C10E2
:1009F0008840A860606D40F00100606594F85C106C
:100A00004FF0010808FA01F0304208D02168496926
:100A1000090604D5A860606D40F00200606594F896
:100A20005C1004208840304208D02168096889079A
:100A300004D5A860606D40F00400606594F85C1017
:100A400010208840304218D021680968090714D561
:100A5000A86020680168490304D50068000308D530
:100A6000A16C07E00168C90503D4016821F0080101
:100A70000160216C09B12046884794F85C10202061
:100A80008840304231D021680968C9062DD5A86058
:100A900094F8350005282068016806D0490347D539
:100AA000006800031DD4616C1CE021F01601016098
:100AB0002068416921F080014161206C08B9A06C77
:100AC00020B12068016821F00801016094F85C10F1
:100AD0003F208840A86084F8349084F83580216DE8
:100AE0001FE0E16B09B120468847606D00282BD0DC
:100AF000606DC00714D0052084F8350020680168B7
:100B000021F0010101600098401C0090B84203D818
:100B100020680068C007F6D184F8349084F83580E6
:100B2000E16C002910D001B02046BDE8F043084731
:100B30000168C905D5D4016821F01001016084F86D
:100B4000349084F83580CCE7BDE8F88318000020A5
:100B50002DE9F041044600F077F906465CB1002526
:100B600084F83450022084F835002068016821F0B0
:100B7000010101600DE00120BDE8F08100F064F9A1
:100B8000801B052805D920206065032084F83500E6
:100B9000F2E720680068C007F0D122681168204899
:100BA0000140D4E901031843D4E903363343184321
:100BB00063691843A3691843E3691843236A184318
:100BC0000843616A042903D1D4E90B13194308438C
:100BD000106020684069666A20F0070130460E43C5
:100BE000012704280CD1A06A0643E06A40B12046E0
:100BF000FFF746FC20B14020606584F83570BAE705
:100C0000206846612046FFF727FC94F85C203F21CE
:100C100091408160656584F835700020ACE7000084
:100C20003F8010F02DE9F0410446866D90F83400C5
:100C3000002501280DD0012084F8340094F8357087
:100C40000020012F07D084F8340002252846BDE893
:100C5000F0810220FBE7022784F8357060652046AA
:100C6000FFF738FC94F85C103F208840B0602068A3
:100C7000016841F0160101602068416941F080017E
:100C80004161206C20B12068016841F008010160D9
:100C90002068016841F001010160D7E770B50446A2
:100CA00000F0D2F80546601C02D0044800780444E5
:100CB00000F0CAF8401BA042FAD370BD0C0000201F
:100CC0002DE9F84FDFF860B100224FF001084FF036
:100CD000030A4FF00F090BF1040E00BF0B6808FA6E
:100CE00002F42340A3426ED14D68022D01D0122D93
:100CF0000ED1D50800EB850CDCF820505607F70E16
:100D000009FA07F6B5430E69BE402E43CCF82060C1
:100D1000066855000F790AFA05FC07F0030726EA72
:100D20000C06AF40374307604E68012E05D0022EF7
:100D300003D0112E01D0122E0ED18668CF6826EA7C
:100D40000C06AF40374387604668A6430C79C4F36E
:100D50000014944034434460C6688C6826EA0C064C
:100D6000AC403443C4604C68E40056D52F4C256831
:100D700045F480452560246822F0030504F480448E
:100D800000942B4C2E19D6F8084895072F0F09FA16
:100D900007F5AC43274DA84201D1002515E0264DAB
:100DA000A84201D1012510E0244DA84201D102251D
:100DB0000BE0234DA84201D1032506E0214DA842B6
:100DC00002D1042501E028E00725BD402543C6F8EF
:100DD0000858DBF800405D464E689C43F60300D59A
:100DE0001C432C60DEF8004075464E689C43B603F9
:100DF00000D51C432C600C4D08352C684E689C4374
:100E0000F60200D51C432C60074D0C352C684E684B
:100E10009C43B60200D51C432C60521C102AFFF4E0
:100E20005DAFBDE8F88F0000003C0140443802404F
:100E3000003001400000024000040240000802406F
:100E4000000C02400010024001488068704700001A
:100E50000C000020024881680278114481607047CC
:100E60000C0000200B4810B5016841F400710160CE
:100E7000016841F480610160016841F480710160A2
:100E8000032000F097F8002000F006F800F024F8A6
:100E9000002010BD003C024070B50D4D04464FF4DB
:100EA0007A712878B1FBF0F00A490968B1FBF0F0DB
:100EB00000F0FDFA48B9102C07D200222146501E3E
:100EC00000F058F800206C6070BD012070BD00007B
:100ED0000C000020180000201F4808B5016841F4EC
:100EE00080410160006800F4804000901A48001FB3
:100EF000016841F080510160006800F0805000906E
:100F0000032000F057F8002211466FF00B0000F0AC
:100F100031F8002211466FF00A0000F02BF8002291
:100F200011466FF0090000F025F800221146501F0D
:100F300000F020F800221146101F00F01BF80022DC
:100F40001146901E00F016F80022BDE80840114638
:100F5000501E00F00FB800004438024000F01F029D
:100F6000012191404009800000F1E020C0F800110B
:100F700070470000F0B40E4B1B680C46C3F302230D
:100F8000C3F10705042D00D90425191D072901D235
:100F9000002300E0DB1E012606FA05F1491E214070
:100FA00099409E40761E16403143F0BC00F08ABC4A
:100FB0000CED00E0064900F0070208684FF6FF0359
:100FC000184040EA0220034A1043086070470000BE
:100FD0000CED00E00000FA052DE9F0470E46050093
:100FE00065D0DFF81481D8F80000F7B200F00F00E8
:100FF000B04207D288F80070D8F8000000F00F0067
:10100000B04254D128683D4C810712D5400703D522
:10101000206840F4E05020602878000703D520685D
:1010200040F4604020602068A96820F0F000084388
:1010300020602878C0072DD0304968680839012819
:1010400012D0022813D0032811D00968890700297B
:101050002DDA216821F0030101432160FFF7F4FE3E
:10106000814641F2883A0EE009688903EFE7096892
:101070008901ECE7FFF7E8FEA0EB0901514502D931
:101080000320BDE8F0872068696800F00C00B0EB31
:10109000810FEFD1D8F80010404601F00F01B142A6
:1010A00007D90770006800F00F00B04201D001209E
:1010B000E7E72878400705D52068E96820F4E05084
:1010C000084320602878000706D52068296920F4A5
:1010D000604040EAC100206000F01CF82168084A26
:1010E000C1F30311515CC840064908600020FFF7B6
:1010F000D3FE0020C5E70000003C02400838024053
:10110000281D0008180000200148006870470000F2
:1011100018000020154810B5006810F00C021448A3
:1011200013D01449042A0FD0082A0ED10F4C241FC3
:101130002268236802F03F025B0207D52068C0F3F3
:101140008810A0FB010106E0084610BD2168C1F32C
:101150008811A1FB00010023FFF73AF82168C1F3D1
:101160000141491C4900B0FBF1F010BD08380240B4
:101170000024F40040787D012DE9F84F050076D079
:101180002878DFF8F8B2BE4CC00749D0DBF8001071
:101190005846C1F38101012908D00068C0F38100DD
:1011A00002280AD1201D0068400206D5206880036D
:1011B00036D568680028E2D032E06868B0F5803F34
:1011C00010D0B0F5A02F206810D020F4803020601F
:1011D000206820F4802020606868A0B1FFF734FE0A
:1011E00006460CE0206840F48030F4E740F48020AC
:1011F0002060F7E7FFF728FE801B642873D820687B
:101200008003F7D50CE0FFF71FFE064605E000BFA0
:10121000FFF71AFE801B6428F0D820688003F7D4FB
:101220002878DFF8608280074FF000093ED5DBF8B0
:101230000010584611F00C0F09D00068C0F381006F
:1012400002280BD18D48001F0068400206D4206898
:10125000800715D5E868012809D111E0E868B8B120
:101260000120C8F80000FFF7EFFD064605E002E1A7
:10127000FFF7EAFD801B0228C0D820688007F7D559
:101280002068296920F0F80040EAC10020600DE0E4
:10129000C8F80090FFF7D8FD064604E0FFF7D4FD3C
:1012A000801B02281FD820688007F7D42878000701
:1012B00022D5724E744869696C3671B101210160A2
:1012C000FFF7C2FD074604E0FFF7BEFDC01B022882
:1012D00009D830688007F7D50EE0C0F80090FFF716
:1012E000B3FD074605E083E0FFF7AEFDC01B022813
:1012F0007ED830688007F7D42878400768D5DFF8B3
:101300007CA100270AF1380ADAF80000C0000BD4EB
:10131000DAF8001041F08051CAF80010DAF8000045
:10132000012700F080500090584E3068C00510D45E
:10133000306840F480703060FFF786FD009005E073
:10134000FFF782FD0099401A022851D83068C00585
:10135000F6D54A4EA868683601280FD005283068AF
:1013600010D020F001003060306820F004003060C0
:10137000A868B8B1FFF768FD00900FE0306840F052
:101380000100F4E740F004003060F7E7FFF75CFD90
:101390000099411A41F28830814264D83068800750
:1013A000F4D50EE0FFF750FD009007E0FFF74CFD8D
:1013B0000099411A41F28830814254D83068800740
:1013C000F4D42FB1DAF8001021F08051CAF80010DF
:1013D000A869C0B3DBF80010C1F3810102294AD02B
:1013E0000228484607D0C8F86000FFF72DFD00E04E
:1013F00039E005463AE04746C8F86000FFF724FDAB
:10140000064604E0FFF720FD801B02282BD8206849
:101410008001F7D4D5E907010843A96A1C4A4908A5
:1014200002EB01416A6A41EA8211084395F82C10E7
:1014300040EA01611148001F016001203866FFF792
:1014400003FD054605E014E0FFF7FEFC401B022803
:1014500009D820688001F7D50BE000BFFFF7F4FC46
:10146000401B022802D90320BDE8F88F20688001C4
:10147000F4D40020F8E70120F6E700000838024025
:101480000038024000004742800E47420070004092
:101490000000FFFF4FF0E0210428086903D020F08E
:1014A00004000861704740F00400FAE7704710B587
:1014B000401EB0F1807F01D3012010BD4FF0E02429
:1014C00060610F21601700F0FDF90020A061072086
:1014D0002061002010BD10B5FFF7E8FF10BD30B54A
:1014E00090F83820012A20D0012280F838200223E9
:1014F00080F8393003685C6824F070045C6003682D
:101500005C680D682C435C6003689C6824F0800470
:101510009C6003689C6849680C439C6080F8392093
:10152000002180F83810084630BD022030BD10B5CB
:10153000040003D094F8390010B107E0012010BD79
:10154000002084F83800204600F00CF8022084F8CF
:101550003900211D206800F03DFA012084F839008F
:10156000002010BD08B500680649884208D1064829
:10157000016841F004010160006800F0040000907F
:1015800008BD0000000800404038024070B5044625
:1015900090F83800012817D0012584F8385002202F
:1015A00084F839002068826822F0770222F47F42B2
:1015B00082600868502837D00DDC202859D005DC1F
:1015C00088B3102841D151E0022070BD302853D09B
:1015D00040283AD13FE060282ED070280BD0B0F5DB
:1015E000805F03D0B0F5005F2FD110E020688168E4
:1015F00021F0070115E0CB68D1E90121206800F056
:101600003CFA2168886840F0770088601DE0CB686C
:10161000D1E90121206800F030FA2068816841F4A6
:101620008041816011E01EE0CA684968206800F0CE
:10163000D9FA5021206806E0CA684968206800F09D
:10164000E2FA6021206800F022FA84F83950002084
:1016500084F8380070BDCA684968206800F0C2FA92
:1016600040212068EFE700212068ECE71021206886
:10167000E9E720212068E6E730212068E3E7000061
:1016800000B50068094985B088420CD180140090EB
:1016900002200121CDE901010021CDE903106946B5
:1016A0000348FFF70DFB05B000BD00000008004037
:1016B000000C024070B5044690F838000D46012831
:1016C0000DD0012684F83860022084F8390042B138
:1016D000042A18D0082A2AD00C2A4DD139E0022039
:1016E00070BD206800F0DCF92068816941F00801D4
:1016F00081612068816921F004018161206881692C
:101700002A69114311E0206800F0F2F9206881692C
:1017100041F4006181612068816921F48061816107
:10172000206881692A6941EA0221816124E02068F8
:1017300000F00AFA2068C16941F00801C16120681F
:10174000C16921F00401C1612068C1692A6911439E
:1017500011E0206800F024FA2068C16941F40061BA
:10176000C1612068C16921F48061C1612068C169DB
:101770002A6941EA0221C16184F83960002084F8B5
:10178000380070BD10B5040003D094F8390010B1D2
:1017900007E0012010BD002084F83800204600F04A
:1017A0000CF8022084F83900211D206800F012F99D
:1017B000012084F83900002010BD704710B50446A0
:1017C0000068012200F04EF907492068884203D1E1
:1017D000416C41F4004141642068016841F001011D
:1017E0000160002010BD000000000140FEE7000085
:1017F0007FB513481149002501604FF44031416025
:101800000561012405624FF00071846181600D491A
:10181000C0E90A15C4610463C5604461FEF7C8FFEE
:1018200000B1FEE707200095CDE901406946044874
:10183000FEF766FE002800D0FEE77FBD00200140D5
:101840001C0000200100000F10B51C488EB01A4982
:10185000016010210024C0E9011444F61F61C0E9B1
:101860000314FFF764FE00B1FEE74FF480500790C9
:1018700007A91248FFF78AFE00B1FEE70F48FFF7FD
:1018800081FF00B1FEE70B940BA90C480C94FFF705
:1018900026FE00B1FEE76020CDE90004029400229C
:1018A000694606480494FFF705FF00B1FEE70348C8
:1018B000FFF7E6FE0EB010BD0008004064000020F7
:1018C000FEE770470907090E002806DA00F00F004E
:1018D00000F1E02080F8141D704700F1E02080F84E
:1018E000001470477047704710B5FFF7B3FABDE8B2
:1018F0001040FFF7F0BD000010B51F4892B0002463
:10190000016841F080510160006800F08050119042
:101910001A48016841F4404101600068069400F4EF
:10192000404011900220009001200390102004906C
:101930006846FFF721FC00B1FEE70F20CDE90C045B
:101940000E940F9400210CA81094FFF745FB00B1F2
:10195000FEE7FFF7D9FB4FF47A71B0FBF1F0FFF728
:10196000A6FD0420FFF796FD00221146501EFFF74A
:1019700001FB12B010BD0000403802400070004072
:101980001048016841F4700101600F48016841F09E
:10199000010101600C4A00210832116002680B4B02
:1019A0001A400260031D0A4A1A60026822F480226B
:1019B000026005480C300160024958068039086011
:1019C0007047000088ED00E000380240FFFFF6FE9F
:1019D00010300024F0B502681B4B1C4C9F031C4DBB
:1019E0001C4E984207D0B84205D0A04203D0A8426E
:1019F00001D0B04204D122F0700C4A6842EA0C02D5
:101A0000984210D0B8420ED0A0420CD0A8420AD0C2
:101A1000B04208D0104CA04205D0104CA04202D0D9
:101A20000F4CA04203D122F44074CA6822430260E2
:101A30008A68C2620A688262984201D109690163B8
:101A400001214161F0BD00000000014000040040A0
:101A500000080040000C00400040014000440140EC
:101A60000048014010B50123046A8B409C43046286
:101A7000036A8A401343036210BD10B5846842EACA
:101A8000032224F47F440A432243826010BD82680B
:101A900022F070020A4342F00701816070470000A3
:101AA00030B5026A22F001020262026A4368846968
:101AB00024F073050C682C4322F002058A682A433F
:101AC0000A4DA8420BD122F00805CA6823F44073DE
:101AD0002A434D6922F004021D438B692B43436066
:101AE000846149684163026230BD0000000001402A
:101AF00030B5026A22F010020262026A4368846909
:101B00000D6824F4E64444EA05248D6822F020029E
:101B100042EA05120B4DA8420ED1CD6822F0800298
:101B200042EA05124D6923F4406343EA85038D6957
:101B300022F0400243EA850343608461496881637F
:101B4000026230BD0000014030B5026A22F48072AA
:101B50000262036A4268C46923F4007324F07305C7
:101B60000C682C438D6843EA05230C4DA8420ED126
:101B7000CD6823F4006343EA05234D6922F4405203
:101B800042EA05128D6923F4806342EA051242603D
:101B9000C4614968C163036230BD000000000140B8
:101BA00030B5026A22F480520262046A4268C36954
:101BB0000D6823F4E64343EA05238D6824F40054BA
:101BC00044EA0534064DA84204D14D6922F480420E
:101BD00042EA85124260C36149680164046230BD13
:101BE0000000014010B5036A046A24F00104046295
:101BF000846924F0F00444EA021423F00A020A4340
:101C00008461026210BD10B5036A23F01003036201
:101C10008369046A23F4704343EA023224F0A00388
:101C200043EA01118261016210BDFEE7FEE702E0B6
:101C300008C8121F08C1002AFAD170477047002057
:101C400001E001C1121F002AFBD1704708B5FFF760
:101C500009F9FFF751FE2E48016841F0800101604B
:101C6000016801F080010091016841F0010101600B
:101C7000016801F001010091016841F00801016073
:101C8000016801F008010091016841F480010160E0
:101C90000068002200F48000009011463820FFF711
:101CA00069F93820FFF75AF9FFF7A2FDFFF7CCFDDD
:101CB000012218491848FEF7FBFD1748002148305B
:101CC000FFF77CFD14484FF46174483001684C63A1
:101CD000DFF84090114EA9F1080909F1040A4FF408
:101CE00096678046D9F800102546CAF8001004E02F
:101CF00045630A20FEF7D2FF6D1D3068B842D8F860
:101D00000000F5D344636420FEF7C8FFEAE7000053
:101D100030380240080000201C0000203408004039
:101D2000000610160006101600000000000000005B
:101D30000102030406070809581D000800000020DE
:101D40001C0000002E1C0008741D00081C00002050
:101D5000E40400003E1C0008000000000000000039
:101D60000000000001000000100000000000000062
:041D70000024F40057
:040000050800019955
:00000001FF
