:020000040800F2
:10000000A80B0020AD0100085B240008BD200008FB
:10001000592400080D090008932A00080000000078
:100020000000000000000000000000005127000850
:10003000C1090008000000007D24000853270008C3
:10004000C7010008C7010008C7010008C701000870
:10005000C7010008C7010008C7010008C701000860
:10006000C7010008C7010008C7010008C701000850
:10007000C7010008C7010008C7010008C701000840
:10008000C7010008C7010008DD07000800000000E4
:10009000000000000000000000000000C701000890
:1000A000C7010008C7010008C7010008C701000810
:1000B000C7010008C7010008C7010008C701000800
:1000C000C7010008C7010008C7010008C7010008F0
:1000D000C7010008C7010008C701000800000000B0
:1000E000C7010008C7010008C701000800000000A0
:1000F000000000000000000000000000C701000830
:1001000000000000C7010008C7010008C70100087F
:1001100000000000000000000000000000000000DF
:1001200011090008C7010008C7010008C70100083D
:10013000C7010008000000000000000000000000EF
:10014000000000000000000000000000C7010008DF
:10015000C7010008C7010008C7010008C70100085F
:10016000C7010008C70100080000000000000000EF
:10017000000000000000000000000000000000007F
:1001800000000000C701000800000000000000009F
:10019000C7010008C7010008DFF80CD000F05CFAC6
:1001A000004800470D360008A80B0020064880478D
:1001B00006480047FEE7FEE7FEE7FEE7FEE7FEE74C
:1001C000FEE7FEE7FEE7FEE7E927000899010008E1
:1001D0002DE9F05F0546002092469B46884606467C
:1001E000814640241BE0284641464746224600F00F
:1001F0006AF853465A46C01A914110D31146184620
:10020000224600F051F82D1A67EB01084F462246AE
:100210000120002100F048F817EB00094E41201E94
:10022000A4F10104DFDC484631462A464346BDE8D6
:10023000F09FD2B201E000F8012B491EFBD27047BB
:100240000022F6E710B513460A4604461946FFF7A2
:10025000F0FF204610BD00F0004230F000400AD010
:10026000C10D01F56071C0F3160042EA0151C208E8
:1002700040071143704700200146704730B50B46D8
:10028000014600202022012409E021FA02F59D42C6
:1002900005D303FA02F5491B04FA02F52844151E9A
:1002A000A2F10102F1DC30BD202A04DB203A00FA81
:1002B00002F1002070479140C2F1200320FA03F3BD
:1002C000194390407047202A04DB203A21FA02F0BB
:1002D0000021704721FA02F3D040C2F12002914080
:1002E0000843194670472DE9FE4F804681EA030016
:1002F000C00F0C46009021F0004123F00045B8EB00
:100300000200A94105D24046214690461C460B46B4
:10031000024623F00040104347D0270DC7F30A00E0
:10032000C3F30A510290401A019040286BDAC3F3DC
:10033000130040F4801B0098924620B10023D2EBBA
:10034000030A63EB0B0B01985946C0F1400250467B
:10035000FFF7AAFF06460D4650465946019A00F09F
:100360008DF910EB08006141002487EA115284EAFC
:10037000E7731A4340D0009A62B3019A012A4FEA08
:10038000075215DC001B61EB02014FF0004202EA4C
:100390000752CDE90042001C41F5801132462B4640
:1003A00000F08DF903B0BDE8F08F40462146F9E733
:1003B000001B61EB0201001C41F5801300185B413A
:1003C0002018A2F5001747EB030140EAD570B619D3
:1003D0006D4111E06D084FEA360645EAC0754FEAF7
:1003E0000752001B61EB0201001C41F58011490816
:1003F0004FEA30000019514132462B4603B0BDE8A8
:10040000F04F00F04DB90098012240000023D0EBDE
:10041000020263EBE073009821464FEAE074B8EB08
:10042000000061EB0401E9E783F000435BE781F042
:10043000004158E72DE9FE4F81EA030404F000442F
:1004400021F0004100944FF0000B23F0004350EAEC
:1004500001045ED052EA03045BD0C3F30A54C1F333
:100460000A552C44A4F2F3340194A0FB0254C1F3C6
:10047000130141F48011C3F3130343F4801301FB10
:10048000024400FB034E840A970A44EA815447EA77
:100490008357A4FB076802958D0A05FB07854FEA81
:1004A000932C04FB0C542705029D4FEA065847EA9B
:1004B0001637B5EB08056EEB070C870E920E47EA70
:1004C000811742EA8312A7FB0201B6EB0B0164EB32
:1004D00000042B0D43EA0C335E1844EB1C50DA4643
:1004E0005146E7FB0201C5F313044FEA0B3343EA1D
:1004F00014534FEA0432019C43EA0603A4F10C04AE
:100500000294009CCDE900B400F0D9F803B0BDE836
:10051000F08F00200146F9E72DE9F04D81EA030450
:1005200004F0004B21F0004514464FF0000A23F080
:10053000004150EA050220D054EA01021DD0C5F363
:100540000A570246C5F31303C1F31300C1F30A5659
:1005500040F4801543F48013A7EB0608101BD64621
:1005600008F2FD3873EB050002D308F1010801E041
:1005700092185B41B8F1000F03DA00200146BDE894
:10058000F08D00204FF48011064684460EE0171BC4
:1005900073EB050705D3121B63EB050306434CEA17
:1005A000010C49084FEA300092185B4150EA0107FC
:1005B000EDD152EA030012D082EA040083EA050179
:1005C000084305D0101BAB4106D20122002306E0F0
:1005D00000224FF0004302E06FF0010253101AEBCB
:1005E00006004CEB085110EB0A0041EB0B01BDE893
:1005F000F04D00F055B8C1F30A52C1F3130140F2B7
:10060000FF3341F480119A4202DA0020014670471C
:1006100040F233439A42A2F2334202DC5242FFF7E5
:1006200052BEFFF741BE000030B5041E71F1000458
:1006300004DB4FF00044404264EB0101141E73F1EF
:10064000000405DB1C464FF00043524263EB0403F9
:10065000994208BF904230BD064C074D06E0E06865
:1006600040F0010394E8070098471034AC42F6D3F9
:10067000FFF796FDDC450008FC450008202A06DB54
:10068000CB17203A41FA02F043EAE07306E041FA60
:1006900002F3D040C2F1200291400843194670474E
:1006A00010B5141E73F1000408DA401C41F100017A
:1006B00092185B411A4301D120F0010010BD2DE9D1
:1006C000F04D92469B4611B1B1FA81F202E0B0FAC8
:1006D00080F220329046FFF7E7FD04460F4640EADD
:1006E0000A0041EA0B0153465A46084313D011460B
:1006F00053EA010019D0C8F140025046FFF7E3FD6C
:1007000005460E46504659464246FFF7CDFD084382
:1007100005D0012004E020463946BDE8F08D0020D8
:10072000054346EAE0762C4337430A986305E40A1A
:10073000A0EB08000022FD0A44EA47540A3002D523
:1007400000200146E9E7010510196941DDE9084586
:1007500000196941BDE8F04DA2E710B50146806B74
:10076000026C12F0500F05D0806BC26CBDE81040D7
:1007700008461047016C41F40071016401688A6801
:1007800012F0405F17D18269AAB9CA6A12F4700FD9
:1007900002D08A6852050ED44A6822F020024A60CC
:1007A000016C21F480710164016CC90403D4016CF3
:1007B00041F00101016400F0AFF910BD10B5806B8C
:1007C00040210164416C41F00401416400F0B3F93F
:1007D00010BD10B5806B00F0ADF910BD014800F000
:1007E000ABB9000070000020454910B54A6822F4FA
:1007F00040324A604A6843681A434A6001684A685E
:1008000022F480724A6001684A68036942EA03225E
:100810004A6001684A6822F040724A6001684A688A
:1008200083681A434A6001688A6822F400628A6019
:1008300001688A68C3681A438A60816A6FF07062CF
:10084000D14201688A6822F070628A6001688A6811
:100850000CD0836A1A438A6001688A6822F0405289
:100860008A6001688A68C36A1A4301E022F0405234
:100870008A6001688A6822F002028A6001688A68D8
:10088000836942EA43028A60016A002901684A6872
:100890000FD042F400624A6001684A6822F4604264
:1008A0004A6001684A68174C436A04EB43331A43B1
:1008B00001E022F400624A600168CA6A22F4700210
:1008C000CA620168CA6A838B0F4C04EB03531A4354
:1008D000CA6201688A6822F400728A6001688A68C4
:1008E000036B42EA43228A6001688A6822F48062CC
:1008F0008A6001688A68406942EA8020886010BD89
:100900000023014000E0FFFF0000F0FFFEE70000D1
:10091000014800F0AFBA0000480100200168182328
:10092000CAB2103AB2FBF3F2054B6FF30901032A86
:100930009B5CC36500D9091D8165084670470000AE
:100940007C45000810B5014600208B698A6A4FF08B
:10095000C07453B1B3F5005F15D072B1012A0CD049
:10096000022A0AD0032A09D104E01AB1012A06D0CA
:10097000022A03D1C96AC90100D5012010BDC96A84
:10098000A142FAD010BD002AF7D0012AF2D0022AE3
:10099000F3D0032AF3D010BD30B50468256825F4E0
:1009A00080252560046863608368402B036803D05A
:1009B00099600068C26030BD9A600068C16030BD57
:1009C0007047704778B50024009490F83C20012AC5
:1009D00019D0012280F83C200A6807230568092AFB
:1009E00013D9EE680A3A02EB420293409E43EE604E
:1009F0000A788B680A3A02EB420293400268D56893
:100A00002B43D36010E0022078BD2E6902EB420236
:100A100093409E432E610A788B6802EB420293401A
:100A2000026815692B4313614A681F23072A13D2F2
:100A300005686E6B521E02EB820293409E436E630A
:100A40000B790A885B1E92B203EB83039A4003681A
:100A50005D6B2A435A6327E005680D2A12D22E6B7C
:100A6000D21F02EB820293409E432E630B790A88C9
:100A7000DB1F92B203EB83039A4003681D6B2A438A
:100A80001A6311E0EE6A0D3A02EB820293409E4334
:100A9000EE620B790A880D3B92B203EB83039A4016
:100AA0000368DD6A2A43DA62174B0568154A9D42DE
:100AB00006D10D68122D03D1556845F480055560A7
:100AC00005689D4219D1114D0B68AB4201D0112B25
:100AD00013D1536843F4000353600968A9420CD151
:100AE0000B490C4A0968B1FBF2F101EB81014900A5
:100AF00000E0491E00910029FBD180F83C40002015
:100B000078BD0000002301400020014012000010C9
:100B10006000002040420F0000680449884204D170
:100B200003480349091F006808607047002001401E
:100B3000300000207047704770B5044600680168B7
:100B40004268C1F34001C2F3401251B34AB3216C71
:100B5000C90603D4216C41F400712164816811F04D
:100B6000405F17D1A169A9B9C16A11F4700F02D011
:100B7000816849050ED4416821F020014160206C54
:100B800020F480702064206CC00403D4206C40F0FA
:100B9000010020642046FFF7BFFF21686FF01200BC
:100BA0000860206801684268C1F38001C2F3C01286
:100BB00089B382B3216CC90603D4216C41F400517E
:100BC0002164816811F4401F1ED1816B11F4401F14
:100BD00002D08168490517D44168490514D4816859
:100BE00011F0405F10D1A16971B9416821F0800115
:100BF0004160206C20F480502064206CC00503D438
:100C0000206C40F0010020642046FFF7DAFE2168E6
:100C10006FF00C00086020680168426811F0010F55
:100C2000C2F380120ED06AB10068C0070AD0206CEF
:100C300040F480302064204600F046F821686FF0D0
:100C400001000860206801684268C1F34011C2F3E6
:100C5000806200290DD0002A0BD0616C41F00201A6
:100C600061646FF0200505602046FFF764FF20688F
:100C7000056070BD70B504004FF0000503D0206C16
:100C8000002610B107E0012070BD666484F83C6066
:100C9000204600F01BF8206CC00610D4206C20F415
:100CA000885040F0020020642046FFF79DFD6664F6
:100CB000206C20F0020040F00100206400E00125DB
:100CC00084F83C60284670BD7047000070B5064649
:100CD00000681C4986B0884232D11B480025016853
:100CE00041F4807101600068694600F480700590ED
:100CF000012000900320CDE90105144800F042FADC
:100D0000144C1348C4E900050015A560C4E903505C
:100D100080106561C4E9065025622046656200F0D6
:100D200079F918B175210CA001F0B4FEB46300226A
:100D300011461220A66300F075FD122000F066FD3A
:100D400006B070BD0020014044380240000002405F
:100D500010640240480100202E2E2F5372632F731F
:100D6000746D3332663478785F68616C5F6D737070
:100D70002E630000F8B50E4600210446009190F85D
:100D80003C00012807D0012084F83C0020688368DB
:100D9000DB0702D011E00220F8BD836843F00103B5
:100DA00083602D482D4B0068B0FBF3F000EB400052
:100DB00000E0401E00900028FBD120688368DB071C
:100DC00048D0236C40F20165AB4343F48073236445
:100DD0004068400505D5206C20F4005040F4805058
:100DE0002064206CC00404D5606C20F006006064B0
:100DF00000E0616484F83C10A16B1A48184DC86388
:100E0000A16B19480864A16B1848C86421686FF089
:100E1000220008602068416841F0806141602068DC
:100E2000816841F4807181602168134632464C31FB
:100E3000A06B00F059F96868C006206802D00C4920
:100E4000884207D1816811F0405F03D1816841F089
:100E5000804181600020F8BD6000002040420F000A
:100E6000002301405B070008D3070008BD07000806
:100E7000002001402DE9F84304464FF00009CDF869
:100E8000009063484FF41651A56D0068B0FBF1F770
:100E90002E6894F85C10082000FA01F131420FD05E
:100EA00021680A6852070BD50A6822F004020A601A
:100EB00094F85C108840A860606D40F001006065A7
:100EC00094F85C104FF0010808FA01F0304208D0A5
:100ED00021684969090604D5A860606D40F00200E8
:100EE000606594F85C1004208840304208D0216886
:100EF0000968890704D5A860606D40F0040060654A
:100F000094F85C1010208840304218D0216809689D
:100F1000090714D5A86020680168490304D5006852
:100F2000000308D5A16C07E00168C90503D4016876
:100F300021F008010160216C09B12046884794F82E
:100F40005C1020208840304231D021680968C906F1
:100F50002DD5A86094F8350005282068016806D0D2
:100F6000490347D5006800031DD4616C1CE021F0E3
:100F7000160101602068416921F080014161206C07
:100F800008B9A06C20B12068016821F00801016057
:100F900094F85C103F208840A86084F8349084F86E
:100FA0003580216D1FE0E16B09B120468847606DF7
:100FB00000282BD0606DC00714D0052084F83500C0
:100FC0002068016821F0010101600098401C009038
:100FD000B84203D820680068C007F6D184F834907E
:100FE00084F83580E16C002910D001B02046BDE8BE
:100FF000F04308470168C905D5D4016821F0100104
:10100000016084F8349084F83580CCE7BDE8F8833B
:10101000600000202DE9F041044600F077F9064613
:101020005CB1002584F83450022084F83500206833
:10103000016821F0010101600DE00120BDE8F081AF
:1010400000F064F9801B052805D920206065032085
:1010500084F83500F2E720680068C007F0D1226804
:10106000116820480140D4E901031843D4E903364C
:101070003343184363691843A3691843E36918436A
:10108000236A18430843616A042903D1D4E90B1386
:1010900019430843106020684069666A20F0070120
:1010A00030460E43012704280CD1A06A0643E06AAB
:1010B00040B12046FFF746FC20B14020606584F82F
:1010C0003570BAE7206846612046FFF727FC94F8A0
:1010D0005C203F2191408160656584F83570002077
:1010E000ACE700003F8010F02DE9F0410446866D2A
:1010F00090F83400002501280DD0012084F8340038
:1011000094F835700020012F07D084F834000225B0
:101110002846BDE8F0810220FBE7022784F83570FD
:1011200060652046FFF738FC94F85C103F2088404B
:10113000B0602068016841F01601016020684169D3
:1011400041F080014161206C20B12068016841F0CC
:10115000080101602068016841F001010160D7E7E2
:1011600070B5044600F0D2F80546601C02D0044871
:101170000078044400F0CAF8401BA042FAD370BDC6
:10118000540000202DE9F84FDFF860B100224FF045
:1011900001084FF0030A4FF00F090BF1040E00BFD6
:1011A0000B6808FA02F42340A3426ED14D68022D69
:1011B00001D0122D0ED1D50800EB850CDCF82050A3
:1011C0005607F70E09FA07F6B5430E69BE402E43DF
:1011D000CCF82060066855000F790AFA05FC07F084
:1011E000030726EA0C06AF40374307604E68012E1E
:1011F00005D0022E03D0112E01D0122E0ED18668FA
:10120000CF6826EA0C06AF40374387604668A6439E
:101210000C79C4F30014944034434460C6688C686D
:1012200026EA0C06AC403443C4604C68E40056D552
:101230002F4C256845F480452560246822F003057D
:1012400004F4804400942B4C2E19D6F808489507D6
:101250002F0F09FA07F5AC43274DA84201D100250D
:1012600015E0264DA84201D1012510E0244DA842E9
:1012700001D102250BE0234DA84201D1032506E050
:10128000214DA84202D1042501E028E00725BD40F8
:101290002543C6F80858DBF800405D464E689C437D
:1012A000F60300D51C432C60DEF8004075464E68FE
:1012B0009C43B60300D51C432C600C4D08352C68AC
:1012C0004E689C43F60200D51C432C60074D0C353C
:1012D0002C684E689C43B60200D51C432C60521CFF
:1012E000102AFFF45DAFBDE8F88F0000003C01401C
:1012F0004438024000300140000002400004024037
:1013000000080240000C02400010024001488068C2
:10131000704700005400002070B5040004D094F819
:101320003D00002510B106E0012070BD84F83C505E
:10133000204600F0C1F9242084F83D0020680168AF
:1013400021F00101016000F03DFB33492268B0FB50
:10135000F1F15160314A6368934206D94FF49673B4
:1013600059434FF47A73B1FBF3F12368491C1962B6
:10137000616891420BD84900B0FBF1F2C2F30B0255
:10138000042A01D2042019E0B0FBF1F016E0A368B2
:101390009BB301EBC10202EB0112B0FBF2F242F48B
:1013A0008042120530D04BB301EBC10202EB0111B8
:1013B000B0FBF1F040F4804040F400402168C86187
:1013C000D4E90701084321680860D4E90310084301
:1013D00021688860D4E9050108432168C860206855
:1013E000016841F0010101602564202084F83D007E
:1013F000256384F83E50002070BD00E006E001EB5C
:101400004102B0FBF2F2CCE70120D7E701EB41014A
:10141000B0FBF1F0D0E7000040420F00A0860100D1
:101420002DE9FF4F81B099468B4604464FF00108E5
:10143000FFF76CFF054694F83D0020287BD1192367
:1014400001224D492046009500F0BFFE002872D1D0
:1014500094F83C0001286ED0012084F83C002068FC
:101460000168C90703D1016841F0010101602068EA
:10147000016821F400610160242084F83D00002609
:1014800026643E48E06220272068016841F48071AC
:1014900001604B4600224FF001112046009500F0FC
:1014A00094FE002858D121680BF0FE000861FFF778
:1014B0002DFF2168054648694969C0F3400094F84A
:1014C0003D20C1F380214FF0A00A12E0B9F1000FD6
:1014D00004D0FFF71BFF411B494501D984F83DA00B
:1014E000216848694969C0F3400094F83D20C1F380
:1014F0008021084301D1A02AE8D184F83D702068FA
:101500004169C943890717D4016841F4007101603A
:1015100020684169806919230122174920460095F6
:1015200000F053FEC0B984F83D7084F83C600020A0
:1015300005B0BDE8F08F1DE0016841F40071016065
:1015400021686FF480604861192301220A4920460E
:10155000009500F03AFE08B10320E9E74146039800
:1015600008F1010881428FD384F83D7084F83C6013
:101570000120DDE70220DBE7020010000000FFFF92
:101580002DE9F84F1F4690468A460446DDF828901C
:10159000FFF7BCFE064694F83D0020287ED11923B3
:1015A000012243492046009600F00FFE00287DD11D
:1015B00094F83C00012879D0012084F83C00206890
:1015C0000168C90703D1016841F001010160206889
:1015D000016821F400610160212084F83D001020A1
:1015E00084F83E0000252564C4F8248067853148CE
:1015F000E062608D208533464A465146204600F021
:1016000073FD28B1206C84F83C5004284CD00DE0C8
:10161000206841698069009030E0324649462046A2
:1016200000F048FE28B1206C042838D00320BDE823
:10163000F88F606A411C6162216800780861608DE2
:10164000401E6085208D401E80B2208521684A6939
:10165000D24352070BD450B1606A421C62620078D8
:101660000861608D401E6085208D401E20853246B9
:101670004946204600F082FD0028D4D1208D002864
:10168000CBD154F83D0B016841F40071016020207A
:1016900004F81E09E57765770020C8E706E02068B2
:1016A000016841F4007101600120C0E70220BEE73B
:1016B000020010000000FFFF00B500680E4987B06F
:1016C000884216D1C0200090122001900120029083
:1016D000032003900420049069460848FFF752FD58
:1016E0000748016841F400110160006800F400102F
:1016F000059007B000BD0000005400400004024007
:101700004038024002488168027811448160704785
:10171000540000200B4810B5016841F400710160CD
:10172000016841F480610160016841F480710160E9
:10173000032000F097F8002000F006F800F024F8ED
:10174000002010BD003C024070B50D4D04464FF422
:101750007A712878B1FBF0F00A490968B1FBF0F022
:1017600000F00DFB48B9102C07D200222146501E74
:1017700000F058F800206C6070BD012070BD0000C2
:1017800054000020600000201F4808B5016841F4A3
:1017900080410160006800F4804000901A48001FFA
:1017A000016841F080510160006800F080500090B5
:1017B000032000F057F8002211466FF00B0000F0F4
:1017C00031F8002211466FF00A0000F02BF80022D9
:1017D00011466FF0090000F025F800221146501F55
:1017E00000F020F800221146101F00F01BF8002224
:1017F0001146901E00F016F80022BDE80840114680
:10180000501E00F00FB800004438024000F01F02E4
:10181000012191404009800000F1E020C0F8001152
:1018200070470000F0B40E4B1B680C46C3F3022354
:10183000C3F10705042D00D90425191D072901D27C
:10184000002300E0DB1E012606FA05F1491E2140B7
:1018500099409E40761E16403143F0BC00F0FEBD1C
:101860000CED00E0064900F0070208684FF6FF03A0
:10187000184040EA0220034A104308607047000005
:101880000CED00E00000FA052DE9F0470E460500DA
:1018900065D0DFF81481D8F80000F7B200F00F002F
:1018A000B04207D288F80070D8F8000000F00F00AE
:1018B000B04254D128683D4C810712D5400703D56A
:1018C000206840F4E05020602878000703D52068A5
:1018D00040F4604020602068A96820F0F0000843D0
:1018E00020602878C0072DD0304968680839012861
:1018F00012D0022813D0032811D0096889070029C3
:101900002DDA216821F0030101432160FFF7FEFC7D
:10191000814641F2883A0EE009688903EFE70968D9
:101920008901ECE7FFF7F2FCA0EB0901514502D970
:101930000320BDE8F0872068696800F00C00B0EB78
:10194000810FEFD1D8F80010404601F00F01B142ED
:1019500007D90770006800F00F00B04201D00120E5
:10196000E7E72878400705D52068E96820F4E050CB
:10197000084320602878000706D52068296920F4EC
:10198000604040EAC100206000F02CF82168084A5D
:10199000C1F30311515CC840064908600020FFF7FD
:1019A000D3FE0020C5E70000003C0240083802409A
:1019B000844500086000002001480068704700006E
:1019C000600000200448054900680968044AC1F322
:1019D0008221515CC84070476000002008380240F6
:1019E00094450008154810B5006810F00C02144822
:1019F00013D01449042A0FD0082A0ED10F4C241FEB
:101A00002268236802F03F025B0207D52068C0F31A
:101A10008810A0FB010106E0084610BD2168C1F353
:101A20008811A1FB00010023FEF7D2FB2168C1F35E
:101A30000141491C4900B0FBF1F010BD08380240DB
:101A40000024F40040787D012DE9F84F050076D0A0
:101A50002878DFF8F8B2BE4CC00749D0DBF8001098
:101A60005846C1F38101012908D00068C0F3810004
:101A700002280AD1201D0068400206D52068800394
:101A800036D568680028E2D032E06868B0F5803F5B
:101A900010D0B0F5A02F206810D020F48030206046
:101AA000206820F4802020606868A0B1FFF72EFC39
:101AB00006460CE0206840F48030F4E740F48020D3
:101AC0002060F7E7FFF722FC801B642873D82068AA
:101AD0008003F7D50CE0FFF719FC064605E000BFD0
:101AE000FFF714FC801B6428F0D820688003F7D42B
:101AF0002878DFF8608280074FF000093ED5DBF8D8
:101B00000010584611F00C0F09D00068C0F3810096
:101B100002280BD18D48001F0068400206D42068BF
:101B2000800715D5E868012809D111E0E868B8B147
:101B30000120C8F80000FFF7E9FB064605E002E1D6
:101B4000FFF7E4FB801B0228C0D820688007F7D588
:101B50002068296920F0F80040EAC10020600DE00B
:101B6000C8F80090FFF7D2FB064604E0FFF7CEFB73
:101B7000801B02281FD820688007F7D42878000728
:101B800022D5724E744869696C3671B101210160C9
:101B9000FFF7BCFB074604E0FFF7B8FBC01B0228B9
:101BA00009D830688007F7D50EE0C0F80090FFF73D
:101BB000ADFB074605E083E0FFF7A8FBC01B02284A
:101BC0007ED830688007F7D42878400768D5DFF8DA
:101BD0007CA100270AF1380ADAF80000C0000BD413
:101BE000DAF8001041F08051CAF80010DAF800006D
:101BF000012700F080500090584E3068C00510D486
:101C0000306840F480703060FFF780FB009005E0A2
:101C1000FFF77CFB0099401A022851D83068C005B4
:101C2000F6D54A4EA868683601280FD005283068D6
:101C300010D020F001003060306820F004003060E7
:101C4000A868B8B1FFF762FB00900FE0306840F081
:101C50000100F4E740F004003060F7E7FFF756FBBF
:101C60000099411A41F28830814264D83068800777
:101C7000F4D50EE0FFF74AFB009007E0FFF746FBC4
:101C80000099411A41F28830814254D83068800767
:101C9000F4D42FB1DAF8001021F08051CAF8001006
:101CA000A869C0B3DBF80010C1F3810102294AD052
:101CB0000228484607D0C8F86000FFF727FB00E07D
:101CC00039E005463AE04746C8F86000FFF71EFBDA
:101CD000064604E0FFF71AFB801B02282BD8206879
:101CE0008001F7D4D5E907010843A96A1C4A4908CD
:101CF00002EB01416A6A41EA8211084395F82C100F
:101D000040EA01611148001F016001203866FFF7B9
:101D1000FDFA054605E014E0FFF7F8FA401B02283B
:101D200009D820688001F7D50BE000BFFFF7EEFA75
:101D3000401B022802D90320BDE8F88F20688001EB
:101D4000F4D40020F8E70120F6E70000083802404C
:101D50000038024000004742800E474200700040B9
:101D60000000FFFF4FF0E0210428086903D020F0B5
:101D700004000861704740F00400FAE7704710B5AE
:101D8000401EB0F1807F01D3012010BD4FF0E02450
:101D900060610F21601700F061FB0020A061072047
:101DA0002061002010BD10B5FFF7E8FF10BD30B571
:101DB00090F83820012A20D0012280F83820022310
:101DC00080F8393003685C6824F070045C60036854
:101DD0005C680D682C435C6003689C6824F0800498
:101DE0009C6003689C6849680C439C6080F83920BB
:101DF000002180F83810084630BD022030BD10B5F3
:101E0000040003D094F8390010B107E0012010BDA0
:101E1000002084F83800204600F00CF8022084F8F6
:101E20003900211D206800F009FD012084F83900E7
:101E3000002010BD08B500680649884208D1064850
:101E4000016841F004010160006800F004000090A6
:101E500008BD0000000800404038024070B504464C
:101E600090F83800012817D0012584F83850022056
:101E700084F839002068826822F0770222F47F42D9
:101E800082600868502837D00DDC202859D005DC46
:101E900088B3102841D151E0022070BD302853D0C2
:101EA00040283AD13FE060282ED070280BD0B0F502
:101EB000805F03D0B0F5005F2FD110E0206881680B
:101EC00021F0070115E0CB68D1E90121206800F07D
:101ED00008FD2168886840F0770088601DE0CB68C5
:101EE000D1E90121206800F0FCFC2068816841F400
:101EF0008041816011E01EE0CA684968206800F0F6
:101F0000A5FD5021206806E0CA684968206800F0F5
:101F1000AEFD6021206800F0EEFC84F8395000200E
:101F200084F8380070BDCA684968206800F08EFDEA
:101F300040212068EFE700212068ECE710212068AD
:101F4000E9E720212068E6E730212068E3E7000088
:101F500000B50068094985B088420CD18014009012
:101F600002200121CDE901010021CDE903106946DC
:101F70000348FFF707F905B000BD00000008004066
:101F8000000C024070B5044690F838000D46012858
:101F90000DD0012684F83860022084F8390042B15F
:101FA000042A18D0082A2AD00C2A4DD139E0022060
:101FB00070BD206800F0A8FC2068816941F008012C
:101FC00081612068816921F0040181612068816953
:101FD0002A69114311E0206800F0BEFC2068816985
:101FE00041F4006181612068816921F4806181612F
:101FF000206881692A6941EA0221816124E0206820
:1020000000F0D6FC2068C16941F00801C161206878
:10201000C16921F00401C1612068C1692A691143C5
:1020200011E0206800F0F0FC2068C16941F4006113
:10203000C1612068C16921F48061C1612068C16902
:102040002A6941EA0221C16184F83960002084F8DC
:10205000380070BD10B5040003D094F8390010B1F9
:1020600007E0012010BD002084F83800204600F071
:102070000CF8022084F83900211D206800F0DEFBF6
:10208000012084F83900002010BD704710B50446C7
:102090000068012200F01AFC07492068884203D139
:1020A000416C41F4004141642068016841F0010144
:1020B0000160002010BD000000000140FEE7016843
:1020C0004A69D24352050CD46FF480624A610421FC
:1020D0000164002140F8301F202242730173012067
:1020E0007047002070470000F8B50446C06A1E46DD
:1020F0000D461746042807D0012805D010F5803F6B
:1021000002D0206B122804D12068016841F480714C
:102110000160134600224FF001112046009600F0A6
:1021200054F8A0B92069B0F5804F12D0062021687C
:1021300000EAD51040F0F000086133463A460E49F7
:10214000204600F073F838B1206C042811D0032029
:10215000F8BD05F0FE0000E0E8B22168086106491C
:1021600033463A46891F204600F060F80028EBD13C
:10217000F8BD0120F8BD00000800010070B516464A
:102180000D4604461AE02046FFF799FF08B10120EA
:1021900070BD681C12D025B1FFF7B8F8801BA842AB
:1021A0000CD954F8400F40F0200044F810090020EA
:1021B0002060202161732073032070BD2068406976
:1021C000C0434007DFD4002070BD2DE9F0471E4614
:1021D00090460D460446C1F30747DDF8209012E013
:1021E000701C10D02EB1FFF791F8A0EB0900B0429F
:1021F00009D9002044F8300F20216173A0732073A7
:102200000320BDE8F0872068012F0AD0806925EA05
:1022100000000004000C06D000214145E0D0002061
:10222000EFE74069F3E70121F7E700002DE9F04708
:102230009A4691460D46044600264FF02008C1F309
:1022400007472AE020684069C043400512D420684F
:10225000016841F40071016021686FF48060486199
:1022600004202064266384F83D8084F83C600120CB
:10227000BDE8F087B9F1FF3F0FD0B9F1000F05D0ED
:10228000FFF744F8A0EB0A01494506D944F8306F3E
:1022900084F80D8026730320EAE72068012F07D019
:1022A000D0F8180025EA00000004000CE0D0C9E7CF
:1022B0004069F7E770B516460D4604461AE0204619
:1022C000FFF7FDFE08B1012070BD681C12D025B1DA
:1022D000FFF71CF8801BA8420CD954F8400F40F0BF
:1022E000200044F810090020206020216173207331
:1022F000032070BD20684069C0430006DFD4002081
:1023000070BD00007FB513481149002501604FF4EE
:10231000403141600561012405624FF00071846124
:1023200081600D49C0E90A15C4610463C560446158
:10233000FEF7A0FC00B1FEE707200095CDE90140C3
:1023400069460448FEF73EFB002800D0FEE77FBD4B
:1023500000200140700000200100000F114808B566
:10236000016841F080010160016801F08001009185
:10237000016841F001010160016801F00101009173
:10238000016841F008010160016801F00801009155
:10239000016841F002010160006800F00200009055
:1023A00008BD0000303802400B4810B509490160F3
:1023B0000A49416000214FF480428160C0E9031264
:1023C00041618161C1610162FEF7A6FF002800D072
:1023D000FEE710BD00540040B8000020801A06003F
:1023E00010B51C488EB01A49016010210024C0E9C4
:1023F000011444F61F61C0E90314FFF700FD00B1AA
:10240000FEE74FF48050079007A91248FFF726FD1A
:1024100000B1FEE70F48FFF71DFE00B1FEE70B9489
:102420000BA90C480C94FFF7C2FC00B1FEE760203A
:10243000CDE9000402940022694606480494FFF79F
:10244000A1FD00B1FEE70348FFF782FD0EB010BD0D
:10245000000800400C010020FEE770470907090E44
:10246000002806DA00F00F0000F1E02080F8141DCB
:10247000704700F1E02080F80014704770470000BA
:1024800070B5802813D2402911D20B4B012401F0E2
:1024900007051E79AC40094BC90800EBC1100EB10D
:1024A00032B101E0012A03D0195CA143195470BD77
:1024B000195C2143FAE700004C000020A80100202D
:1024C00028B1FF224FF480610248FDF7B2BE00221E
:1024D000F8E70000A8010020014A108051807047F1
:1024E0004C00002010B501F061F944F62063012290
:1024F00078215148FEF794FF08B1002010BD40F646
:10250000C210401EFDD1AE220021782001F054F906
:1025100020220021782001F04FF91022002178209C
:1025200001F04AF9B0220021782001F045F9C822D3
:102530000021782001F040F900221146782001F0B6
:102540003BF910220021782001F036F940220021C9
:10255000782001F031F981220021782001F02CF956
:10256000FF220021782001F027F9A1220021782004
:1025700001F022F9A6220021782001F01DF9A822FD
:102580000021782001F018F93F220021782001F085
:1025900013F9A4220021782001F00EF9D3220021A2
:1025A000782001F009F900221146782001F004F9A1
:1025B000D5220021782001F0FFF8F02200217820B8
:1025C00001F0FAF8D9220021782001F0F5F8222252
:1025D0000021782001F0F0F8DA220021782001F0C3
:1025E000EBF812220021782001F0E6F8DB2200212E
:1025F000782001F0E1F820220021782001F0DCF8B9
:102600008D220021782001F0D7F8142200217820B3
:1026100001F0D2F8AF220021782001F0CDF800209F
:10262000FFF74EFF00F070F8044800210180418060
:1026300001214171084610BDB80000204C00002067
:102640002DE9F047814625480D46924601882A78B3
:102650001144802905D28046408869780844402882
:1026600002D30020BDE8F08700262AE0A9F120016E
:1026700011FB00606A68002432F810701DE000BF92
:1026800007FA04F0000409D5B8F80210B8F8000001
:102690003144204489B280B252460BE0BAF1000FB7
:1026A0001AD00022B8F80210B8F8000031442044D3
:1026B00089B280B2FFF7E4FE641C2878A042DFD81C
:1026C000761C6878B042D1D8B8F800102A7848460D
:1026D0001144A8F80010C5E70122E3E74C000020F0
:1026E00070B515460E46044609E02A463146FFF706
:1026F000A7FF2178884201D0C8B270BD641C207841
:102700000028F2D1C0B270BD70B5104D002400BFDA
:1027100004F1B000C2B20021782001F04DF800228F
:102720001146782001F048F810220021782001F0AD
:1027300043F805EBC41280234021782001F04CF8C7
:10274000641CE4B2082CE3D370BD0000A801002093
:10275000704710B5FEF7D6FFBDE81040FFF723BB6A
:1027600010B51F4892B00024016841F0805101600B
:10277000006800F0805011901A48016841F440410F
:1027800001600068069400F440401190022000901F
:1027900001200390102004906846FFF755F900B11E
:1027A000FEE70F20CDE90C040E940F9400210CA835
:1027B0001094FFF769F800B1FEE7FFF7FDF84FF45A
:1027C0007A71B0FBF1F0FFF7DAFA0420FFF7CAFAEA
:1027D00000221146501EFFF725F812B010BD000070
:1027E00040380240007000401048016841F4700118
:1027F00001600F48016841F0010101600C4A0021AD
:102800000832116002680B4B1A400260031D0A4A2D
:102810001A60026822F48022026005480C300160D0
:1028200002495806803908607047000088ED00E0D2
:1028300000380240FFFFF6FE10300024F0B50268B9
:102840001B4B1C4C9F031C4D1C4E984207D0B8429A
:1028500005D0A04203D0A84201D0B04204D122F05A
:10286000700C4A6842EA0C02984210D0B8420ED06E
:10287000A0420CD0A8420AD0B04208D0104CA042CE
:1028800005D0104CA04202D00F4CA04203D122F43C
:102890004074CA68224302608A68C2620A6882621F
:1028A000984201D10969016301214161F0BD000035
:1028B000000001400004004000080040000C0040FF
:1028C00000400140004401400048014010B5012390
:1028D000046A8B409C430462036A8A401343036288
:1028E00010BD10B5846842EA032224F47F440A43F1
:1028F0002243826010BD826822F070020A4342F0D7
:10290000070181607047000030B5026A22F00102C1
:102910000262026A4368846924F073050C682C43E0
:1029200022F002058A682A430A4DA8420BD122F000
:102930000805CA6823F440732A434D6922F0040253
:102940001D438B692B434360846149684163026284
:1029500030BD00000000014030B5026A22F01002D4
:102960000262026A436884690D6824F4E64444EA1A
:1029700005248D6822F0200242EA05120B4DA84280
:102980000ED1CD6822F0800242EA05124D6923F48F
:10299000406343EA85038D6922F0400243EA8503E0
:1029A0004360846149688163026230BD0000014078
:1029B00030B5026A22F480720262036A4268C46916
:1029C00023F4007324F073050C682C438D6843EAEC
:1029D00005230C4DA8420ED1CD6823F4006343EAD1
:1029E00005234D6922F4405242EA05128D6923F411
:1029F000806342EA05124260C4614968C1630362B0
:102A000030BD00000000014030B5026A22F480525F
:102A10000262046A4268C3690D6823F4E64343EA2C
:102A200005238D6824F4005444EA0534064DA84279
:102A300004D14D6922F4804242EA85124260C361AA
:102A400049680164046230BD0000014010B5036AAA
:102A5000046A24F001040462846924F0F00444EA66
:102A6000021423F00A020A438461026210BD10B509
:102A7000036A23F0100303628369046A23F470433A
:102A800043EA023224F0A00343EA011182610162A9
:102A900010BDFEE7FEE700000FB4084B10B504A917
:102AA00002AA039800F0B0F9044602A9002000F041
:102AB00042FD204610BC5DF814FB000037350008CD
:102AC00010EE100A10B50023A0F50001B1F1FE4F81
:102AD00067D200BF00F500216FF07E0202EBE15CDF
:102AE000C1F302524FF07E5101EB025100EE901AF9
:102AF000A0EBCC5003EB0C0100EE100A51EA0200EF
:102B000036D030EE601A70EE200A9FED3D2A3E4826
:102B100081EE200A9FED3B1A60EE000A00EE821A59
:102B200060EE201A61EE810A784401EE101A00EB83
:102B300082009FED362AB8EEC11AD0ED001A344853
:102B400041EE021A784401EE101A00EB8200B8EE52
:102B5000C11A90ED002ADFED2F2A01EE222AB0EEF5
:102B6000001A72EE200A40EE010A31EEA00A10BDF2
:102B7000F7EE000A9FED291A30EE600ADFED260A13
:102B800000EE201ADFED260A60EE001A40EE010A80
:102B90009FED241A00EE201A61EE810A30EE200A21
:102BA00010BD4FF07F41B1EB400F03D2BDE81040A4
:102BB00000F046B8B0F1FF4F08BF10BDB5EEC00A37
:102BC000F1EE10FA06D2012000F056F8BDE81040F0
:102BD00000F03AB8B5EEC00AF1EE10FA07D10220C3
:102BE00000F04AF800F022F8B1EE400A10BDDFED27
:102BF0000E0A6FF0160320EE200A10EE100A69E7A5
:102C000066F1CC3EAAAA2A3F701A00000070313F3C
:102C1000741A0000F4FD053821ED423E0A1180BE11
:102C2000C1ABAA3EFFFFFFBE0000004BDFED030A71
:102C3000B7EE001A81EE200A704700000000000085
:102C400030EE000A70470000DFED020A80EEA00AB5
:102C5000704700000000000002E008C8121F08C111
:102C6000002AFAD170477047002001E001C1121F0D
:102C7000002AFBD17047000001490860704700003E
:102C80006C0000202DE9FF5F82B00021DDE90430F7
:102C9000020DDDF840B0034318D044F61050A2F204
:102CA000FF3242431514119801281FD0A5EB0B00E9
:102CB000401C5FEA000A4FF000064E4FDFF83891E3
:102CC000B046504615D5CAF1000413E0119801240E
:102CD0004AA3012801D16FEA0B010298119AC0E9B9
:102CE0000031C0E9024206B0BDE8F09FCBF1000020
:102CF000DFE704460021404A491842EB0450CDE981
:102D0000001012E0E00707D032463B4640464946F5
:102D1000FDF790FB8046894632463B4610461946F1
:102D2000FDF788FB06460F466410002CEAD1DDE96A
:102D30000401DDE90023BAF1000F06DAFDF77AFBA2
:102D400042464B46FDF776FB05E0FDF7E5FB4246C4
:102D50004B46FDF7E1FB04460E460022284BFDF7EB
:102D600063FC03D84FF0FF30014607E00022254BFB
:102D700020463146FDF7B7FAFDF73DFC102409E087
:102D8000002C0ADB0A220023FDF722FA039B3032D3
:102D90001A55641E50EA0102F2D1641C039AC4F170
:102DA00011031444119A012A03D0012208430DD1C2
:102DB0000AE0084304D000204FF0110B119072E795
:102DC000A3EB0B056D1E0DE05B4504DD4FF000022B
:102DD00005F1010504E003DA4FF00002A5F1010559
:102DE000002AECD002981199C0E90231C0E90045EF
:102DF00079E70000000014400000F03F30000000C0
:102E00000000F0430000E03F2DE9FF4F95B09B46E6
:102E10008946064600250FE2252877D1002427465B
:102E2000F84A0121059400E0044316F8013F203BD5
:102E300001FA03F01042F7D130782A2811D06FF050
:102E40002F033078A0F13002092A16D8059A44F0F1
:102E5000020402EB820203EB42021044761C05904E
:102E6000EFE759F8042B0592002A03DA504244F4A4
:102E70000054059044F00204761C30782E2816D1B8
:102E800016F8010F44F004042A280DD06FF02F0229
:102E90003078A0F13003092B09D807EB870302EB48
:102EA0004303C718761CF3E759F8047B761C307887
:102EB0006C280FD006DC4C2817D068280DD06A2863
:102EC00014D104E0742810D07A280FD10DE044F416
:102ED00000140AE044F4801401E044F440147278D1
:102EE000824202D104F58014761C761C3078662864
:102EF0000BD013DC582877D009DC002875D0452882
:102F0000F6D04628F4D047281AD19DE118E063286E
:102F100035D0642879D0652812D195E1702873D016
:102F200008DC6728F1D069286FD06E280DD06F2893
:102F300006D1B5E073282CD0752875D0782874D0C8
:102F40005A46179990476D1C75E1C4F30250022848
:102F500009D003280DD0D9F8001004280DD00D6039
:102F600009F1040967E1D9F80010EA17C1E9005234
:102F7000F6E7D9F800100D80F2E70D70F0E719F8C8
:102F8000041B8DF8001000208DF80100EA46012096
:102F900003E059F804AB4FF0FF3061074FF0000138
:102FA00002D40DE008F101018846B9420FDA8045EC
:102FB000F8DB1AF808100029F4D108E008F1010143
:102FC00088468142FADB1AF808100029F6D10598E4
:102FD0005B46A0EB080721463846179A00F094FAA2
:102FE000284400EB080507E04DE029E10DE01AF860
:102FF000010B5A4617999047B8F10108F7D25B4682
:1030000021463846179A13E142E00A220092C4F39F
:1030100002524FF0000A022A08D059F804CB032AC2
:103020004FEAEC710AD00DE029E02AE009F107012E
:1030300021F00702F2E802C1914609E00FFA8CFC88
:103040004FEAEC71042A03D14FFA8CFC4FEAEC7181
:10305000002907DA0A460021DCF1000C61EB0201CD
:103060002D2202E0220504D52B228DF80420012216
:1030700003E0E20701D02022F7E7904659E00A2159
:1030800002E010220DE010214FF0000A00910BE049
:1030900010224FF0000A44F004040827009203E0D5
:1030A00008224FF0000A0092C4F30252022A05D00F
:1030B00059F804CB0021032A08D009E009F10701DF
:1030C00021F00702F2E802C1914605E01FFA8CFCEC
:1030D000042A01D10CF0FF0C4FF00008220728D57C
:1030E000702806D0009B83F0100353EA0A0305D032
:1030F0000EE040228DF80420012208E05CEA010283
:1031000006D030228DF804208DF80500022290466A
:10311000009B83F0080353EA0A030AD15CEA010228
:1031200001D1620705D530228DF804204FF0010847
:103130007F1E582804D034A003900EA802900DE002
:1031400036A0F9E753466046009AFDF741F88446F9
:103150000398825C0298401E029002705CEA0100B3
:10316000F0D1029806A9081A00F1200A600702D5DA
:1031700024F4803400E00127574502DDA7EB0A0064
:1031800000E0002000EB0A01009005984144401A3D
:103190000590E00306D45B462146179A059800F097
:1031A000B3F90544002706E001A85A46C05D179907
:1031B00090476D1C7F1C4745F6DBE0030CD55B4652
:1031C0002146179A059800F09FF9054404E0302045
:1031D0005A46179990476D1C0099481E0090002987
:1031E000F5DC08E0029802995A460078491C0291E1
:1031F000179990476D1CBAF10001AAF1010AF1DCA0
:1032000065E10000092801003031323334353637AA
:103210003839616263646566000000003031323322
:1032200034353637383941424344454600000000C2
:1032300000F058F90544761C307800287FF4ECAD96
:1032400019B02846BDE8F08F620700D4062709F1BF
:10325000070222F0070CFCE80223E14603F00048D5
:103260005FEA080C02D00FF2702C0DE05FEA045CFC
:1032700002D50FF2682C07E05FEAC47C02D00FF29F
:10328000602C01E0AFF2700C4FF0FF3823F00043E8
:10329000CDF850C065280CD006DC452809D046285A
:1032A0001DD047283DD13DE0662818D067287ED143
:1032B00038E00021112F01DB112000E0781CCDE95E
:1032C000000106A90EA8FFF7DDFCDDE90F010E9A4B
:1032D00003910021009207F1010A04914DE04FF0A3
:1032E00000400097CDE9011006A90EA8FFF7CAFC1F
:1032F000DDE90F0203920E9B11990022DDF80CA06C
:103300000093049211B9791C00EB010AB7EB0A0093
:1033100004D4C0F1FF3007F1010A0490AAEB0700C2
:10332000019044E0012F00DA01270021112F01DD77
:10333000112000E03846CDE9000106A90EA8FFF7EC
:10334000A1FCDDE90F010E9A039100210491009286
:10335000BA4621070CD40399514500DA8A46BAF1DE
:10336000010F05DD009AAAF10101515C302908D056
:10337000B84202DA10F1040F06DA0121CDE901109A
:1033800015E0AAF10101E9E7002805DC04990144F0
:103390000491AAEB000102E0411C514500DD8A4680
:1033A0000499401A401C01904FF000400290200701
:1033B00004D40198504501DBCDF8048000208DF83D
:1033C0004F0002980DF14F07B0F1004F25D02B2090
:1033D0000E9002984FF0020800280CDA404202904A
:1033E0002D200E9007E00A210298FCF747FF3031AC
:1033F000029007F8011DB8F10001A8F10108F2DC04
:1034000002980028EFD1791E0E980870307800F0ED
:10341000200040F0450007F8020D12A8C01B00F183
:1034200007081498007800B1012000EB0A01019808
:1034300001EBE07105984144401A401E0590E003FD
:1034400006D45B462146179A059800F05DF80544BE
:103450001498007818B15A46179990476D1CE003EC
:1034600024D55B462146179A059800F04DF805448F
:103470001CE00498002807DBDDE90301884203DD36
:103480000098405C179901E0179930205A46904700
:10349000049805F10105401C04900198401E01901C
:1034A00004D12E205A46179990476D1CBAF100019D
:1034B000AAF1010ADDDC05E017F8010B5A4617995D
:1034C00090476D1CB8F10001A8F10108F4DC5B46DF
:1034D0002146179A0598ABE62D0000002B0000004E
:1034E000200000002DE9F041044600251E46174645
:1034F000880404D405E039462020B0476D1C641EC2
:10350000F9D52846BDE8F0812DE9F04104460025B3
:103510001E469046C80301D5302700E020278804C6
:1035200004D505E041463846B0476D1C641EF9D508
:103530002846BDE8F0810A68531C0B601070704784
:1035400010B51B4C9FED1B1A2DED028BB7EE008AB8
:1035500094ED050AC0EE010A94ED030A60EE800ABC
:10356000C4ED040A80EE201A31EE480A94ED011AE7
:1035700060EE010AC4ED060A80EE810AFFF7A0FAA8
:1035800094ED081AC0EE010A94ED020A88EE001AC2
:1035900070EE810A88EE200ADFED070A84ED070A43
:1035A00030EE600A84ED0A0ABDEC028B10BD00000B
:1035B0000000002000007F430080884310B50028F1
:1035C00021D0114B0022001F196803E0814203D86B
:1035D0000A4649680029F9D152B11368841A9C42FD
:1035E00004D1006818441060104602E0506000E00A
:1035F000186039B102680B1A934203D10B681A4460
:1036000002604968416010BD6400002008B5FEF703
:1036100081F82A484FF47A71284C016049004160D2
:10362000083440F26C70206040F21450606000205A
:10363000FEF746FFFFF794F8FEF790FE204801687A
:1036400041F4800101600068002200F480000090D5
:1036500011463820FEF7E6F83820FEF7D7F8FEF7D7
:1036600051FEFEF7BDFEFEF79FFE0122A4F10C0104
:103670001448FDF77FFB134800219C30FEF706FD40
:10368000104920689C3109684863204600F052F8D0
:10369000A4F11005B4F13C0495ED000A0748B8EE1A
:1036A000400A243884ED050AFFF74AFF034884EDF9
:1036B000090A103800F056F8EEE700003400002048
:1036C0003038024070000020F0B50B30154D20F06E
:1036D00007010024144A0FE003688B420BD38B428E
:1036E00005D95E1A43184768C3E9006700E04368DC
:1036F000136002C004E0021D10680028ECD12046CF
:10370000002802D1286808B10020F0BD064A074809
:103710001060074A121A22F00702C0E900240120B3
:103720002860D7E76800002064000020AC05002076
:10373000A80700202DE9F0410546084F084E04680F
:1037400005E0386844630A20FDF70AFD641F30680D
:1037500069688842F5D8BDE8F08100000C010020BE
:103760003408004008B50068FCF775FD41EC100B0B
:103770000BA153EC102B6846FFF78EF9FEF7B2FE53
:1037800008490870FEF7C0FF0A212820FEF7A4FEB2
:10379000012205496846FEF7A3FFFEF7B5FF08BD05
:1037A0002566000000000020440000200148401E63
:1037B000FDD1704790D003001CB502238DF8041092
:1037C0000A2100918DF80520014601AA0148FDF764
:1037D000D7FE1CBDB80000202DE9F84380461C46EA
:1037E00016460F46581CFFF76FFF0546077001206D
:1037F00005E0311811F8011C2954401CC0B2A04248
:10380000F7D90A20009023462A4641460348FDF78F
:10381000B7FE2846BDE8F843FFF7D0BEB800002049
:103820000000000000000000000000000000000098
:103830000000000000000000000000000000000088
:10384000000000000000000C000C000C000C000C3C
:10385000000C000C000C000C000C000C0000000C14
:10386000000C0000000000000000001B001B001BFB
:10387000001B001B00000000000000000000000012
:10388000000000000000000000000000000080199F
:10389000801980198019C07FC07F80190033C07FD4
:1038A000C07F00330033003300330000000000000D
:1038B0000000001E003F807580650074003C001E03
:1038C00000078005806580658075003F001E00044C
:1038D000000400000000007000D840D8C0D880D993
:1038E00000730006000C801BC036C066C046C006D0
:1038F00080030000000000000000001E003F0033B5
:1039000000330033001E000CC03CC0668063806141
:103910008063C03E801C0000000000000000000C1E
:10392000000C000C000C000C000000000000000067
:103930000000000000000000000000000000000087
:10394000800000010003000600060004000C000CCB
:10395000000C000C000C000C000400060006000324
:1039600000018000002000100018000C000C000472
:103970000006000600060006000600060004000C13
:10398000000C0018001000200000000C002D003F6B
:10399000001E0033000000000000000000000000D6
:1039A0000000000000000000000000000000000017
:1039B0000000000C000C000C000CC0FFC0FF000C4D
:1039C000000C000C000C00000000000000000000D3
:1039D00000000000000000000000000000000000E7
:1039E00000000000000000000000000C000C0004BB
:1039F00000040008000000000000000000000000BB
:103A0000000000000000001E001E0000000000007A
:103A100000000000000000000000000000000000A6
:103A20000000000000000000000000000000000096
:103A30000000000C000C000000000000000000036B
:103A4000000300030006000600060006000C000C40
:103A5000000C000C00180018001800000000000006
:103A60000000001E003F0033806180618061806D36
:103A7000806D8061806180610033003F001E000026
:103A80000000000000000006000E001E00360026A8
:103A900000060006000600060006000600060006F6
:103AA00000060000000000000000001E003F8073C0
:103AB00080618061800100030006000C0018003066
:103AC0000060807F807F0000000000000000001C7C
:103AD000003E006300630003000E000E000380013F
:103AE000800180618073003F001E00000000000024
:103AF00000000006000E000E001E001E001600361C
:103B000000360066807F807F000600060006000009
:103B1000000000000000007F007F00600060006087
:103B2000006E007F80638001800180618073003FB0
:103B3000001E0000000000000000001E003F803357
:103B400080610060006E007F8073806180618061B1
:103B50008033003F001E0000000000000000807F56
:103B6000807F80010003000300060006000C000CAB
:103B7000000C0008001800180018000000000000E9
:103B80000000001E003F8063806180610021001EF4
:103B9000003F8061806180618061003F001E000005
:103BA000000000000000001E003F00738061806183
:103BB00080618073803F801D800180610073003FC1
:103BC000001E0000000000000000000000000000D7
:103BD0000000000C000C00000000000000000000CD
:103BE0000000000C000C00000000000000000000BD
:103BF0000000000000000000000C000C00000000AD
:103C0000000000000000000C000C0004000400088C
:103C1000000000000000000080008003000E00385B
:103C200000600038000E80038000000000000000EB
:103C30000000000000000000000000000000807F85
:103C4000807F00000000807F807F00000000000077
:103C50000000000000000000000000000000000064
:103C600000400070001C000780010007001C00706D
:103C70000040000000000000000000000000001FE5
:103C8000803FC071C060C000C00180030007000E0B
:103C9000000C000C0000000C000C000000000000F4
:103CA0000000001E003F803180718063806F806D56
:103CB000806D806F806700600032003E001C000055
:103CC000000000000000000E000E001B001B001B87
:103CD000001B80318031803F803F8031C060C060F8
:103CE000C0600000000000000000007C007E006357
:103CF000006300630063007E007E0063806180617A
:103D00008063007F007E0000000000000000001EB5
:103D1000003F8031806100600060006000600060F2
:103D2000006080618031003F001E00000000000044
:103D30000000007C007F006380638061806180619F
:103D400080618061806100630063007E007C000010
:103D5000000000000000807F807F00600060006045
:103D60000060007F007F0060006000600060807F76
:103D7000807F0000000000000000807F807F0060E6
:103D8000006000600060007F007F006000600060F5
:103D90000060006000600000000000000000001EE5
:103DA000003F80318061006000600060806380635C
:103DB000806180618031803F001E000000000000B3
:103DC0000000806180618061806180618061807FAE
:103DD000807F80618061806180618061806100009E
:103DE000000000000000003F003F000C000C000C31
:103DF000000C000C000C000C000C000C000C003F30
:103E0000003F0000000000000000800180018001F0
:103E100080018001800180018001800180618061DA
:103E20008073003F001E0000000000000000C06022
:103E30008061006300660066006C0078007C0066AC
:103E40000066006380618061C060000000000000C7
:103E500000000060006000600060006000600060C2
:103E600000600060006000600060807F807F000074
:103E7000000000000000C071C071C07BC07AC06A41
:103E8000C06AC06EC064C060C060C060C060C06016
:103E9000C060000000000000000080718071807927
:103EA00080798079806D806D806D806580678067A6
:103EB0008067806380630000000000000000001E37
:103EC000003F00338061806180618061806180613A
:103ED000806180610033003F001E00000000000090
:103EE0000000007E007F806380618061806180636C
:103EF000007F007E006000600060006000600000E5
:103F0000000000000000001E003F0033806180615F
:103F10008061806180618061806580670033803F5F
:103F2000401E0000000000000000007E007F806353
:103F3000806180618063007F007E006600630063B3
:103F400080618061C0600000000000000000000E81
:103F5000001F8031803100300038001E00078003D0
:103F6000806180618031003F001E00000000000081
:103F70000000C0FFC0FF000C000C000C000C000C87
:103F8000000C000C000C000C000C000C000C0000DD
:103F900000000000000080618061806180618061BC
:103FA0008061806180618061806180618073003F99
:103FB000001E0000000000000000C060C060C06083
:103FC000803180318031001B001B001B001B000E64
:103FD000000E000E00040000000000000000C0C041
:103FE000C0C0C0C0C0C0C0C0C0CC804C804C805ECF
:103FF0008052805280738061806100000000000068
:104000000000C0C0806080610033003B001E000CD7
:10401000000C001E001F003B80718061C0C00000CA
:10402000000000000000C0C08061806100330033E8
:10403000001E001E000C000C000C000C000C000CFC
:10404000000C0000000000000000803F803F800165
:10405000000300030006000C000C001800180030DC
:104060000060807F807F000000000000000F000FD4
:10407000000C000C000C000C000C000C000C000CE0
:10408000000C000C000C000C000C000C000F000FCA
:104090000000001800180018000C000C000C000CA8
:1040A00000060006000600060003000300030000EF
:1040B00000000000001E001E0006000600060006AC
:1040C00000060006000600060006000600060006C0
:1040D00000060006001E001E0000000C000C001E62
:1040E0000012003300338061806100000000000096
:1040F00000000000000000000000000000000000C0
:1041000000000000000000000000000000000000AF
:10411000000000000000000000000000E0FF0000C0
:10412000000000380018000C000000000000000033
:10413000000000000000000000000000000000007F
:104140000000000000000000000000000000001F50
:10415000803F80618001801F803F80618063807F1D
:10416000C038000000000000000000600060006037
:104170000060006E007F807380618061806180617B
:104180008073007F006E000000000000000000004F
:10419000000000000000001E003F8073806100608E
:1041A000006080618073003F001E0000000000007E
:1041B00000008001800180018001801D803F8073AC
:1041C00080618061806180618073803F801D00001C
:1041D0000000000000000000000000000000001EC1
:1041E000003F00738061807F807F00608071003FAE
:1041F000001E0000000000000000C007C00F000CFF
:10420000000C807F807F000C000C000C000C000C68
:10421000000C000C000C000000000000000000007A
:1042200000000000801D803F80738061806180619C
:1042300080618073803F801D80018063007F003E2D
:1042400000000060006000600060006F807F80718F
:104250008061806180618061806180618061000037
:104260000000000000000006000600000000003E04
:10427000003E0006000600060006000600060006D6
:10428000000600000000000000060006000000001C
:10429000003E003E0006000600060006000600067E
:1042A0000006000600060046007E003C000000609C
:1042B000006000600060806100630066006C007C4C
:1042C0000076006300638061C060000000000000B1
:1042D0000000003E003E0006000600060006000644
:1042E00000060006000600060006000600060000A4
:1042F000000000000000000000000000000080DD61
:10430000C0FFC0CEC0CCC0CCC0CCC0CCC0CCC0CC18
:10431000C0CC000000000000000000000000000011
:104320000000006F807F80718061806180618061AA
:1043300080618061806100000000000000000000DA
:10434000000000000000001E003F8073806180615B
:10435000806180618073003F001E0000000000004B
:104360000000000000000000006E007F807380618C
:104370008061806180618073007F006E00600060FA
:10438000006000600000000000000000801D803F11
:10439000807380618061806180618073803F801D57
:1043A0008001800180018001000000000000000009
:1043B00000000067803F00390030003000300030DE
:1043C000003000300030000000000000000000005D
:1043D000000000000000001E803F80610060007F40
:1043E000803F80018061007F001E0000000000000F
:1043F00000000000000800180018007F007F00186F
:1044000000180018001800180018801F800F000006
:1044100000000000000000000000000000008061BB
:104420008061806180618061806180618063807F64
:10443000803D0000000000000000000000000000BF
:104440000000C060803180318031001B001B001BE8
:10445000000E000E0006000000000000000000003A
:1044600000000000000080DD80DD80DD005500558B
:1044700000550077007700220022000000000000B5
:1044800000000000000000000000806100330033E5
:10449000001E000C000C001E003300338061000081
:1044A000000000000000000000000000806180614A
:1044B000803100330033001B001B001B000E000E78
:1044C000000E001C007C00700000000000000000D6
:1044D0000000C07FC07F800100030006000C0018B0
:1044E0000030C07FC07F0000000000008003800714
:1044F00000060006000600060006000E001C001C58
:10450000000E000600060006000600068007800375
:10451000000600060006000600060006000600066B
:10452000000600060006000600060006000600065B
:10453000000600060038003C000C000C000C000CCB
:10454000000C000E00070007000E000C000C000C11
:10455000000C000C003C00380000000000000000CF
:104560000000000000008038807F0047000000004D
:10457000000000000000000000000000000610160F
:1045800000061016000000000000000001020304F5
:1045900006070809000000000102030400000000F3
:1045A0000030F13D0070643E0000A33E0090CF3E1D
:1045B0000090F83E00400F3F00E0203F0000000068
:1045C00015B78337CDE37B380EE1C53860F69138F7
:1045D000AF5F0F38E1BC3E3823F44739FC45000893
:1045E0000000002070000000582C00086C460008F5
:1045F00070000020380B0000682C0008000000004C
:104600000050C347331395430000404000000000B2
:1046100000000000000000000000000000C07F4516
:10462000000000000000000000000000000000008A
:10463000000000000000000000000000000000007A
:104640000B120000203800080000000000000000ED
:104650000100000010000000000000000024F40031
:0C4660000000000000000000000000004E
:040000050800019955
:00000001FF
