:020000040800F2
:10000000B80B0020AD0100089F210008C51C0008A6
:100010009D2100086D040008D7270008000000009B
:10002000000000000000000000000000952400080F
:100030002105000800000000C121000897240008E5
:10004000C7010008C7010008C7010008C701000870
:10005000C7010008C7010008C7010008C701000860
:1000600039050008C7010008C7010008C7010008DA
:10007000C7010008C7010008C7010008C701000840
:10008000C7010008C70100083D0300080000000088
:10009000000000000000000000000000C701000890
:1000A000C7010008C7010008C7010008C701000810
:1000B000C7010008C7010008C7010008C701000800
:1000C000C7010008C7010008C7010008C7010008F0
:1000D000C7010008C7010008C701000800000000B0
:1000E00023050008C7010008C70100080000000040
:1000F000000000000000000000000000C701000830
:1001000000000000C7010008C7010008C70100087F
:1001100000000000000000000000000000000000DF
:1001200071040008C7010008C7010008C7010008E2
:10013000C7010008000000000000000000000000EF
:10014000000000000000000000000000C7010008DF
:10015000C7010008C7010008C7010008C70100085F
:10016000C7010008C70100080000000000000000EF
:10017000000000000000000000000000000000007F
:1001800000000000C701000800000000000000009F
:10019000C7010008C7010008DFF80CD000F07AF8AA
:1001A00000480047A92A0008B80B002006488047ED
:1001B00006480047FEE7FEE7FEE7FEE7FEE7FEE74C
:1001C000FEE7FEE7FEE7FEE72D250008990100089F
:1001D0002DE9F05F0546002092469B46884606467C
:1001E000814640241BE0284641464746224600F00F
:1001F00041F853465A46C01A914110D31146184649
:10020000224600F028F82D1A67EB01084F462246D7
:100210000120002100F01FF817EB00094E41201EBD
:10022000A4F10104DFDC484631462A464346BDE8D6
:10023000F09FD2B201E000F8012B491EFBD27047BB
:100240000022F6E710B513460A4604461946FFF7A2
:10025000F0FF204610BD202A04DB203A00FA02F10C
:10026000002070479140C2F1200320FA03F31943A4
:1002700090407047202A04DB203A21FA02F0002146
:10028000704721FA02F3D040C2F1200291400843A6
:1002900019467047064C074D06E0E06840F0010340
:1002A00094E8070098471034AC42F6D3FFF778FF84
:1002B000683B0008883B000810B50146806B026C63
:1002C00012F0500F05D0806BC26CBDE8104008469C
:1002D0001047016C41F40071016401688A6812F0F2
:1002E000405F17D18269AAB9CA6A12F4700F02D0AE
:1002F0008A6852050ED44A6822F020024A60016CD6
:1003000021F480710164016CC90403D4016C41F0D3
:100310000101016400F0BEF910BD10B5806B4021F1
:100320000164416C41F00401416400F0C2F910BD68
:1003300010B5806B00F0BCF910BD0000014800F062
:10034000B9B9000064040020454910B54A6822F498
:1003500040324A604A6843681A434A6001684A6802
:1003600022F480724A6001684A68036942EA032203
:100370004A6001684A6822F040724A6001684A682F
:1003800083681A434A6001688A6822F400628A60BE
:1003900001688A68C3681A438A60816A6FF0706274
:1003A000D14201688A6822F070628A6001688A68B6
:1003B0000CD0836A1A438A6001688A6822F040522E
:1003C0008A6001688A68C36A1A4301E022F04052D9
:1003D0008A6001688A6822F002028A6001688A687D
:1003E000836942EA43028A60016A002901684A6817
:1003F0000FD042F400624A6001684A6822F4604209
:100400004A6001684A68174C436A04EB43331A4355
:1004100001E022F400624A600168CA6A22F47002B4
:10042000CA620168CA6A838B0F4C04EB03531A43F8
:10043000CA6201688A6822F400728A6001688A6868
:10044000036B42EA43228A6001688A6822F4806270
:100450008A6001688A68406942EA8020886010BD2D
:100460000023014000E0FFFF0000F0FFFEE7000076
:10047000014800F0BDBA00005405002001681823AF
:10048000CAB2103AB2FBF3F2054B6FF30901032A2B
:100490009B5CC36500D9091D816508467047000053
:1004A000083B000810B5014600208B698A6A4FF0AE
:1004B000C07453B1B3F5005F15D072B1012A0CD0EE
:1004C000022A0AD0032A09D104E01AB1012A06D06F
:1004D000022A03D1C96AC90100D5012010BDC96A29
:1004E000A142FAD010BD002AF7D0012AF2D0022A88
:1004F000F3D0032AF3D010BD30B50468256825F485
:1005000080252560046863608368402B036803D0FE
:1005100099600068C26030BD9A600068C16030BDFB
:10052000704710B54FF4806000F01AFCBDE8104031
:100530004FF4804000F014BC042000F011BC704760
:1005400078B50024009490F83C20012A19D00122AB
:1005500080F83C200A6807230568092A13D9EE6849
:100560000A3A02EB420293409E43EE600A788B689F
:100570000A3A02EB420293400268D5682B43D360EB
:1005800010E0022078BD2E6902EB420293409E43A8
:100590002E610A788B6802EB42029340026815696B
:1005A0002B4313614A681F23072A13D205686E6B19
:1005B000521E02EB820293409E436E630B790A88BF
:1005C0005B1E92B203EB83039A4003685D6B2A4380
:1005D0005A6327E005680D2A12D22E6BD21F02EB58
:1005E000820293409E432E630B790A88DB1F92B2EE
:1005F00003EB83039A4003681D6B2A431A6311E0DF
:10060000EE6A0D3A02EB820293409E43EE620B7952
:100610000A880D3B92B203EB83039A400368DD6ABC
:100620002A43DA62174B0568154A9D4206D10D68C8
:10063000122D03D1556845F48005556005689D422B
:1006400019D1114D0B68AB4201D0112B13D1536856
:1006500043F4000353600968A9420CD10B490C4ACA
:100660000968B1FBF2F101EB8101490000E0491E8C
:1006700000910029FBD180F83C40002078BD0000AB
:10068000002301400020014012000010540000200F
:1006900040420F0000680449884204D103480349DE
:1006A000091F0068086070470020014044000020D6
:1006B0007047704770B50446006801684268C1F32E
:1006C0004001C2F3401251B34AB3216CC90603D4AE
:1006D000216C41F400712164816811F0405F17D1F1
:1006E000A169A9B9C16A11F4700F02D081684905E6
:1006F0000ED4416821F020014160206C20F480700C
:100700002064206CC00403D4206C40F001002064FD
:100710002046FFF7BFFF21686FF0120008602068D5
:1007200001684268C1F38001C2F3C01289B382B389
:10073000216CC90603D4216C41F400512164816805
:1007400011F4401F1ED1816B11F4401F02D081684B
:10075000490517D44168490514D4816811F0405FF8
:1007600010D1A16971B9416821F080014160206C0C
:1007700020F480502064206CC00503D4206C40F02D
:10078000010020642046FFF7DAFE21686FF00C00BC
:10079000086020680168426811F0010FC2F38012FE
:1007A0000ED06AB10068C0070AD0206C40F48030D7
:1007B0002064204600F046F821686FF001000860D0
:1007C000206801684268C1F34011C2F380620029C9
:1007D0000DD0002A0BD0616C41F0020161646FF012
:1007E000200505602046FFF764FF2068056070BDA6
:1007F00070B504004FF0000503D0206C002610B146
:1008000007E0012070BD666484F83C60204600F07B
:100810001BF8206CC00610D4206C20F4885040F0E7
:10082000020020642046FFF78FFD6664206C20F0F4
:10083000020040F00100206400E0012584F83C60E3
:10084000284670BD7047000070B5064600681C4918
:1008500086B0884232D11B480025016841F480717E
:1008600001600068694600F48070059001200090E6
:100870000320CDE90105144800F07EFA144C13481A
:10088000C4E900050015A560C4E903508010656146
:10089000C4E9065025622046656200F079F918B176
:1008A00075210CA001F098FFB463002211461220BC
:1008B000A66300F0BBFD122000F0ACFD06B070BDD9
:1008C0000020014044380240000002401064024011
:1008D000540500202E2E2F5372632F73746D333204
:1008E000663478785F68616C5F6D73702E630000AA
:1008F000F8B50E4600210446009190F83C0001280E
:1009000007D0012084F83C0020688368DB0702D010
:1009100011E00220F8BD836843F0010383602D4895
:100920002D4B0068B0FBF3F000EB400000E0401EF0
:1009300000900028FBD120688368DB0748D0236C37
:1009400040F20165AB4343F4807323644068400583
:1009500005D5206C20F4005040F480502064206CB9
:10096000C00404D5606C20F00600606400E061649F
:1009700084F83C10A16B1A48184DC863A16B194844
:100980000864A16B1848C86421686FF022000860F1
:100990002068416841F0806141602068816841F4CD
:1009A000807181602168134632464C31A06B00F0A3
:1009B00059F96868C006206802D00C49884207D1FE
:1009C000816811F0405F03D1816841F0804181600E
:1009D0000020F8BD5400002040420F0000230140D9
:1009E000B9020008310300081B0300080020014081
:1009F0002DE9F84304464FF00009CDF80090634814
:100A00004FF41651A56D0068B0FBF1F72E6894F80D
:100A10005C10082000FA01F131420FD021680A6809
:100A200052070BD50A6822F004020A6094F85C10A1
:100A30008840A860606D40F00100606594F85C102B
:100A40004FF0010808FA01F0304208D021684969E6
:100A5000090604D5A860606D40F00200606594F856
:100A60005C1004208840304208D02168096889075A
:100A700004D5A860606D40F00400606594F85C10D7
:100A800010208840304218D021680968090714D521
:100A9000A86020680168490304D50068000308D5F0
:100AA000A16C07E00168C90503D4016821F00801C1
:100AB0000160216C09B12046884794F85C10202021
:100AC0008840304231D021680968C9062DD5A86018
:100AD00094F8350005282068016806D0490347D5F9
:100AE000006800031DD4616C1CE021F01601016058
:100AF0002068416921F080014161206C08B9A06C37
:100B000020B12068016821F00801016094F85C10B0
:100B10003F208840A86084F8349084F83580216DA7
:100B20001FE0E16B09B120468847606D00282BD09B
:100B3000606DC00714D0052084F835002068016876
:100B400021F0010101600098401C0090B84203D8D8
:100B500020680068C007F6D184F8349084F83580A6
:100B6000E16C002910D001B02046BDE8F0430847F1
:100B70000168C905D5D4016821F01001016084F82D
:100B8000349084F83580CCE7BDE8F8835400002029
:100B90002DE9F041044600F0BDF906465CB10025A0
:100BA00084F83450022084F835002068016821F070
:100BB000010101600DE00120BDE8F08100F0AAF91B
:100BC000801B052805D920206065032084F83500A6
:100BD000F2E720680068C007F0D122681168204859
:100BE0000140D4E901031843D4E9033633431843E1
:100BF00063691843A3691843E3691843236A1843D8
:100C00000843616A042903D1D4E90B13194308434B
:100C1000106020684069666A20F0070130460E4384
:100C2000012704280CD1A06A0643E06A40B120469F
:100C3000FFF738FC20B14020606584F83570BAE7D2
:100C4000206846612046FFF719FC94F85C203F219C
:100C500091408160656584F835700020ACE7000044
:100C60003F8010F02DE9F0410446866D90F8340085
:100C7000002501280DD0012084F8340094F8357047
:100C80000020012F07D084F8340002252846BDE853
:100C9000F0810220FBE7022784F83570606520466A
:100CA000FFF72AFC94F85C103F208840B060206871
:100CB000016841F0160101602068416941F080013E
:100CC0004161206C20B12068016841F00801016099
:100CD0002068016841F001010160D7E770B5044662
:100CE00000F018F90546601C02D00448007804445E
:100CF00000F010F9401BA042FAD370BD480000205C
:100D000010B5144B144CB0F5806F0BD0042813D0E1
:100D1000B0F5804F14D0022803D1207980F0010073
:100D2000207110BD01228021184600F0EDF82078D6
:100D300080F00100207010BD4FF40061074805E00D
:100D4000E078402180F00100E0701846BDE81040D6
:100D500000F0D6B80008024010000020000C02404D
:100D6000044910B50A68024202D00860FFF7C8FFC4
:100D700010BD0000143C01402DE9F84FDFF860B1D0
:100D800000224FF001084FF0030A4FF00F090BF15A
:100D9000040E00BF0B6808FA02F42340A3426ED190
:100DA0004D68022D01D0122D0ED1D50800EB850C17
:100DB000DCF820505607F70E09FA07F6B5430E691E
:100DC000BE402E43CCF82060066855000F790AFA21
:100DD00005FC07F0030726EA0C06AF40374307601F
:100DE0004E68012E05D0022E03D0112E01D0122EF6
:100DF0000ED18668CF6826EA0C06AF40374387607D
:100E00004668A6430C79C4F300149440344344600C
:100E1000C6688C6826EA0C06AC403443C4604C6853
:100E2000E40056D52F4C256845F48045256024689C
:100E300022F0030504F4804400942B4C2E19D6F8BC
:100E4000084895072F0F09FA07F5AC43274DA8422C
:100E500001D1002515E0264DA84201D1012510E061
:100E6000244DA84201D102250BE0234DA84201D117
:100E7000032506E0214DA84202D1042501E028E027
:100E80000725BD402543C6F80858DBF800405D46FD
:100E90004E689C43F60300D51C432C60DEF80040EE
:100EA00075464E689C43B60300D51C432C600C4D20
:100EB00008352C684E689C43F60200D51C432C6014
:100EC000074D0C352C684E689C43B60200D51C4378
:100ED0002C60521C102AFFF45DAFBDE8F88F0000B3
:100EE000003C014044380240003001400000024014
:100EF0000004024000080240000C024000100240C2
:100F000042694A40426170470AB1816170470904F1
:100F1000FBE700000148806870470000480000209F
:100F200070B5040004D094F83D00002510B106E02F
:100F3000012070BD84F83C50204600F0C1F9242007
:100F400084F83D002068016821F00101016000F093
:100F50003DFB33492268B0FBF1F15160314A6368CF
:100F6000934206D94FF4967359434FF47A73B1FB09
:100F7000F3F12368491C1962616891420BD849005A
:100F8000B0FBF1F2C2F30B02042A01D2042019E0F3
:100F9000B0FBF1F016E0A3689BB301EBC10202EBDA
:100FA0000112B0FBF2F242F48042120530D04BB392
:100FB00001EBC10202EB0111B0FBF1F040F4804003
:100FC00040F400402168C861D4E907010843216862
:100FD0000860D4E90310084321688860D4E905015A
:100FE00008432168C8602068016841F00101016080
:100FF0002564202084F83D00256384F83E500020BD
:1010000070BD00E006E001EB4102B0FBF2F2CCE77C
:101010000120D7E701EB4101B0FBF1F0D0E7000080
:1010200040420F00A08601002DE9FF4F81B0994694
:101030008B4604464FF00108FFF76CFF054694F815
:101040003D0020287BD1192301224D4920460095DF
:1010500000F0BFFE002872D194F83C0001286ED049
:10106000012084F83C0020680168C90703D10168A9
:1010700041F0010101602068016821F40061016014
:10108000242084F83D00002626643E48E0622027A4
:101090002068016841F4807101604B4600224FF0E6
:1010A00001112046009500F094FE002858D12168D7
:1010B0000BF0FE000861FFF72DFF21680546486927
:1010C0004969C0F3400094F83D20C1F380214FF0FE
:1010D000A00A12E0B9F1000F04D0FFF71BFF411B7B
:1010E000494501D984F83DA0216848694969C0F3A0
:1010F000400094F83D20C1F38021084301D1A02A8B
:10110000E8D184F83D7020684169C943890717D444
:10111000016841F400710160206841698069192308
:10112000012217492046009500F053FEC0B984F80B
:101130003D7084F83C60002005B0BDE8F08F1DE0F4
:10114000016841F40071016021686FF480604861BA
:10115000192301220A492046009500F03AFE08B101
:101160000320E9E74146039808F1010881428FD343
:1011700084F83D7084F83C600120DDE70220DBE765
:10118000020010000000FFFF2DE9F84F1F469046B7
:101190008A460446DDF82890FFF7BCFE064694F820
:1011A0003D0020287ED11923012243492046009684
:1011B00000F00FFE00287DD194F83C00012879D082
:1011C000012084F83C0020680168C90703D1016848
:1011D00041F0010101602068016821F400610160B3
:1011E000212084F83D00102084F83E00002525646D
:1011F000C4F8248067853148E062608D20853346DD
:101200004A465146204600F073FD28B1206C84F810
:101210003C5004284CD00DE0206841698069009062
:1012200030E032464946204600F048FE28B1206CA6
:10123000042838D00320BDE8F88F606A411C616241
:10124000216800780861608D401E6085208D401EF9
:1012500080B2208521684A69D24352070BD450B12D
:10126000606A421C626200780861608D401E608581
:10127000208D401E208532464946204600F082FDE2
:101280000028D4D1208D0028CBD154F83D0B016823
:1012900041F400710160202004F81E09E5776577AC
:1012A0000020C8E706E02068016841F40071016091
:1012B0000120C0E70220BEE7020010000000FFFF8F
:1012C00000B500680E4987B0884216D1C020009052
:1012D000122001900120029003200390042004902A
:1012E00069460848FFF748FD0748016841F40011C6
:1012F0000160006800F40010059007B000BD000018
:101300000054004000040240403802400248816816
:101310000278114481607047480000200B4810B5E6
:10132000016841F400710160016841F4806101606D
:10133000016841F480710160032000F097F80020FB
:1013400000F006F800F024F8002010BD003C024038
:1013500070B50D4D04464FF47A712878B1FBF0F06A
:101360000A490968B1FBF0F000F00DFB48B9102CF8
:1013700007D200222146501E00F058F800206C6071
:1013800070BD012070BD0000480000205400002006
:101390001F4808B5016841F480410160006800F40D
:1013A000804000901A48001F016841F080510160A0
:1013B000006800F080500090032000F057F80022F1
:1013C00011466FF00B0000F031F8002211466FF06B
:1013D0000A0000F02BF8002211466FF0090000F01F
:1013E00025F800221146501F00F020F80022114677
:1013F000101F00F01BF800221146901E00F016F896
:101400000022BDE808401146501E00F00FB8000051
:101410004438024000F01F02012191404009800041
:1014200000F1E020C0F8001170470000F0B40E4B4E
:101430001B680C46C3F30223C3F10705042D00D932
:101440000425191D072901D2002300E0DB1E012617
:1014500006FA05F1491E214099409E40761E16402D
:101460003143F0BC00F09CBE0CED00E0064900F0FA
:10147000070208684FF6FF03184040EA0220034ABB
:1014800010430860704700000CED00E00000FA0512
:101490002DE9F0470E46050065D0DFF81481D8F835
:1014A0000000F7B200F00F00B04207D288F80070D9
:1014B000D8F8000000F00F00B04254D128683D4C2D
:1014C000810712D5400703D5206840F4E050206022
:1014D0002878000703D5206840F460402060206829
:1014E000A96820F0F000084320602878C0072DD0BC
:1014F000304968680839012812D0022813D003281F
:1015000011D00968890700292DDA216821F003012B
:1015100001432160FFF7FEFC814641F2883A0EE06C
:1015200009688903EFE709688901ECE7FFF7F2FC36
:10153000A0EB0901514502D90320BDE8F0872068DE
:10154000696800F00C00B0EB810FEFD1D8F8001003
:10155000404601F00F01B14207D90770006800F062
:101560000F00B04201D00120E7E72878400705D5F9
:101570002068E96820F4E0500843206028780007DC
:1015800006D52068296920F4604040EAC100206047
:1015900000F02CF82168084AC1F30311515CC840DF
:1015A000064908600020FFF7D3FE0020C5E70000D1
:1015B000003C024008380240103B00085400002064
:1015C00001480068704700005400002004480549A5
:1015D00000680968044AC1F38221515CC840704721
:1015E0005400002008380240203B0008154810B580
:1015F000006810F00C02144813D01449042A0FD0CC
:10160000082A0ED10F4C241F2268236802F03F02E3
:101610005B0207D52068C0F38810A0FB010106E03B
:10162000084610BD2168C1F38811A1FB0001002309
:10163000FEF7CEFD2168C1F30141491C4900B0FB12
:10164000F1F010BD083802400024F40040787D011C
:101650002DE9F84F050076D02878DFF8F8B2BE4CB7
:10166000C00749D0DBF800105846C1F381010129B9
:1016700008D00068C0F3810002280AD1201D00684C
:10168000400206D52068800336D568680028E2D07D
:1016900032E06868B0F5803F10D0B0F5A02F206828
:1016A00010D020F480302060206820F4802020605A
:1016B0006868A0B1FFF72EFC06460CE0206840F4F5
:1016C0008030F4E740F480202060F7E7FFF722FC49
:1016D000801B642873D820688003F7D50CE0FFF7DF
:1016E00019FC064605E000BFFFF714FC801B6428C8
:1016F000F0D820688003F7D42878DFF8608280076C
:101700004FF000093ED5DBF80010584611F00C0FE1
:1017100009D00068C0F3810002280BD18D48001F5A
:101720000068400206D42068800715D5E8680128C3
:1017300009D111E0E868B8B10120C8F80000FFF74E
:10174000E9FB064605E002E1FFF7E4FB801B022807
:10175000C0D820688007F7D52068296920F0F800F4
:1017600040EAC10020600DE0C8F80090FFF7D2FB0E
:10177000064604E0FFF7CEFB801B02281FD8206836
:101780008007F7D42878000722D5724E744869691B
:101790006C3671B101210160FFF7BCFB074604E024
:1017A000FFF7B8FBC01B022809D830688007F7D5BF
:1017B0000EE0C0F80090FFF7ADFB074605E083E0C0
:1017C000FFF7A8FBC01B02287ED830688007F7D43B
:1017D0002878400768D5DFF87CA100270AF1380A8D
:1017E000DAF80000C0000BD4DAF8001041F08051A4
:1017F000CAF80010DAF80000012700F080500090CD
:10180000584E3068C00510D4306840F480703060A5
:10181000FFF780FB009005E0FFF77CFB0099401A82
:10182000022851D83068C005F6D54A4EA8686836F7
:1018300001280FD00528306810D020F0010030605A
:10184000306820F004003060A868B8B1FFF762FB90
:1018500000900FE0306840F00100F4E740F0040031
:101860003060F7E7FFF756FB0099411A41F28830E4
:10187000814264D830688007F4D50EE0FFF74AFB58
:10188000009007E0FFF746FB0099411A41F28830CB
:10189000814254D830688007F4D42FB1DAF80010B0
:1018A00021F08051CAF80010A869C0B3DBF800101D
:1018B000C1F3810102294AD00228484607D0C8F85E
:1018C0006000FFF727FB00E039E005463AE04746B5
:1018D000C8F86000FFF71EFB064604E0FFF71AFB9E
:1018E000801B02282BD820688001F7D4D5E9070196
:1018F0000843A96A1C4A490802EB01416A6A41EAA5
:101900008211084395F82C1040EA01611148001F2C
:10191000016001203866FFF7FDFA054605E014E096
:10192000FFF7F8FA401B022809D820688001F7D594
:101930000BE000BFFFF7EEFA401B022802D903209C
:10194000BDE8F88F20688001F4D40020F8E701207A
:10195000F6E7000008380240003802400000474225
:10196000800E4742007000400000FFFF4FF0E02172
:101970000428086903D020F004000861704740F093
:101980000400FAE7704710B5401EB0F1807F01D324
:10199000012010BD4FF0E02460610F21601700F0BE
:1019A000FFFB0020A06107202061002010BD10B5C2
:1019B000FFF7E8FF10BD30B590F83820012A20D09D
:1019C000012280F83820022380F8393003685C68EF
:1019D00024F070045C6003685C680D682C435C60F4
:1019E00003689C6824F080049C6003689C684968D4
:1019F0000C439C6080F83920002180F8381008469C
:101A000030BD022030BD10B5040003D094F8390079
:101A100010B107E0012010BD002084F838002046F6
:101A200000F00CF8022084F83900211D206800F035
:101A3000A7FD012084F83900002010BD08B500681A
:101A40000649884208D10648016841F00401016056
:101A5000006800F00400009008BD0000000800408D
:101A60004038024070B5044690F83800012817D07D
:101A7000012584F83850022084F8390020688268F3
:101A800022F0770222F47F4282600868502837D023
:101A90000DDC202859D005DC88B3102841D151E055
:101AA000022070BD302853D040283AD13FE0602852
:101AB0002ED070280BD0B0F5805F03D0B0F5005F5A
:101AC0002FD110E02068816821F0070115E0CB6874
:101AD000D1E90121206800F0A6FD2168886840F066
:101AE000770088601DE0CB68D1E90121206800F013
:101AF0009AFD2068816841F48041816011E01EE018
:101B0000CA684968206800F043FE5021206806E05A
:101B1000CA684968206800F04CFE6021206800F027
:101B20008CFD84F83950002084F8380070BDCA68F4
:101B30004968206800F02CFE40212068EFE7002172
:101B40002068ECE710212068E9E720212068E6E71B
:101B500030212068E3E7000000B50068094985B03E
:101B600088420DD14FF44050009002200121CDE970
:101B700001010021CDE9031069460348FFF7FCF895
:101B800005B000BD00080040000C024070B50446DE
:101B900090F838000D4601280DD0012684F83860F1
:101BA000022084F8390042B1042A18D0082A2AD029
:101BB0000C2A4DD139E0022070BD206800F046FDAE
:101BC0002068816941F0080181612068816921F004
:101BD00004018161206881692A69114311E020684C
:101BE00000F05CFD2068816941F40061816120683A
:101BF000816921F480618161206881692A6941EAF3
:101C00000221816124E0206800F074FD2068C16930
:101C100041F00801C1612068C16921F00401C1617E
:101C20002068C1692A69114311E0206800F08EFD27
:101C30002068C16941F40061C1612068C16921F473
:101C40008061C1612068C1692A6941EA0221C161DC
:101C500084F83960002084F8380070BD10B50400A5
:101C600003D094F8390010B107E0012010BD002026
:101C700084F83800204600F00CF8022084F839007F
:101C8000211D206800F07CFC012084F83900002030
:101C900010BD704710B504460068012200F0B8FC82
:101CA00007492068884203D1416C41F400414164F6
:101CB0002068016841F001010160002010BD0000B2
:101CC00000000140FEE701684A69D24352050CD486
:101CD0006FF480624A6104210164002140F8301FE2
:101CE00020224273017301207047002070470000DA
:101CF000F8B50446C06A1E460D461746042807D0AC
:101D0000012805D010F5803F02D0206B122804D1A5
:101D10002068016841F480710160134600224FF091
:101D200001112046009600F054F8A0B92069B0F5E2
:101D3000804F12D00620216800EAD51040F0F00054
:101D4000086133463A460E49204600F073F838B130
:101D5000206C042811D00320F8BD05F0FE0000E03F
:101D6000E8B221680861064933463A46891F204691
:101D700000F060F80028EBD1F8BD0120F8BD0000AC
:101D80000800010070B516460D4604461AE02046CC
:101D9000FFF799FF08B1012070BD681C12D025B172
:101DA000FFF7B8F8801BA8420CD954F8400F40F058
:101DB000200044F810090020206020216173207366
:101DC000032070BD20684069C0434007DFD4002075
:101DD00070BD2DE9F0471E4690460D460446C1F3FE
:101DE0000747DDF8209012E0701C10D02EB1FFF7ED
:101DF00091F8A0EB0900B04209D9002044F8300F57
:101E000020216173A07320730320BDE8F087206850
:101E1000012F0AD0806925EA00000004000C06D0DA
:101E200000214145E0D00020EFE74069F3E70121C0
:101E3000F7E700002DE9F0479A4691460D46044623
:101E400000264FF02008C1F307472AE020684069C8
:101E5000C043400512D42068016841F4007101605C
:101E600021686FF48060486104202064266384F850
:101E70003D8084F83C600120BDE8F087B9F1FF3F68
:101E80000FD0B9F1000F05D0FFF744F8A0EB0A011D
:101E9000494506D944F8306F84F80D802673032035
:101EA000EAE72068012F07D0D0F8180025EA0000E3
:101EB0000004000CE0D0C9E74069F7E770B51646AA
:101EC0000D4604461AE02046FFF7FDFE08B101204A
:101ED00070BD681C12D025B1FFF71CF8801BA8420A
:101EE0000CD954F8400F40F0200044F810090020AD
:101EF0002060202161732073032070BD2068406939
:101F0000C0430006DFD4002070BD00007FB5134839
:101F10001149002501604FF4403141600561012401
:101F200005624FF00071846181600D49C0E90A15B6
:101F3000C4610463C5604461FEF75AFC00B1FEE76A
:101F400007200095CDE9014069460448FEF7F8FAFC
:101F5000002800D0FEE77FBD00200140640400207F
:101F60000100000F2DE9F04F554887B000240168AB
:101F700041F080010160016801F080010591016874
:101F800041F001010160016801F001010591016862
:101F900041F008010160016801F008010591016844
:101FA00041F004010160016801F00401059101683C
:101FB00041F002010160016801F002010591016830
:101FC00041F0100101600068012200F01000DFF80C
:101FD000F4A05602059031465046FEF795FF4FF4A7
:101FE0000068002241465046FEF78EFFDFF8D8B069
:101FF0000022C0215846FEF787FF4FF48079002267
:1020000049463248FEF780FF042000903048012501
:10201000CDE9010569462D48FEF7AEFECDE9006524
:102020000226CDE9026469465046FEF7A5FE294F17
:102030004FF48840CDE90007694602955046FEF707
:102040009BFECDF80080CDE90154694650460394CB
:10205000FEF792FE4020CDE90005CDE90254694625
:102060005846FEF789FE80200090CDE9015469466C
:1020700058460394FEF780FECDF80090CDE9015458
:10208000694612480394FEF777FE0096CDE9017485
:1020900069461148FEF770FE002211460820FFF73E
:1020A000C5F90820FFF7B6F9002211462820FFF7EE
:1020B000BDF92820FFF7AEF907B0BDE8F08F0000AA
:1020C00030380240000C024000080240000002408C
:1020D0000000211000001110001002400B4810B544
:1020E000094901600A49416000214FF48042816042
:1020F000C0E9031241618161C1610162FEF710FF15
:10210000002800D0FEE710BD00540040AC040020C1
:10211000801A060010B520488EB01E4901601021BB
:102120000024C0E9011444F61F61C0E90314FFF75D
:102130006AFC00B1FEE74FF48050079007A91648EB
:10214000FFF790FC00B1FEE71348FFF787FD00B1F1
:10215000FEE70B940BA910480C94FFF72CFC00B180
:10216000FEE76020CDE900040294002269460A4897
:102170000494FFF70BFD00B1FEE704226946064810
:10218000FFF704FD00B1FEE70348FFF7E5FC0EB0E2
:1021900010BD00000008004000050020FEE7704769
:1021A0000907090E002806DA00F00F0000F1E02010
:1021B00080F8141D704700F1E02080F8001470478B
:1021C0007047000070B5802813D2402911D20B4B04
:1021D000012401F007051E79AC40094BC90800EB4A
:1021E000C1100EB132B101E0012A03D0195CA14344
:1021F000195470BD195C2143FAE700000800002063
:102200006400002028B1FF224FF480610248FEF7ED
:1022100010B80022F8E7000064000020014A108096
:10222000518070470800002010B500F07BFD44F697
:102230002063012278215148FEF7F6FE08B1002004
:1022400010BD40F6C210401EFDD1AE220021782004
:1022500000F06EFD20220021782000F069FD1022A0
:102260000021782000F064FDB0220021782000F0E9
:102270005FFDC8220021782000F05AFD002211469F
:10228000782000F055FD10220021782000F050FD4C
:1022900040220021782000F04BFD8122002178208F
:1022A00000F046FDFF220021782000F041FDA12230
:1022B0000021782000F03CFDA6220021782000F0CB
:1022C00037FDA8220021782000F032FD3F220021B6
:1022D000782000F02DFDA4220021782000F028FDB8
:1022E000D3220021782000F023FD0022114678201F
:1022F00000F01EFDD5220021782000F019FDF0220B
:102300000021782000F014FDD9220021782000F06F
:102310000FFD22220021782000F00AFDDA220021A0
:10232000782000F005FD12220021782000F000FD49
:10233000DB220021782000F0FBFC20220021782005
:1023400000F0F6FC8D220021782000F0F1FC142230
:102350000021782000F0ECFCAF220021782000F072
:10236000E7FC0020FFF74EFF00F070F80448002162
:102370000180418001214171084610BDAC0400205C
:10238000080000202DE9F047814625480D46924679
:1023900001882A781144802905D2804640886978CE
:1023A0000844402802D30020BDE8F08700262AE038
:1023B000A9F1200111FB00606A68002432F8107056
:1023C0001DE000BF07FA04F0000409D5B8F80210B8
:1023D000B8F800003144204489B280B252460BE084
:1023E000BAF1000F1AD00022B8F80210B8F80000B5
:1023F0003144204489B280B2FFF7E4FE641C28789F
:10240000A042DFD8761C6878B042D1D8B8F8001066
:102410002A7848461144A8F80010C5E70122E3E7EE
:102420000800002070B515460E46044609E02A460D
:102430003146FFF7A7FF2178884201D0C8B270BDAE
:10244000641C20780028F2D1C0B270BD70B5104D68
:10245000002400BF04F1B000C2B20021782000F0D7
:1024600067FC00221146782000F062FC1022002157
:10247000782000F05DFC05EBC41280234021782019
:1024800000F066FC641CE4B2082CE3D370BD0000CD
:1024900064000020704710B5FEF738FFBDE810401B
:1024A000FFF785BA10B51F4892B00024016841F0CB
:1024B00080510160006800F0805011901A48016856
:1024C00041F4404101600068069400F440401190DE
:1024D0000220009001200390102004906846FFF72E
:1024E000B7F800B1FEE70F20CDE90C040E940F946D
:1024F00000210CA81094FEF7CBFF00B1FEE7FFF718
:102500005FF84FF47A71B0FBF1F0FFF73CFA04206A
:10251000FFF72CFA00221146501EFEF787FF12B07B
:1025200010BD0000403802400070004010480168B3
:1025300041F4700101600F48016841F00101016040
:102540000C4A00210832116002680B4B1A400260ED
:10255000031D0A4A1A60026822F4802202600548BC
:102560000C3001600249580680390860704700004D
:1025700088ED00E000380240FFFFF6FE1030002436
:10258000F0B502681B4B1C4C9F031C4D1C4E98421F
:1025900007D0B84205D0A04203D0A84201D0B04233
:1025A00004D122F0700C4A6842EA0C02984210D022
:1025B000B8420ED0A0420CD0A8420AD0B04208D0F7
:1025C000104CA04205D0104CA04202D00F4CA042AB
:1025D00003D122F44074CA68224302608A68C2624E
:1025E0000A688262984201D109690163012141614F
:1025F000F0BD000000000140000400400008004061
:10260000000C0040004001400044014000480140EF
:1026100010B50123046A8B409C430462036A8A401C
:102620001343036210BD10B5846842EA032224F408
:102630007F440A432243826010BD826822F0700208
:102640000A4342F0070181607047000030B5026A1A
:1026500022F001020262026A4368846924F0730571
:102660000C682C4322F002058A682A430A4DA842CE
:102670000BD122F00805CA6823F440732A434D6940
:1026800022F004021D438B692B4343608461496837
:102690004163026230BD00000000014030B5026AB3
:1026A00022F010020262026A436884690D6824F411
:1026B000E64444EA05248D6822F0200242EA05122D
:1026C0000B4DA8420ED1CD6822F0800242EA0512DD
:1026D0004D6923F4406343EA85038D6922F040028B
:1026E00043EA85034360846149688163026230BDC7
:1026F0000000014030B5026A22F480720262036A6F
:102700004268C46923F4007324F073050C682C43F9
:102710008D6843EA05230C4DA8420ED1CD6823F401
:10272000006343EA05234D6922F4405242EA051250
:102730008D6923F4806342EA05124260C4614968EE
:10274000C163036230BD00000000014030B5026A81
:1027500022F480520262046A4268C3690D6823F45D
:10276000E64343EA05238D6824F4005444EA053423
:10277000064DA84204D14D6922F4804242EA8512F6
:102780004260C36149680164046230BD00000140D9
:1027900010B5036A046A24F001040462846924F019
:1027A000F00444EA021423F00A020A43846102623C
:1027B00010BD10B5036A23F0100303628369046A35
:1027C00023F4704343EA023224F0A00343EA0111E8
:1027D0008261016210BDFEE7FEE7000010EE100A04
:1027E00010B50023A0F50001B1F1FE4F67D200BF84
:1027F00000F500216FF07E0202EBE15CC1F30252B2
:102800004FF07E5101EB025100EE901AA0EBCC503C
:1028100003EB0C0100EE100A51EA020036D030EE54
:10282000601A70EE200A9FED3D2A3E4881EE200A94
:102830009FED3B1A60EE000A00EE821A60EE201A4D
:1028400061EE810A784401EE101A00EB82009FEDE0
:10285000362AB8EEC11AD0ED001A344841EE021AF9
:10286000784401EE101A00EB8200B8EEC11A90ED28
:10287000002ADFED2F2A01EE222AB0EE001A72EEB6
:10288000200A40EE010A31EEA00A10BDF7EE000A60
:102890009FED291A30EE600ADFED260A00EE201ABD
:1028A000DFED260A60EE001A40EE010A9FED241AC1
:1028B00000EE201A61EE810A30EE200A10BD4FF0C2
:1028C0007F41B1EB400F03D2BDE8104000F046B8A5
:1028D000B0F1FF4F08BF10BDB5EEC00AF1EE10FA1F
:1028E00006D2012000F056F8BDE8104000F03AB8DA
:1028F000B5EEC00AF1EE10FA07D1022000F04AF856
:1029000000F022F8B1EE400A10BDDFED0E0A6FF0C4
:10291000160320EE200A10EE100A69E766F1CC3E9D
:10292000AAAA2A3FE01200000070313FE412000022
:10293000F4FD053821ED423E0A1180BEC1ABAA3E2E
:10294000FFFFFFBE0000004BDFED030AB7EE001AE9
:1029500081EE200A704700000000000030EE000AFF
:1029600070470000DFED020A80EEA00A7047000009
:102970000000000002E008C8121F08C1002AFAD1B6
:1029800070477047002001E001C1121F002AFBD1EF
:102990007047000001490860704700006000002097
:1029A00010B500224FF400710348FEF7ADFA034959
:1029B0000120487010BD0000000C024010000020F3
:1029C00010B51B4C9FED1B1A2DED028BB7EE008A44
:1029D00094ED060AC0EE010A94ED040A60EE800A46
:1029E000C4ED050A80EE201A31EE480A94ED021A71
:1029F00060EE010AC4ED070A80EE810AFFF7EEFEE1
:102A000094ED091AC0EE010A94ED030A88EE001A4B
:102A100070EE810A88EE200ADFED070A84ED080ACD
:102A200030EE600A84ED0B0ABDEC028B10BD000095
:102A30001000002000007F430080884310B5012271
:102A400051020348FEF760FA02490020487010BDA9
:102A5000000C02401000002010B5002821D0114BBE
:102A60000022001F196803E0814203D80A46496822
:102A70000029F9D152B11368841A9C4204D100682C
:102A800018441060104602E0506000E0186039B150
:102A900002680B1A934203D10B681A44026049681A
:102AA000416010BD5800002008B500228021744804
:102AB000FEF72AFAFFF7B8FB724D6871FFF7C6FC04
:102AC0000A212820FFF7AAFB01226F496FA0FFF718
:102AD000A9FCFFF7BBFCFEF721FC704E40F26C70C6
:102AE0004FF47A78C6E90008B06006F10C044FF4A0
:102AF000E16040F21451C4E90001A06000224FF4EB
:102B000000716748FEF700FAFFF78EFB687100203E
:102B1000FFF778FBFFF79AFC0A212820FFF77EFBDE
:102B2000012259495FA0FFF77DFC1E212320FFF7FA
:102B300075FB012254495DA0FFF774FCFFF786FC8A
:102B4000FFF7B0FCFFF70EFA5A484FF00009016892
:102B500041F48001016000684A4600F48000009062
:102B600049463820FEF762FC3820FEF753FCFFF799
:102B7000CDF9FFF7CFFAFFF7B1FA012205F13401E1
:102B8000A4F1E400FDF7B4FE0021A4F14800FFF732
:102B900081F80421A4F14800FFF77CF8A4F1480073
:102BA00021680268516300683168816305F130076C
:102BB000344897ED000A2C30B8EE400A85ED060A3D
:102BC000FFF7FEFE85ED0A0A28790028F0D1E878A3
:102BD000C8BB2878B8B3687898B9D4E901018142B4
:102BE00004D1FFF7DDFE4046FEF778F8D4E9011086
:102BF000884204D9401EA0600120FEF76FF8687873
:102C000008B3A87810BBD6E90110884204D9401E49
:102C1000B0600120FEF762F82168A068884204D203
:102C2000401CA0600120FEF759F8D6E9010181425D
:102C30000AD12168A068884206D1C820FEF74EF864
:102C40000120A87002E014E0A87890B1A068401EAE
:102C5000A0600120FEF742F8D4E90101814208D1C9
:102C60004046FEF73BF8FFF7E9FE85F8029085F84D
:102C700000900A4901F10C0000F08EF898E700007E
:102C80000008024010000020000000206D61782044
:102C900074656D703D203135304300003C050020E7
:102CA000000C024053454E44000000004E55444580
:102CB0005321000030380240F0B50B30154D20F0A4
:102CC00007010024144A0FE003688B420BD38B42A8
:102CD00005D95E1A43184768C3E9006700E04368F6
:102CE000136002C004E0021D10680028ECD12046E9
:102CF000002802D1286808B10020F0BD064A074824
:102D00001060074A121A22F00702C0E900240120CD
:102D10002860D7E75C00002058000020BC05002098
:102D2000B80700200148401EFDD1704790D0030035
:102D30001CB502238DF804100A2100918DF805209E
:102D4000014601AA0148FEF71FFA1CBDAC04002091
:102D50002DE9F84380461C4616460F46581CFFF7DF
:102D6000ABFF05460770012005E0311811F8011C82
:102D70002954401CC0B2A042F7D90A200090234633
:102D80002A4641460348FEF7FFF92846BDE8F843C6
:102D9000FFF762BEAC0400208268034803685A63F0
:102DA000006889688163704700050020000000000A
:102DB0000000000000000000000000000000000013
:102DC0000000000000000000000000000000000003
:102DD0000000000C000C000C000C000C000C000C9F
:102DE000000C000C000C000C0000000C000C00009B
:102DF000000000000000001B001B001B001B001B4C
:102E000000000000000000000000000000000000C2
:102E100000000000000000000000801980198019E7
:102E20008019C07FC07F80190033C07FC07F00330E
:102E30000033003300330000000000000000001EDB
:102E4000003F807580650074003C001E000780050F
:102E5000806580658075003F001E0004000400004E
:102E60000000007000D840D8C0D880D90073000698
:102E7000000C801BC036C066C046C0068003000040
:102E8000000000000000001E003F0033003300334C
:102E9000001E000CC03CC066806380618063C03E41
:102EA000801C0000000000000000000C000C000C62
:102EB000000C000C000000000000000000000000FA
:102EC0000000000000000000000000008000000181
:102ED0000003000600060004000C000C000C000CAF
:102EE000000C000C00040006000600030001800036
:102EF000002000100018000C000C00040006000662
:102F000000060006000600060004000C000C001875
:102F1000001000200000000C002D003F001E0033B8
:102F200000000000000000000000000000000000A1
:102F30000000000000000000000000000000000C85
:102F4000000C000C000CC0FFC0FF000C000C000CBB
:102F5000000C000000000000000000000000000065
:102F60000000000000000000000000000000000061
:102F7000000000000000000C000C00040004000829
:102F80000000000000000000000000000000000041
:102F90000000001E001E00000000000000000000F5
:102FA0000000000000000000000000000000000021
:102FB0000000000000000000000000000000000C05
:102FC000000C0000000000000000000300030003EC
:102FD0000006000600060006000C000C000C000CA9
:102FE0000018001800180000000000000000001E7B
:102FF000003F0033806180618061806D806D806101
:10300000806180610033003F001E0000000000006E
:1030100000000006000E001E003600260006000616
:103020000006000600060006000600060006000076
:10303000000000000000001E003F8073806180617E
:10304000800100030006000C001800300060807F43
:10305000807F0000000000000000001C003E0063B4
:1030600000630003000E000E0003800180018061F8
:103070008073003F001E00000000000000000006FA
:10308000000E000E001E001E001600360036006600
:10309000807F807F00060006000600000000000020
:1030A0000000007F007F006000600060006E007F15
:1030B00080638001800180618073003F001E0000FA
:1030C000000000000000001E003F803380610060AF
:1030D000006E007F80738061806180618033003F7B
:1030E000001E0000000000000000807F807F800143
:1030F0000003000300060006000C000C000C000892
:103100000018001800180000000000000000001E59
:10311000003F8063806180610021001E003F80616C
:10312000806180618061003F001E0000000000009F
:103130000000001E003F0073806180618061807329
:10314000803F801D800180610073003F001E0000F1
:103150000000000000000000000000000000000C63
:10316000000C000000000000000000000000000C47
:10317000000C000000000000000000000000000043
:1031800000000000000C000C000000000000000027
:103190000000000C000C0004000400080000000007
:1031A0000000000080008003000E0038006000383E
:1031B000000E8003800000000000000000000000FE
:1031C00000000000000000000000807F807F000001
:1031D0000000807F807F00000000000000000000F1
:1031E000000000000000000000000000004000702F
:1031F000001C000780010007001C00700040000058
:1032000000000000000000000000001F803FC071AF
:10321000C060C000C00180030007000E000C000C5D
:103220000000000C000C0000000000000000001E68
:10323000003F803180718063806F806D806D806F12
:10324000806700600032003E001C000000000000AB
:103250000000000E000E001B001B001B001B803135
:103260008031803F803F8031C060C060C06000001E
:10327000000000000000007C007E0063006300632B
:103280000063007E007E0063806180618063007F58
:10329000007E0000000000000000001E003F8031A2
:1032A000806100600060006000600060006080611C
:1032B0008031003F001E0000000000000000007C84
:1032C000007F0063806380618061806180618061D4
:1032D000806100630063007E007C0000000000004D
:1032E0000000807F807F0060006000600060007FE1
:1032F000007F0060006000600060807F807F0000D1
:10330000000000000000807F807F0060006000609F
:103310000060007F007F006000600060006000606F
:1033200000600000000000000000001E003F80312F
:103330008061006000600060806380638061806104
:103340008031803F001E000000000000000080610E
:1033500080618061806180618061807F807F806129
:1033600080618061806180618061000000000000F8
:103370000000003F003F000C000C000C000C000C93
:10338000000C000C000C000C000C003F003F000083
:1033900000000000000080018001800180018001A8
:1033A0008001800180018001806180618073003F25
:1033B000001E0000000000000000C060806100638B
:1033C00000660066006C0078007C006600660063A2
:1033D00080618061C06000000000000000000060AB
:1033E00000600060006000600060006000600060DD
:1033F000006000600060807F807F000000000000AF
:103400000000C071C071C07BC07AC06AC06AC06E63
:10341000C064C060C060C060C060C060C0600000C8
:1034200000000000000080718071807980798079CF
:10343000806D806D806D8065806780678067806348
:1034400080630000000000000000001E003F003309
:103450008061806180618061806180618061806164
:103460000033003F001E0000000000000000007E4E
:10347000007F80638061806180618063007F007E67
:10348000006000600060006000600000000000005C
:103490000000001E003F0033806180618061806118
:1034A00080618061806580670033803F401E00003E
:1034B000000000000000007E007F8063806180616A
:1034C0008063007F007E006600630063806180612E
:1034D000C0600000000000000000000E001F8031EE
:1034E000803100300038001E000780038061806159
:1034F0008031003F001E0000000000000000C0FFFF
:10350000C0FF000C000C000C000C000C000C000CA8
:10351000000C000C000C000C000C0000000000006F
:103520000000806180618061806180618061806174
:1035300080618061806180618073003F001E0000B7
:10354000000000000000C060C060C06080318031B9
:103550008031001B001B001B001B000E000E000E24
:1035600000040000000000000000C0C0C0C0C0C0D7
:10357000C0C0C0C0C0CC804C804C805E80528052A5
:103580008073806180610000000000000000C0C006
:10359000806080610033003B001E000C000C001EA8
:1035A000001F003B80718061C0C00000000000006F
:1035B0000000C0C08061806100330033001E001E27
:1035C000000C000C000C000C000C000C000C0000A7
:1035D000000000000000803F803F800100030003E6
:1035E0000006000C000C0018001800300060807FFE
:1035F000807F000000000000000F000F000C000C96
:10360000000C000C000C000C000C000C000C000C5A
:10361000000C000C000C000C000F000F0000001844
:1036200000180018000C000C000C000C000600062E
:103630000006000600030003000300000000000075
:10364000001E001E0006000600060006000600061A
:10365000000600060006000600060006000600063A
:10366000001E001E0000000C000C001E00120033A3
:103670000033806180610000000000000000000055
:10368000000000000000000000000000000000003A
:10369000000000000000000000000000000000002A
:1036A0000000000000000000E0FF00000000003803
:1036B0000018000C000000000000000000000000E6
:1036C00000000000000000000000000000000000FA
:1036D00000000000000000000000001F803F80612B
:1036E0008001801F803F80618063807FC038000040
:1036F0000000000000000060006000600060006EDC
:10370000007F807380618061806180618073007F51
:10371000006E00000000000000000000000000003B
:103720000000001E003F80738061006000608061C7
:103730008073003F001E00000000000000008001B8
:10374000800180018001801D803F807380618061E5
:10375000806180618073803F801D00000000000058
:1037600000000000000000000000001E003F007389
:103770008061807F807F00608071003F001E0000BC
:10378000000000000000C007C00F000C000C807F8C
:10379000807F000C000C000C000C000C000C000CD6
:1037A000000C00000000000000000000000000000D
:1037B000801D803F80738061806180618061807343
:1037C000803F801D80018063007F003E000000601C
:1037D000006000600060006F807F807180618061A8
:1037E0008061806180618061806100000000000074
:1037F00000000006000600000000003E003E00063B
:10380000000600060006000600060006000600008E
:10381000000000000006000600000000003E003E20
:103820000006000600060006000600060006000668
:1038300000060046007E003C000000600060006062
:103840000060806100630066006C007C00760063AD
:1038500000638061C0600000000000000000003EC6
:10386000003E0006000600060006000600060006F0
:10387000000600060006000600060000000000002A
:103880000000000000000000000080DDC0FFC0CE8E
:10389000C0CCC0CCC0CCC0CCC0CCC0CCC0CC000054
:1038A0000000000000000000000000000000006FA9
:1038B000807F8071806180618061806180618061D2
:1038C0008061000000000000000000000000000017
:1038D0000000001E003F8073806180618061806114
:1038E0008073003F001E0000000000000000000088
:1038F00000000000006E007F807380618061806145
:1039000080618073007F006E006000600060006076
:103910000000000000000000801D803F8073806177
:103920008061806180618073803F801D80018001A3
:10393000800180010000000000000000000000671E
:10394000803F00390030003000300030003000305F
:103950000030000000000000000000000000000037
:103960000000001E803F80610060007F803F80017A
:103970008061007F001E00000000000000000000C9
:10398000000800180018007F007F001800180018B9
:10399000001800180018801F800F000000000000B1
:1039A0000000000000000000000080618061806174
:1039B00080618061806180618063807F803D0000E4
:1039C0000000000000000000000000000000C060D7
:1039D000803180318031001B001B001B000E000E67
:1039E00000060000000000000000000000000000D1
:1039F000000080DD80DD80DD00550055005500773A
:103A000000770022002200000000000000000000FB
:103A1000000000000000806100330033001E000C35
:103A2000000C001E00330033806100000000000025
:103A300000000000000000008061806180310033E0
:103A40000033001B001B001B000E000E000E001CAC
:103A5000007C007000000000000000000000C07F3B
:103A6000C07F800100030006000C00180030C07FFA
:103A7000C07F0000000000008003800700060006F1
:103A8000000600060006000E001C001C000E0006CA
:103A900000060006000600068007800300060006F8
:103AA00000060006000600060006000600060006E6
:103AB00000060006000600060006000600060006D6
:103AC0000038003C000C000C000C000C000C000E38
:103AD00000070007000E000C000C000C000C000C8E
:103AE000003C003800000000000000000000000062
:103AF00000008038807F00470000000000000000C8
:103B0000000000000000000000061016000610165D
:103B1000000000000000000001020304060708097D
:103B20000000000001020304000000000030F13D2D
:103B30000070643E0000A33E0090CF3E0090F83E2F
:103B400000400F3F00E0203F0000000015B7833722
:103B5000CDE37B380EE1C53860F69138AF5F0F38A2
:103B6000E1BC3E3823F44739883B000800000020C0
:103B70006400000074290008EC3B00086400002089
:103B8000540B0000842900080B120000AC2D000823
:103B90000000000000000000000000000000000025
:103BA0000050C347331395433333534000000000A4
:103BB00000000000000000000000000000C07F4581
:103BC00000000000000000000000000000000000F5
:103BD0000100000010000000000000000024F400BC
:0C3BE000000000000000000000000000D9
:040000050800019955
:00000001FF
